{
  "_format": "hh-sol-artifact-1",
  "contractName": "CredPlugin",
  "sourceName": "contracts/CredPlugin.sol",
  "abi": [
    {
      "inputs": [
        {
          "internalType": "contract IERC20Plugins",
          "name": "_myAsset",
          "type": "address"
        }
      ],
      "stateMutability": "nonpayable",
      "type": "constructor"
    },
    {
      "inputs": [],
      "name": "AccessDenied",
      "type": "error"
    },
    {
      "inputs": [],
      "name": "token",
      "outputs": [
        {
          "internalType": "contract IERC20Plugins",
          "name": "",
          "type": "address"
        }
      ],
      "stateMutability": "view",
      "type": "function"
    },
    {
      "inputs": [
        {
          "internalType": "address",
          "name": "from",
          "type": "address"
        },
        {
          "internalType": "address",
          "name": "to",
          "type": "address"
        },
        {
          "internalType": "uint256",
          "name": "amount",
          "type": "uint256"
        }
      ],
      "name": "updateBalances",
      "outputs": [],
      "stateMutability": "nonpayable",
      "type": "function"
    }
  ],
  "bytecode": "0x60a03461007057601f6105ac38819003918201601f19168301916001600160401b038311848410176100755780849260209460405283398101031261007057516001600160a01b038116810361007057608052604051610520908161008c8239608051818181608301526101150152f35b600080fd5b634e487b7160e01b600052604160045260246000fdfe6080604081815260048036101561001557600080fd5b600092833560e01c9182637a1f1aa9146100ab57505063fc0c546a1461003a57600080fd5b346100a757817ffffffffffffffffffffffffffffffffffffffffffffffffffffffffffffffffc3601126100a7576020905173ffffffffffffffffffffffffffffffffffffffff7f0000000000000000000000000000000000000000000000000000000000000000168152f35b5080fd5b849084346104625760607ffffffffffffffffffffffffffffffffffffffffffffffffffffffffffffffffc3601126104625781359373ffffffffffffffffffffffffffffffffffffffff80861680960361045e576024958635928284168094036102ee57604435927f000000000000000000000000000000000000000000000000000000000000000016330361043757508015158061042e575b61014d578580f35b83517fad974f4c000000000000000000000000000000000000000000000000000000009283825260209384838981875afa9283156103ca5789936103ff575b508183039289831280158286131691851216176103d457865190815284818981895afa9081156103ca578991610399575b5088828201928312911290801582169115161761036e578551917f1a502de90000000000000000000000000000000000000000000000000000000083528783015288820152828160448173__$648159d2c5d304602f0725feb07e8af575$__5af492831561033057879361033e575b5050803b1561033a57835186818981837fceca812f0000000000000000000000000000000000000000000000000000000096878352888c8401525af180156103305761031d575b507f800000000000000000000000000000000000000000000000000000000000000082146102f257958596833b156102ee578680948651978895869485528303908401525af19081156102e557506102ce575b808080808580f35b6102d790610466565b6102e25780826102c6565b80fd5b513d84823e3d90fd5b8680fd5b86866011877f4e487b7100000000000000000000000000000000000000000000000000000000835252fd5b61032990969196610466565b9487610273565b85513d89823e3d90fd5b8580fd5b9080929350813d8311610367575b61035681836104a9565b8101031261033a575190878061022c565b503d61034c565b88886011897f4e487b7100000000000000000000000000000000000000000000000000000000835252fd5b90508481813d83116103c3575b6103b081836104a9565b810103126103bf57518a6101bd565b8880fd5b503d6103a6565b87513d8b823e3d90fd5b898960118a7f4e487b7100000000000000000000000000000000000000000000000000000000835252fd5b9092508481813d8311610427575b61041781836104a9565b810103126103bf5751918a61018c565b503d61040d565b50821515610145565b807f4ca8886700000000000000000000000000000000000000000000000000000000879252fd5b8480fd5b8280fd5b67ffffffffffffffff811161047a57604052565b7f4e487b7100000000000000000000000000000000000000000000000000000000600052604160045260246000fd5b90601f7fffffffffffffffffffffffffffffffffffffffffffffffffffffffffffffffe0910116810190811067ffffffffffffffff82111761047a5760405256fea26469706673582212204434f698383d8278094cc25dc8d177b62d02dc8a2a13fbab94c98228d52f6d8a64736f6c63430008140033",
  "linkReferences": {
    "contracts/libs/AYPCalc.sol": {
      "AYPCalc": [
        {
          "length": 20,
          "start": 661
        }
      ]
    }
  },
  "deployedLinkReferences": {
    "contracts/libs/AYPCalc.sol": {
      "AYPCalc": [
        {
          "length": 20,
          "start": 521
        }
      ]
    }
  }
}