{
  "_format": "hh-sol-artifact-1",
  "contractName": "WETH",
  "sourceName": "contracts/WETH.sol",
  "abi": [
    {
      "inputs": [
        {
          "internalType": "string",
          "name": "name_",
          "type": "string"
        },
        {
          "internalType": "string",
          "name": "symbol_",
          "type": "string"
        },
        {
          "internalType": "uint256",
          "name": "maxUserPlugins_",
          "type": "uint256"
        },
        {
          "internalType": "uint256",
          "name": "pluginCallGasLimit_",
          "type": "uint256"
        }
      ],
      "stateMutability": "nonpayable",
      "type": "constructor"
    },
    {
      "inputs": [],
      "name": "IndexOutOfBounds",
      "type": "error"
    },
    {
      "inputs": [],
      "name": "InvalidPluginAddress",
      "type": "error"
    },
    {
      "inputs": [],
      "name": "InvalidTokenInPlugin",
      "type": "error"
    },
    {
      "inputs": [],
      "name": "OutputArrayTooSmall",
      "type": "error"
    },
    {
      "inputs": [],
      "name": "PluginAlreadyAdded",
      "type": "error"
    },
    {
      "inputs": [],
      "name": "PluginNotFound",
      "type": "error"
    },
    {
      "inputs": [],
      "name": "PluginsLimitReachedForAccount",
      "type": "error"
    },
    {
      "inputs": [],
      "name": "PopFromEmptyArray",
      "type": "error"
    },
    {
      "inputs": [],
      "name": "ReentrantCall",
      "type": "error"
    },
    {
      "inputs": [],
      "name": "ZeroPluginsLimit",
      "type": "error"
    },
    {
      "anonymous": false,
      "inputs": [
        {
          "indexed": true,
          "internalType": "address",
          "name": "owner",
          "type": "address"
        },
        {
          "indexed": true,
          "internalType": "address",
          "name": "spender",
          "type": "address"
        },
        {
          "indexed": false,
          "internalType": "uint256",
          "name": "value",
          "type": "uint256"
        }
      ],
      "name": "Approval",
      "type": "event"
    },
    {
      "anonymous": false,
      "inputs": [
        {
          "indexed": false,
          "internalType": "address",
          "name": "account",
          "type": "address"
        },
        {
          "indexed": false,
          "internalType": "address",
          "name": "plugin",
          "type": "address"
        }
      ],
      "name": "PluginAdded",
      "type": "event"
    },
    {
      "anonymous": false,
      "inputs": [
        {
          "indexed": false,
          "internalType": "address",
          "name": "account",
          "type": "address"
        },
        {
          "indexed": false,
          "internalType": "address",
          "name": "plugin",
          "type": "address"
        }
      ],
      "name": "PluginRemoved",
      "type": "event"
    },
    {
      "anonymous": false,
      "inputs": [
        {
          "indexed": true,
          "internalType": "address",
          "name": "from",
          "type": "address"
        },
        {
          "indexed": true,
          "internalType": "address",
          "name": "to",
          "type": "address"
        },
        {
          "indexed": false,
          "internalType": "uint256",
          "name": "value",
          "type": "uint256"
        }
      ],
      "name": "Transfer",
      "type": "event"
    },
    {
      "inputs": [
        {
          "internalType": "address",
          "name": "plugin",
          "type": "address"
        }
      ],
      "name": "addPlugin",
      "outputs": [],
      "stateMutability": "nonpayable",
      "type": "function"
    },
    {
      "inputs": [
        {
          "internalType": "address",
          "name": "owner",
          "type": "address"
        },
        {
          "internalType": "address",
          "name": "spender",
          "type": "address"
        }
      ],
      "name": "allowance",
      "outputs": [
        {
          "internalType": "uint256",
          "name": "",
          "type": "uint256"
        }
      ],
      "stateMutability": "view",
      "type": "function"
    },
    {
      "inputs": [
        {
          "internalType": "address",
          "name": "spender",
          "type": "address"
        },
        {
          "internalType": "uint256",
          "name": "amount",
          "type": "uint256"
        }
      ],
      "name": "approve",
      "outputs": [
        {
          "internalType": "bool",
          "name": "",
          "type": "bool"
        }
      ],
      "stateMutability": "nonpayable",
      "type": "function"
    },
    {
      "inputs": [
        {
          "internalType": "address",
          "name": "account",
          "type": "address"
        }
      ],
      "name": "balanceOf",
      "outputs": [
        {
          "internalType": "uint256",
          "name": "",
          "type": "uint256"
        }
      ],
      "stateMutability": "view",
      "type": "function"
    },
    {
      "inputs": [
        {
          "internalType": "address",
          "name": "account",
          "type": "address"
        },
        {
          "internalType": "uint256",
          "name": "amount",
          "type": "uint256"
        }
      ],
      "name": "burn",
      "outputs": [],
      "stateMutability": "nonpayable",
      "type": "function"
    },
    {
      "inputs": [],
      "name": "decimals",
      "outputs": [
        {
          "internalType": "uint8",
          "name": "",
          "type": "uint8"
        }
      ],
      "stateMutability": "view",
      "type": "function"
    },
    {
      "inputs": [
        {
          "internalType": "address",
          "name": "spender",
          "type": "address"
        },
        {
          "internalType": "uint256",
          "name": "subtractedValue",
          "type": "uint256"
        }
      ],
      "name": "decreaseAllowance",
      "outputs": [
        {
          "internalType": "bool",
          "name": "",
          "type": "bool"
        }
      ],
      "stateMutability": "nonpayable",
      "type": "function"
    },
    {
      "inputs": [],
      "name": "getTokenAYP",
      "outputs": [
        {
          "internalType": "int256",
          "name": "",
          "type": "int256"
        }
      ],
      "stateMutability": "view",
      "type": "function"
    },
    {
      "inputs": [],
      "name": "getTokenSupply",
      "outputs": [
        {
          "internalType": "int256",
          "name": "",
          "type": "int256"
        }
      ],
      "stateMutability": "view",
      "type": "function"
    },
    {
      "inputs": [
        {
          "internalType": "address",
          "name": "account",
          "type": "address"
        },
        {
          "internalType": "address",
          "name": "plugin",
          "type": "address"
        }
      ],
      "name": "hasPlugin",
      "outputs": [
        {
          "internalType": "bool",
          "name": "",
          "type": "bool"
        }
      ],
      "stateMutability": "view",
      "type": "function"
    },
    {
      "inputs": [
        {
          "internalType": "address",
          "name": "spender",
          "type": "address"
        },
        {
          "internalType": "uint256",
          "name": "addedValue",
          "type": "uint256"
        }
      ],
      "name": "increaseAllowance",
      "outputs": [
        {
          "internalType": "bool",
          "name": "",
          "type": "bool"
        }
      ],
      "stateMutability": "nonpayable",
      "type": "function"
    },
    {
      "inputs": [],
      "name": "maxPluginsPerAccount",
      "outputs": [
        {
          "internalType": "uint256",
          "name": "",
          "type": "uint256"
        }
      ],
      "stateMutability": "view",
      "type": "function"
    },
    {
      "inputs": [
        {
          "internalType": "address",
          "name": "account",
          "type": "address"
        },
        {
          "internalType": "uint256",
          "name": "amount",
          "type": "uint256"
        }
      ],
      "name": "mint",
      "outputs": [],
      "stateMutability": "nonpayable",
      "type": "function"
    },
    {
      "inputs": [],
      "name": "name",
      "outputs": [
        {
          "internalType": "string",
          "name": "",
          "type": "string"
        }
      ],
      "stateMutability": "view",
      "type": "function"
    },
    {
      "inputs": [
        {
          "internalType": "address",
          "name": "account",
          "type": "address"
        },
        {
          "internalType": "uint256",
          "name": "index",
          "type": "uint256"
        }
      ],
      "name": "pluginAt",
      "outputs": [
        {
          "internalType": "address",
          "name": "",
          "type": "address"
        }
      ],
      "stateMutability": "view",
      "type": "function"
    },
    {
      "inputs": [
        {
          "internalType": "address",
          "name": "plugin",
          "type": "address"
        },
        {
          "internalType": "address",
          "name": "account",
          "type": "address"
        }
      ],
      "name": "pluginBalanceOf",
      "outputs": [
        {
          "internalType": "uint256",
          "name": "",
          "type": "uint256"
        }
      ],
      "stateMutability": "view",
      "type": "function"
    },
    {
      "inputs": [],
      "name": "pluginCallGasLimit",
      "outputs": [
        {
          "internalType": "uint256",
          "name": "",
          "type": "uint256"
        }
      ],
      "stateMutability": "view",
      "type": "function"
    },
    {
      "inputs": [
        {
          "internalType": "address",
          "name": "account",
          "type": "address"
        }
      ],
      "name": "plugins",
      "outputs": [
        {
          "internalType": "address[]",
          "name": "",
          "type": "address[]"
        }
      ],
      "stateMutability": "view",
      "type": "function"
    },
    {
      "inputs": [
        {
          "internalType": "address",
          "name": "account",
          "type": "address"
        }
      ],
      "name": "pluginsCount",
      "outputs": [
        {
          "internalType": "uint256",
          "name": "",
          "type": "uint256"
        }
      ],
      "stateMutability": "view",
      "type": "function"
    },
    {
      "inputs": [],
      "name": "removeAllPlugins",
      "outputs": [],
      "stateMutability": "nonpayable",
      "type": "function"
    },
    {
      "inputs": [
        {
          "internalType": "address",
          "name": "plugin",
          "type": "address"
        }
      ],
      "name": "removePlugin",
      "outputs": [],
      "stateMutability": "nonpayable",
      "type": "function"
    },
    {
      "inputs": [],
      "name": "symbol",
      "outputs": [
        {
          "internalType": "string",
          "name": "",
          "type": "string"
        }
      ],
      "stateMutability": "view",
      "type": "function"
    },
    {
      "inputs": [],
      "name": "totalSupply",
      "outputs": [
        {
          "internalType": "uint256",
          "name": "",
          "type": "uint256"
        }
      ],
      "stateMutability": "view",
      "type": "function"
    },
    {
      "inputs": [
        {
          "internalType": "address",
          "name": "to",
          "type": "address"
        },
        {
          "internalType": "uint256",
          "name": "amount",
          "type": "uint256"
        }
      ],
      "name": "transfer",
      "outputs": [
        {
          "internalType": "bool",
          "name": "",
          "type": "bool"
        }
      ],
      "stateMutability": "nonpayable",
      "type": "function"
    },
    {
      "inputs": [
        {
          "internalType": "address",
          "name": "from",
          "type": "address"
        },
        {
          "internalType": "address",
          "name": "to",
          "type": "address"
        },
        {
          "internalType": "uint256",
          "name": "amount",
          "type": "uint256"
        }
      ],
      "name": "transferFrom",
      "outputs": [
        {
          "internalType": "bool",
          "name": "",
          "type": "bool"
        }
      ],
      "stateMutability": "nonpayable",
      "type": "function"
    },
    {
      "inputs": [
        {
          "internalType": "int256",
          "name": "newAYP",
          "type": "int256"
        }
      ],
      "name": "updateTokenAYP",
      "outputs": [],
      "stateMutability": "nonpayable",
      "type": "function"
    },
    {
      "inputs": [
        {
          "internalType": "int256",
          "name": "change",
          "type": "int256"
        }
      ],
      "name": "updateTokenSupply",
      "outputs": [],
      "stateMutability": "nonpayable",
      "type": "function"
    }
  ],
  "bytecode": "0x60c0604052346200038e57620027e6803803806200001d8162000393565b92833981016080828203126200038e5781516001600160401b03908181116200038e57826200004e918501620003b9565b9260209283820151908382116200038e576200006c918301620003b9565b606060408301519201519285518181116200028e576003908154906001988983811c9316801562000383575b898410146200036d578190601f9384811162000317575b508990848311600114620002b057600092620002a4575b505060001982851b1c191690891b1782555b83519283116200028e576004938454978989811c9916801562000283575b818a10146200026e5782891162000222575b84959697985080928511600114620001b45750600093620001a8575b505082871b92600019911b1c19161781555b811562000199575060805260a052600555600a6007556305f5e1006008556040516123ba90816200042c823960805181818161031701526113c4015260a0518181816105da01528181611c1701528181611c9e01528181611d2d0152611f840152f35b60405163cdaf747b60e01b8152fd5b01519150388062000124565b929190899550601f1985168760005284600020946000905b828210620002085750508511620001ed575b50505050811b01815562000136565b01519060f884600019921b161c1916905538808080620001de565b8484015187558c98909601959384019390810190620001cc565b856000528060002083860160051c81019982871062000263575b840160051c01988a905b8a81106200025657505062000108565b60008155018a9062000246565b90995089906200023c565b602286634e487b7160e01b6000525260246000fd5b98607f1698620000f6565b634e487b7160e01b600052604160045260246000fd5b015190503880620000c6565b908b9350601f19831691866000528b6000209260005b8d828210620003005750508411620002e7575b505050811b018255620000d8565b015160001983871b60f8161c19169055388080620002d9565b8385015186558f97909501949384019301620002c6565b90915084600052896000208480850160051c8201928c861062000363575b918d91869594930160051c01915b82811062000353575050620000af565b600081558594508d910162000343565b9250819262000335565b634e487b7160e01b600052602260045260246000fd5b92607f169262000098565b600080fd5b6040519190601f01601f191682016001600160401b038111838210176200028e57604052565b919080601f840112156200038e5782516001600160401b0381116200028e57602090620003ef601f8201601f1916830162000393565b928184528282870101116200038e5760005b8181106200041757508260009394955001015290565b85810183015184820184015282016200040156fe608060408181526004918236101561001657600080fd5b600092833560e01c91826306fdde03146114da57508163095ea7b31461149257816318160ddd146114555781631945f729146113e7578163236d88351461138e57816323b872dd1461126057816328ad0db714611223578163313ce567146111e9578163395093511461116f57816340c10f1914610f425781634b12e64314610ea45781636172813414610e3457816370a0823114610df05781638b822d8814610ccb57816395d89b4114610b735781639dc29fac1461086b578163a457c2d714610768578163a4d95b6414610689578163a9059cbb1461063a578163ad974f4c146105fd578163b2be2d58146105a4578163bb71fca514610560578163c1255635146104d6578163ceca812f14610492578163d8867fc81461023c57508063dd62ed3e146101c95763ed6edc821461014e57600080fd5b346101c557807ffffffffffffffffffffffffffffffffffffffffffffffffffffffffffffffffc3601126101c55780602092610188611686565b6101906116ae565b73ffffffffffffffffffffffffffffffffffffffff918216835260068652838320911682526001018452205490519015158152f35b5080fd5b50346101c557807ffffffffffffffffffffffffffffffffffffffffffffffffffffffffffffffffc3601126101c55780602092610204611686565b61020c6116ae565b73ffffffffffffffffffffffffffffffffffffffff91821683526001865283832091168252845220549051908152f35b9190503461048e57602091827ffffffffffffffffffffffffffffffffffffffffffffffffffffffffffffffffc36011261048a57610278611686565b9273ffffffffffffffffffffffffffffffffffffffff808516801561046257908284928651938480927ffc0c546a0000000000000000000000000000000000000000000000000000000082525afa91821561045857879261041c575b50309116036103f457338552600681526102f08484872061196b565b156103cc57600690338652526103158285206000805260205260406000205460a01c90565b7f0000000000000000000000000000000000000000000000000000000000000000106103a557505133815273ffffffffffffffffffffffffffffffffffffffff821660208201527f68aafb7a848a8e6e0e8fe992de5812474789ddec166ce06be4de83b3aaa2864e90604090a161038b336118c2565b80610394578280f35b61039f913390611c12565b38808280f35b90517f2846f78a000000000000000000000000000000000000000000000000000000008152fd5b5090517ffce323d6000000000000000000000000000000000000000000000000000000008152fd5b5090517f5940fcc8000000000000000000000000000000000000000000000000000000008152fd5b9091508281813d8311610451575b61043481836116d1565b8101031261044d5751818116810361044d5790386102d4565b8680fd5b503d61042a565b85513d89823e3d90fd5b8385517f4c6ea03c000000000000000000000000000000000000000000000000000000008152fd5b8380fd5b8280fd5b8390346101c55760207ffffffffffffffffffffffffffffffffffffffffffffffffffffffffffffffffc3601126101c5576104d09035600754612368565b60075580f35b82843461055d57817ffffffffffffffffffffffffffffffffffffffffffffffffffffffffffffffffc36011261055d575061050f611686565b6105176116ae565b92600260055414610536575060209261052f9161191d565b9051908152f35b82517f37ed32e8000000000000000000000000000000000000000000000000000000008152fd5b80fd5b8390346101c55760207ffffffffffffffffffffffffffffffffffffffffffffffffffffffffffffffffc3601126101c55761059e9035600854612368565b60085580f35b5050346101c557817ffffffffffffffffffffffffffffffffffffffffffffffffffffffffffffffffc3601126101c557602090517f00000000000000000000000000000000000000000000000000000000000000008152f35b5050346101c557817ffffffffffffffffffffffffffffffffffffffffffffffffffffffffffffffffc3601126101c5576020906008549051908152f35b5050346101c557807ffffffffffffffffffffffffffffffffffffffffffffffffffffffffffffffffc3601126101c557602090610682610678611686565b6024359033611dd6565b5160018152f35b9190503461048e5760207ffffffffffffffffffffffffffffffffffffffffffffffffffffffffffffffffc36011261048e576106c3611686565b9133845260066020526106d883838620611a34565b1561074157505133815273ffffffffffffffffffffffffffffffffffffffff821660208201527f550ef13f654f6fc7054e7c556d2647cb8838befbfa68640bb3050fc458ad473590604090a161072d336118c2565b80610736578280f35b61039f913390611d28565b90517f108a506d000000000000000000000000000000000000000000000000000000008152fd5b9050823461055d57827ffffffffffffffffffffffffffffffffffffffffffffffffffffffffffffffffc36011261055d576107a1611686565b918360243592338152600160205281812073ffffffffffffffffffffffffffffffffffffffff861682526020522054908282106107e85760208561068285850387336121f3565b60849060208651917f08c379a0000000000000000000000000000000000000000000000000000000008352820152602560248201527f45524332303a2064656372656173656420616c6c6f77616e63652062656c6f7760448201527f207a65726f0000000000000000000000000000000000000000000000000000006064820152fd5b9190503461048e57807ffffffffffffffffffffffffffffffffffffffffffffffffffffffffffffffffc36011261048e576108a4611686565b906024359173ffffffffffffffffffffffffffffffffffffffff91828216908115610af15781875260209587875281882054868110610a6f578690848a528989520382892055856002540360025587837fddf252ad1be2c89b69c2b068fc378daa952ba7f163c4a11628f55a4df523b3ef8985518a8152a3600260055414610a485750600260055584151580610a40575b610943575b86600160055580f35b61096691875260068652600661095a828920611759565b96888052528620611759565b90845190825195875b8381106109b85750505050845b848110610989578061093a565b80836109976001938561187f565b511685816109a8575b50500161097c565b6109b191611c9b565b38856109a0565b856109c3828461187f565b51169089915b88858b8086106109f7575b600195146109e6575b5050500161096f565b6109ef92611d28565b3888856109dd565b8d8b610a07888d9997989961187f565b51168614610a1d575050505060010191906109c9565b938594610a2e858560019a99611d28565b610a38828d61187f565b5295506109d4565b506001610935565b90517f37ed32e8000000000000000000000000000000000000000000000000000000008152fd5b508660849251917f08c379a0000000000000000000000000000000000000000000000000000000008352820152602260248201527f45524332303a206275726e20616d6f756e7420657863656564732062616c616e60448201527f63650000000000000000000000000000000000000000000000000000000000006064820152fd5b517f08c379a0000000000000000000000000000000000000000000000000000000008152602081870152602160248201527f45524332303a206275726e2066726f6d20746865207a65726f2061646472657360448201527f73000000000000000000000000000000000000000000000000000000000000006064820152608490fd5b8383346101c557817ffffffffffffffffffffffffffffffffffffffffffffffffffffffffffffffffc3601126101c557805191809380549160019083821c92828516948515610cc1575b6020958686108114610c9557858952908115610c535750600114610bfb575b610bf78787610bed828c03836116d1565b5191829182611620565b0390f35b81529295507f8a35acfbc15ff81a39ae7d344fd709f28e8600b4aa8c65c6b64bfe7fe36bd19b5b828410610c405750505082610bf794610bed92820101948680610bdc565b8054868501880152928601928101610c22565b7fffffffffffffffffffffffffffffffffffffffffffffffffffffffffffffff00168887015250505050151560051b8301019250610bed82610bf78680610bdc565b6024846022857f4e487b7100000000000000000000000000000000000000000000000000000000835252fd5b93607f1693610bbd565b5050346101c557817ffffffffffffffffffffffffffffffffffffffffffffffffffffffffffffffffc3601126101c5573382526006602091818352610d11818520611759565b92610d1b336118c2565b9184519182841515935b610d2d578780f35b8073ffffffffffffffffffffffffffffffffffffffff610d707fffffffffffffffffffffffffffffffffffffffffffffffffffffffffffffffff8094018a61187f565b5116338a52878452610d8481868c20611a34565b50845133815273ffffffffffffffffffffffffffffffffffffffff82166020820152879087907f550ef13f654f6fc7054e7c556d2647cb8838befbfa68640bb3050fc458ad473590604090a1610dde575b50500180610d25565b610de9913390611d28565b3886610dd5565b5050346101c55760207ffffffffffffffffffffffffffffffffffffffffffffffffffffffffffffffffc3601126101c55760209061052f610e2f611686565b6118c2565b5050346101c55760207ffffffffffffffffffffffffffffffffffffffffffffffffffffffffffffffffc3601126101c55761052f8160209373ffffffffffffffffffffffffffffffffffffffff610e89611686565b16815260068552206000805260205260406000205460a01c90565b82843461055d576020807ffffffffffffffffffffffffffffffffffffffffffffffffffffffffffffffffc3601126101c5578273ffffffffffffffffffffffffffffffffffffffff9283610ef6611686565b16815260068352610f08828220611759565b918051938080860192818752855180945286019401925b828110610f2c5785850386f35b8351871685529381019392810192600101610f1f565b9190503461048e57807ffffffffffffffffffffffffffffffffffffffffffffffffffffffffffffffffc36011261048e57610f7b611686565b906024359073ffffffffffffffffffffffffffffffffffffffff9081841694851561111357610fac84600254611d9a565b6002558587528660205281872084815401905585877fddf252ad1be2c89b69c2b068fc378daa952ba7f163c4a11628f55a4df523b3ef60208551888152a3600260055414610a48575060026005558215158061110b575b611011575b85600160055580f35b611037908680526006602052611028818820611759565b95875260066020528620611759565b8451815195875b82811061108957505050855b8581106110575750611008565b80836110656001938561187f565b5116858782611078575b5050500161104a565b61108192611c12565b38858761106f565b84611094828461187f565b51169089915b878a8085106110c5575b600194146110b5575b50500161103e565b6110be91611c9b565b38876110ad565b886110d4868a9795969761187f565b511684146110e8575050600101919061109a565b83926110f8838d60019897611c12565b8d611103828b61187f565b5294506110a4565b506001611003565b602060649251917f08c379a0000000000000000000000000000000000000000000000000000000008352820152601f60248201527f45524332303a206d696e7420746f20746865207a65726f2061646472657373006044820152fd5b5050346101c557807ffffffffffffffffffffffffffffffffffffffffffffffffffffffffffffffffc3601126101c5576106826020926111e26111b0611686565b913381526001865284812073ffffffffffffffffffffffffffffffffffffffff84168252865284602435912054611d9a565b90336121f3565b5050346101c557817ffffffffffffffffffffffffffffffffffffffffffffffffffffffffffffffffc3601126101c5576020905160128152f35b5050346101c557817ffffffffffffffffffffffffffffffffffffffffffffffffffffffffffffffffc3601126101c5576020906007549051908152f35b839150346101c55760607ffffffffffffffffffffffffffffffffffffffffffffffffffffffffffffffffc3601126101c55761129a611686565b6112a26116ae565b91846044359473ffffffffffffffffffffffffffffffffffffffff8416815260016020528181203382526020522054907fffffffffffffffffffffffffffffffffffffffffffffffffffffffffffffffff8203611308575b602086610682878787611dd6565b848210611331575091839161132660209695610682950333836121f3565b9193948193506112fa565b60649060208751917f08c379a0000000000000000000000000000000000000000000000000000000008352820152601d60248201527f45524332303a20696e73756666696369656e7420616c6c6f77616e63650000006044820152fd5b5050346101c557817ffffffffffffffffffffffffffffffffffffffffffffffffffffffffffffffffc3601126101c557602090517f00000000000000000000000000000000000000000000000000000000000000008152f35b5050346101c557807ffffffffffffffffffffffffffffffffffffffffffffffffffffffffffffffffc3601126101c5576020918173ffffffffffffffffffffffffffffffffffffffff918261143a611686565b16815260068552818120602435825285522054169051908152f35b5050346101c557817ffffffffffffffffffffffffffffffffffffffffffffffffffffffffffffffffc3601126101c5576020906002549051908152f35b5050346101c557807ffffffffffffffffffffffffffffffffffffffffffffffffffffffffffffffffc3601126101c5576020906106826114d0611686565b60243590336121f3565b9291503461048a57837ffffffffffffffffffffffffffffffffffffffffffffffffffffffffffffffffc36011261048a57600354600181811c9186908281168015611616575b60209586861082146115ea57508488529081156115aa5750600114611551575b610bf78686610bed828b03836116d1565b929550600383527fc2575a0e9e593c00f959f8c92f12db2869c3395a3b0502d05e2516446f71f85b5b8284106115975750505082610bf794610bed928201019438611540565b805486850188015292860192810161157a565b7fffffffffffffffffffffffffffffffffffffffffffffffffffffffffffffff001687860152505050151560051b8301019250610bed82610bf738611540565b8360226024927f4e487b7100000000000000000000000000000000000000000000000000000000835252fd5b93607f1693611520565b60208082528251818301819052939260005b858110611672575050507fffffffffffffffffffffffffffffffffffffffffffffffffffffffffffffffe0601f8460006040809697860101520116010190565b818101830151848201604001528201611632565b6004359073ffffffffffffffffffffffffffffffffffffffff821682036116a957565b600080fd5b6024359073ffffffffffffffffffffffffffffffffffffffff821682036116a957565b90601f7fffffffffffffffffffffffffffffffffffffffffffffffffffffffffffffffe0910116810190811067ffffffffffffffff82111761171257604052565b7f4e487b7100000000000000000000000000000000000000000000000000000000600052604160045260246000fd5b67ffffffffffffffff81116117125760051b60200190565b906000808052602090838252604090818120548060a01c9261177a84611741565b92611787825194856116d1565b84845261179385611741565b977fffffffffffffffffffffffffffffffffffffffffffffffffffffffffffffffe08786019901368a3784988551871161185657866117d7575b5050505050505050565b8551156118295773ffffffffffffffffffffffffffffffffffffffff8095169052600196875b87811061180a57506117cd565b8089918552838352868686205416611822828a61187f565b52016117fd565b6024837f4e487b710000000000000000000000000000000000000000000000000000000081526032600452fd5b600484517ff9a99b25000000000000000000000000000000000000000000000000000000008152fd5b80518210156118935760209160051b010190565b7f4e487b7100000000000000000000000000000000000000000000000000000000600052603260045260246000fd5b6002600554146118f35773ffffffffffffffffffffffffffffffffffffffff16600052600060205260406000205490565b60046040517f37ed32e8000000000000000000000000000000000000000000000000000000008152fd5b73ffffffffffffffffffffffffffffffffffffffff8092169060009282845260066020526001604085200191168352602052604082205461195c575090565b90604091815280602052205490565b9073ffffffffffffffffffffffffffffffffffffffff600183019116600092818452826020526040842054611a2e5760409260019285805282602052848620928354938460a01c948515600014611a0657505086805260205274ffffffffffffffffffffffffffffffffffffffffff81740100000000000000000000000000000000000000000116858720555b855260205201912055600190565b74010000000000000000000000000000000000000000019055508286528486208190556119f8565b50505090565b906001820173ffffffffffffffffffffffffffffffffffffffff8092169260009380855260209183835260409485872054908115611c0857611a83836000805260205260406000205460a01c90565b8210611b3d575b505085805280835284862054908160a01c908115611b1457906001917fffffffffffffffffffffffffffffffffffffffffffffffffffffffffffffffff820189528552878781205511611ae4575b50845252812055600190565b7fffffffffffffffffffffffff000000000000000000000000000000000000000090868052018486205538611ad8565b600487517f06a2af9e000000000000000000000000000000000000000000000000000000008152fd5b7fffffffffffffffffffffffffffffffffffffffffffffffffffffffffffffffff9081611b77856000805260205260406000205460a01c90565b0189528386528789205416908201611b9c846000805260205260406000205460a01c90565b9081811015611bdf5782919080611bcd575089805284875260a01b17878920555b8752848452858720553880611a8a565b91505088528285528087892055611bbd565b600489517f4e23d035000000000000000000000000000000000000000000000000000000008152fd5b5050505050505090565b9190917f000000000000000000000000000000000000000000000000000000000000000091604051937f7a1f1aa90000000000000000000000000000000000000000000000000000000085526000600486015260248501526044840152600080606485825a9587f115611c8457505050565b603f0260061c10611c925750565b3d6000823e3d90fd5b907f0000000000000000000000000000000000000000000000000000000000000000604051927f7a1f1aa900000000000000000000000000000000000000000000000000000000845260009283600486015283602486015260448501528280606486825a9587f115611d0e575b50505050565b603f0260061c10611d20578080611d08565b3d90823e3d90fd5b9190917f000000000000000000000000000000000000000000000000000000000000000091604051937f7a1f1aa90000000000000000000000000000000000000000000000000000000085526004850152600060248501526044840152600080606485825a9587f115611c8457505050565b91908201809211611da757565b7f4e487b7100000000000000000000000000000000000000000000000000000000600052601160045260246000fd5b9173ffffffffffffffffffffffffffffffffffffffff808416801561216f578184169485156120eb5760009082825260209282845260409384842054878110612068578790838652858352038585205588845284842087815401905588827fddf252ad1be2c89b69c2b068fc378daa952ba7f163c4a11628f55a4df523b3ef8388518b8152a360026005541461203f57600260055586151580612035575b611e89575b5050505050505050506001600555565b6006918452818152611e9c858520611759565b98845252611eab838320611759565b92875191845198845b848110611f025750505050505b858110611ed057808080611e79565b8083611ede6001938561187f565b5116858782611ef1575b50505001611ec1565b611efa92611c12565b388587611ee8565b808a8a858e8c8b81611f158f998b61187f565b51169581925b848410611f4a575b5050506001965014611f39575b50505001611eb4565b611f4292611d28565b388a85611f30565b611f59848b989796959861187f565b51168714611f7d57505050505060019192935001908a858e8b95948f8c908f611f1b565b94919293947f00000000000000000000000000000000000000000000000000000000000000008c51917f7a1f1aa900000000000000000000000000000000000000000000000000000000835286600484015260248301528660448301525a8380606485828d87f115612006575b505050611ff98260019961187f565b528f8d97508c908f611f23565b93979899509450945050603f91500260061c1061202d57858e8b9594938b8f948080611fea565b3d89823e3d90fd5b5088821415611e74565b600485517f37ed32e8000000000000000000000000000000000000000000000000000000008152fd5b6084828751907f08c379a00000000000000000000000000000000000000000000000000000000082526004820152602660248201527f45524332303a207472616e7366657220616d6f756e742065786365656473206260448201527f616c616e636500000000000000000000000000000000000000000000000000006064820152fd5b60846040517f08c379a000000000000000000000000000000000000000000000000000000000815260206004820152602360248201527f45524332303a207472616e7366657220746f20746865207a65726f206164647260448201527f65737300000000000000000000000000000000000000000000000000000000006064820152fd5b60846040517f08c379a000000000000000000000000000000000000000000000000000000000815260206004820152602560248201527f45524332303a207472616e736665722066726f6d20746865207a65726f20616460448201527f64726573730000000000000000000000000000000000000000000000000000006064820152fd5b73ffffffffffffffffffffffffffffffffffffffff8091169182156122e557169182156122615760207f8c5be1e5ebec7d5bd14f71427d1e84f3dd0314c0f7b2291e5b200ac8c7c3b925918360005260018252604060002085600052825280604060002055604051908152a3565b60846040517f08c379a000000000000000000000000000000000000000000000000000000000815260206004820152602260248201527f45524332303a20617070726f766520746f20746865207a65726f20616464726560448201527f73730000000000000000000000000000000000000000000000000000000000006064820152fd5b60846040517f08c379a0000000000000000000000000000000000000000000000000000000008152602060048201526024808201527f45524332303a20617070726f76652066726f6d20746865207a65726f2061646460448201527f72657373000000000000000000000000000000000000000000000000000000006064820152fd5b91909160008382019384129112908015821691151617611da75756fea264697066735822122031b4f1435fde39a4996620e2cbf86db2affd3a6e890f4d797173c18b4d2c70ba64736f6c63430008140033",
  "linkReferences": {},
  "deployedLinkReferences": {}
}