{"contracts/USDC.sol":{"USDC":{"abi":[{"inputs":[{"internalType":"string","name":"name_","type":"string"},{"internalType":"string","name":"symbol_","type":"string"},{"internalType":"uint256","name":"maxUserPlugins_","type":"uint256"},{"internalType":"uint256","name":"pluginCallGasLimit_","type":"uint256"}],"stateMutability":"nonpayable","type":"constructor"},{"inputs":[],"name":"IndexOutOfBounds","type":"error"},{"inputs":[],"name":"InvalidPluginAddress","type":"error"},{"inputs":[],"name":"InvalidTokenInPlugin","type":"error"},{"inputs":[],"name":"OutputArrayTooSmall","type":"error"},{"inputs":[],"name":"PluginAlreadyAdded","type":"error"},{"inputs":[],"name":"PluginNotFound","type":"error"},{"inputs":[],"name":"PluginsLimitReachedForAccount","type":"error"},{"inputs":[],"name":"PopFromEmptyArray","type":"error"},{"inputs":[],"name":"ReentrantCall","type":"error"},{"inputs":[],"name":"ZeroPluginsLimit","type":"error"},{"anonymous":false,"inputs":[{"indexed":true,"internalType":"address","name":"owner","type":"address"},{"indexed":true,"internalType":"address","name":"spender","type":"address"},{"indexed":false,"internalType":"uint256","name":"value","type":"uint256"}],"name":"Approval","type":"event"},{"anonymous":false,"inputs":[{"indexed":false,"internalType":"address","name":"account","type":"address"},{"indexed":false,"internalType":"address","name":"plugin","type":"address"}],"name":"PluginAdded","type":"event"},{"anonymous":false,"inputs":[{"indexed":false,"internalType":"address","name":"account","type":"address"},{"indexed":false,"internalType":"address","name":"plugin","type":"address"}],"name":"PluginRemoved","type":"event"},{"anonymous":false,"inputs":[{"indexed":true,"internalType":"address","name":"from","type":"address"},{"indexed":true,"internalType":"address","name":"to","type":"address"},{"indexed":false,"internalType":"uint256","name":"value","type":"uint256"}],"name":"Transfer","type":"event"},{"inputs":[{"internalType":"address","name":"plugin","type":"address"}],"name":"addPlugin","outputs":[],"stateMutability":"nonpayable","type":"function"},{"inputs":[{"internalType":"address","name":"owner","type":"address"},{"internalType":"address","name":"spender","type":"address"}],"name":"allowance","outputs":[{"internalType":"uint256","name":"","type":"uint256"}],"stateMutability":"view","type":"function"},{"inputs":[{"internalType":"address","name":"spender","type":"address"},{"internalType":"uint256","name":"amount","type":"uint256"}],"name":"approve","outputs":[{"internalType":"bool","name":"","type":"bool"}],"stateMutability":"nonpayable","type":"function"},{"inputs":[{"internalType":"address","name":"account","type":"address"}],"name":"balanceOf","outputs":[{"internalType":"uint256","name":"","type":"uint256"}],"stateMutability":"view","type":"function"},{"inputs":[{"internalType":"address","name":"account","type":"address"},{"internalType":"uint256","name":"amount","type":"uint256"}],"name":"burn","outputs":[],"stateMutability":"nonpayable","type":"function"},{"inputs":[],"name":"decimals","outputs":[{"internalType":"uint8","name":"","type":"uint8"}],"stateMutability":"view","type":"function"},{"inputs":[{"internalType":"address","name":"spender","type":"address"},{"internalType":"uint256","name":"subtractedValue","type":"uint256"}],"name":"decreaseAllowance","outputs":[{"internalType":"bool","name":"","type":"bool"}],"stateMutability":"nonpayable","type":"function"},{"inputs":[{"internalType":"address","name":"assetAddress","type":"address"}],"name":"getTokenAPY","outputs":[{"internalType":"uint256","name":"","type":"uint256"}],"stateMutability":"view","type":"function"},{"inputs":[],"name":"getTokenAYP","outputs":[{"internalType":"int256","name":"","type":"int256"}],"stateMutability":"view","type":"function"},{"inputs":[],"name":"getTokenSupply","outputs":[{"internalType":"int256","name":"","type":"int256"}],"stateMutability":"view","type":"function"},{"inputs":[{"internalType":"address","name":"account","type":"address"},{"internalType":"address","name":"plugin","type":"address"}],"name":"hasPlugin","outputs":[{"internalType":"bool","name":"","type":"bool"}],"stateMutability":"view","type":"function"},{"inputs":[{"internalType":"address","name":"spender","type":"address"},{"internalType":"uint256","name":"addedValue","type":"uint256"}],"name":"increaseAllowance","outputs":[{"internalType":"bool","name":"","type":"bool"}],"stateMutability":"nonpayable","type":"function"},{"inputs":[],"name":"maxPluginsPerAccount","outputs":[{"internalType":"uint256","name":"","type":"uint256"}],"stateMutability":"view","type":"function"},{"inputs":[{"internalType":"address","name":"account","type":"address"},{"internalType":"uint256","name":"amount","type":"uint256"}],"name":"mint","outputs":[],"stateMutability":"nonpayable","type":"function"},{"inputs":[],"name":"name","outputs":[{"internalType":"string","name":"","type":"string"}],"stateMutability":"view","type":"function"},{"inputs":[{"internalType":"address","name":"account","type":"address"},{"internalType":"uint256","name":"index","type":"uint256"}],"name":"pluginAt","outputs":[{"internalType":"address","name":"","type":"address"}],"stateMutability":"view","type":"function"},{"inputs":[{"internalType":"address","name":"plugin","type":"address"},{"internalType":"address","name":"account","type":"address"}],"name":"pluginBalanceOf","outputs":[{"internalType":"uint256","name":"","type":"uint256"}],"stateMutability":"view","type":"function"},{"inputs":[],"name":"pluginCallGasLimit","outputs":[{"internalType":"uint256","name":"","type":"uint256"}],"stateMutability":"view","type":"function"},{"inputs":[{"internalType":"address","name":"account","type":"address"}],"name":"plugins","outputs":[{"internalType":"address[]","name":"","type":"address[]"}],"stateMutability":"view","type":"function"},{"inputs":[{"internalType":"address","name":"account","type":"address"}],"name":"pluginsCount","outputs":[{"internalType":"uint256","name":"","type":"uint256"}],"stateMutability":"view","type":"function"},{"inputs":[],"name":"removeAllPlugins","outputs":[],"stateMutability":"nonpayable","type":"function"},{"inputs":[{"internalType":"address","name":"plugin","type":"address"}],"name":"removePlugin","outputs":[],"stateMutability":"nonpayable","type":"function"},{"inputs":[],"name":"symbol","outputs":[{"internalType":"string","name":"","type":"string"}],"stateMutability":"view","type":"function"},{"inputs":[{"internalType":"address","name":"","type":"address"}],"name":"tokens","outputs":[{"internalType":"address","name":"contractAddr","type":"address"},{"internalType":"uint256","name":"intialTokens","type":"uint256"},{"internalType":"uint256","name":"tokenAYP","type":"uint256"}],"stateMutability":"view","type":"function"},{"inputs":[],"name":"totalSupply","outputs":[{"internalType":"uint256","name":"","type":"uint256"}],"stateMutability":"view","type":"function"},{"inputs":[{"internalType":"address","name":"to","type":"address"},{"internalType":"uint256","name":"amount","type":"uint256"}],"name":"transfer","outputs":[{"internalType":"bool","name":"","type":"bool"}],"stateMutability":"nonpayable","type":"function"},{"inputs":[{"internalType":"address","name":"from","type":"address"},{"internalType":"address","name":"to","type":"address"},{"internalType":"uint256","name":"amount","type":"uint256"}],"name":"transferFrom","outputs":[{"internalType":"bool","name":"","type":"bool"}],"stateMutability":"nonpayable","type":"function"},{"inputs":[{"internalType":"int256","name":"newAYP","type":"int256"}],"name":"updateTokenAYP","outputs":[],"stateMutability":"nonpayable","type":"function"},{"inputs":[{"internalType":"int256","name":"change","type":"int256"}],"name":"updateTokenSupply","outputs":[],"stateMutability":"nonpayable","type":"function"}],"evm":{"bytecode":{"linkReferences":{},"object":"60c0604052346200038c57620028da803803806200001d8162000391565b92833981016080828203126200038c5781516001600160401b03908181116200038c57826200004e918501620003b7565b9260209283820151908382116200038c576200006c918301620003b7565b606060408301519201519285518181116200028c576003908154906001988983811c9316801562000381575b898410146200036b578190601f9384811162000315575b508990848311600114620002ae57600092620002a2575b505060001982851b1c191690891b1782555b83519283116200028c576004938454978989811c9916801562000281575b818a10146200026c5782891162000220575b84959697985080928511600114620001b25750600093620001a6575b505082871b92600019911b1c19161781555b811562000197575060805260a052600555600a6007556127106008556040516124b090816200042a82396080518181816103a801526114ba015260a05181818161066b01528181611d0d01528181611d9401528181611e23015261207a0152f35b60405163cdaf747b60e01b8152fd5b01519150388062000124565b929190899550601f1985168760005284600020946000905b828210620002065750508511620001eb575b50505050811b01815562000136565b01519060f884600019921b161c1916905538808080620001dc565b8484015187558c98909601959384019390810190620001ca565b856000528060002083860160051c81019982871062000261575b840160051c01988a905b8a81106200025457505062000108565b60008155018a9062000244565b90995089906200023a565b602286634e487b7160e01b6000525260246000fd5b98607f1698620000f6565b634e487b7160e01b600052604160045260246000fd5b015190503880620000c6565b908b9350601f19831691866000528b6000209260005b8d828210620002fe5750508411620002e5575b505050811b018255620000d8565b015160001983871b60f8161c19169055388080620002d7565b8385015186558f97909501949384019301620002c4565b90915084600052896000208480850160051c8201928c861062000361575b918d91869594930160051c01915b82811062000351575050620000af565b600081558594508d910162000341565b9250819262000333565b634e487b7160e01b600052602260045260246000fd5b92607f169262000098565b600080fd5b6040519190601f01601f191682016001600160401b038111838210176200028c57604052565b919080601f840112156200038c5782516001600160401b0381116200028c57602090620003ed601f8201601f1916830162000391565b928184528282870101116200038c5760005b8181106200041557508260009394955001015290565b8581018301518482018401528201620003ff56fe608060408181526004918236101561001657600080fd5b600092833560e01c91826306fdde03146115d057508163095ea7b31461158857816318160ddd1461154b5781631945f729146114dd578163236d88351461148457816323b872dd1461135657816328ad0db714611319578163313ce567146112df578163395093511461126557816340c10f19146110385781634b12e64314610f9a5781636172813414610f2a57816370a0823114610ee65781637ef76c4414610e815781638b822d8814610d5c57816395d89b4114610c045781639dc29fac146108fc578163a457c2d7146107f9578163a4d95b641461071a578163a9059cbb146106cb578163ad974f4c1461068e578163b2be2d5814610635578163bb71fca5146105f1578163c125563514610567578163ceca812f14610523578163d8867fc8146102cd57508063dd62ed3e1461025a578063e4860339146101df5763ed6edc821461016457600080fd5b346101db57807ffffffffffffffffffffffffffffffffffffffffffffffffffffffffffffffffc3601126101db578060209261019e61177c565b6101a66117a4565b73ffffffffffffffffffffffffffffffffffffffff918216835260068652838320911682526001018452205490519015158152f35b5080fd5b50346101db5760207ffffffffffffffffffffffffffffffffffffffffffffffffffffffffffffffffc3601126101db576060918173ffffffffffffffffffffffffffffffffffffffff918261023261177c565b1681526009602052209081541691600260018301549201549181519384526020840152820152f35b50346101db57807ffffffffffffffffffffffffffffffffffffffffffffffffffffffffffffffffc3601126101db578060209261029561177c565b61029d6117a4565b73ffffffffffffffffffffffffffffffffffffffff91821683526001865283832091168252845220549051908152f35b9190503461051f57602091827ffffffffffffffffffffffffffffffffffffffffffffffffffffffffffffffffc36011261051b5761030961177c565b9273ffffffffffffffffffffffffffffffffffffffff80851680156104f357908284928651938480927ffc0c546a0000000000000000000000000000000000000000000000000000000082525afa9182156104e95787926104ad575b5030911603610485573385526006815261038184848720611a61565b1561045d57600690338652526103a68285206000805260205260406000205460a01c90565b7f00000000000000000000000000000000000000000000000000000000000000001061043657505133815273ffffffffffffffffffffffffffffffffffffffff821660208201527f68aafb7a848a8e6e0e8fe992de5812474789ddec166ce06be4de83b3aaa2864e90604090a161041c336119b8565b80610425578280f35b610430913390611d08565b38808280f35b90517f2846f78a000000000000000000000000000000000000000000000000000000008152fd5b5090517ffce323d6000000000000000000000000000000000000000000000000000000008152fd5b5090517f5940fcc8000000000000000000000000000000000000000000000000000000008152fd5b9091508281813d83116104e2575b6104c581836117c7565b810103126104de575181811681036104de579038610365565b8680fd5b503d6104bb565b85513d89823e3d90fd5b8385517f4c6ea03c000000000000000000000000000000000000000000000000000000008152fd5b8380fd5b8280fd5b8390346101db5760207ffffffffffffffffffffffffffffffffffffffffffffffffffffffffffffffffc3601126101db57610561903560075461245e565b60075580f35b8284346105ee57817ffffffffffffffffffffffffffffffffffffffffffffffffffffffffffffffffc3601126105ee57506105a061177c565b6105a86117a4565b926002600554146105c757506020926105c091611a13565b9051908152f35b82517f37ed32e8000000000000000000000000000000000000000000000000000000008152fd5b80fd5b8390346101db5760207ffffffffffffffffffffffffffffffffffffffffffffffffffffffffffffffffc3601126101db5761062f903560085461245e565b60085580f35b5050346101db57817ffffffffffffffffffffffffffffffffffffffffffffffffffffffffffffffffc3601126101db57602090517f00000000000000000000000000000000000000000000000000000000000000008152f35b5050346101db57817ffffffffffffffffffffffffffffffffffffffffffffffffffffffffffffffffc3601126101db576020906008549051908152f35b5050346101db57807ffffffffffffffffffffffffffffffffffffffffffffffffffffffffffffffffc3601126101db5760209061071361070961177c565b6024359033611ecc565b5160018152f35b9190503461051f5760207ffffffffffffffffffffffffffffffffffffffffffffffffffffffffffffffffc36011261051f5761075461177c565b91338452600660205261076983838620611b2a565b156107d257505133815273ffffffffffffffffffffffffffffffffffffffff821660208201527f550ef13f654f6fc7054e7c556d2647cb8838befbfa68640bb3050fc458ad473590604090a16107be336119b8565b806107c7578280f35b610430913390611e1e565b90517f108a506d000000000000000000000000000000000000000000000000000000008152fd5b905082346105ee57827ffffffffffffffffffffffffffffffffffffffffffffffffffffffffffffffffc3601126105ee5761083261177c565b918360243592338152600160205281812073ffffffffffffffffffffffffffffffffffffffff861682526020522054908282106108795760208561071385850387336122e9565b60849060208651917f08c379a0000000000000000000000000000000000000000000000000000000008352820152602560248201527f45524332303a2064656372656173656420616c6c6f77616e63652062656c6f7760448201527f207a65726f0000000000000000000000000000000000000000000000000000006064820152fd5b9190503461051f57807ffffffffffffffffffffffffffffffffffffffffffffffffffffffffffffffffc36011261051f5761093561177c565b906024359173ffffffffffffffffffffffffffffffffffffffff91828216908115610b825781875260209587875281882054868110610b00578690848a528989520382892055856002540360025587837fddf252ad1be2c89b69c2b068fc378daa952ba7f163c4a11628f55a4df523b3ef8985518a8152a3600260055414610ad95750600260055584151580610ad1575b6109d4575b86600160055580f35b6109f79187526006865260066109eb82892061184f565b9688805252862061184f565b90845190825195875b838110610a495750505050845b848110610a1a57806109cb565b8083610a2860019385611975565b51168581610a39575b505001610a0d565b610a4291611d91565b3885610a31565b85610a548284611975565b51169089915b88858b808610610a88575b60019514610a77575b50505001610a00565b610a8092611e1e565b388885610a6e565b8d8b610a98888d99979899611975565b51168614610aae57505050506001019190610a5a565b938594610abf858560019a99611e1e565b610ac9828d611975565b529550610a65565b5060016109c6565b90517f37ed32e8000000000000000000000000000000000000000000000000000000008152fd5b508660849251917f08c379a0000000000000000000000000000000000000000000000000000000008352820152602260248201527f45524332303a206275726e20616d6f756e7420657863656564732062616c616e60448201527f63650000000000000000000000000000000000000000000000000000000000006064820152fd5b517f08c379a0000000000000000000000000000000000000000000000000000000008152602081870152602160248201527f45524332303a206275726e2066726f6d20746865207a65726f2061646472657360448201527f73000000000000000000000000000000000000000000000000000000000000006064820152608490fd5b8383346101db57817ffffffffffffffffffffffffffffffffffffffffffffffffffffffffffffffffc3601126101db57805191809380549160019083821c92828516948515610d52575b6020958686108114610d2657858952908115610ce45750600114610c8c575b610c888787610c7e828c03836117c7565b5191829182611716565b0390f35b81529295507f8a35acfbc15ff81a39ae7d344fd709f28e8600b4aa8c65c6b64bfe7fe36bd19b5b828410610cd15750505082610c8894610c7e92820101948680610c6d565b8054868501880152928601928101610cb3565b7fffffffffffffffffffffffffffffffffffffffffffffffffffffffffffffff00168887015250505050151560051b8301019250610c7e82610c888680610c6d565b6024846022857f4e487b7100000000000000000000000000000000000000000000000000000000835252fd5b93607f1693610c4e565b5050346101db57817ffffffffffffffffffffffffffffffffffffffffffffffffffffffffffffffffc3601126101db573382526006602091818352610da281852061184f565b92610dac336119b8565b9184519182841515935b610dbe578780f35b8073ffffffffffffffffffffffffffffffffffffffff610e017fffffffffffffffffffffffffffffffffffffffffffffffffffffffffffffffff8094018a611975565b5116338a52878452610e1581868c20611b2a565b50845133815273ffffffffffffffffffffffffffffffffffffffff82166020820152879087907f550ef13f654f6fc7054e7c556d2647cb8838befbfa68640bb3050fc458ad473590604090a1610e6f575b50500180610db6565b610e7a913390611e1e565b3886610e66565b5050346101db5760207ffffffffffffffffffffffffffffffffffffffffffffffffffffffffffffffffc3601126101db5760028160209373ffffffffffffffffffffffffffffffffffffffff610ed561177c565b168152600985522001549051908152f35b5050346101db5760207ffffffffffffffffffffffffffffffffffffffffffffffffffffffffffffffffc3601126101db576020906105c0610f2561177c565b6119b8565b5050346101db5760207ffffffffffffffffffffffffffffffffffffffffffffffffffffffffffffffffc3601126101db576105c08160209373ffffffffffffffffffffffffffffffffffffffff610f7f61177c565b16815260068552206000805260205260406000205460a01c90565b8284346105ee576020807ffffffffffffffffffffffffffffffffffffffffffffffffffffffffffffffffc3601126101db578273ffffffffffffffffffffffffffffffffffffffff9283610fec61177c565b16815260068352610ffe82822061184f565b918051938080860192818752855180945286019401925b8281106110225785850386f35b8351871685529381019392810192600101611015565b9190503461051f57807ffffffffffffffffffffffffffffffffffffffffffffffffffffffffffffffffc36011261051f5761107161177c565b906024359073ffffffffffffffffffffffffffffffffffffffff90818416948515611209576110a284600254611e90565b6002558587528660205281872084815401905585877fddf252ad1be2c89b69c2b068fc378daa952ba7f163c4a11628f55a4df523b3ef60208551888152a3600260055414610ad95750600260055582151580611201575b611107575b85600160055580f35b61112d90868052600660205261111e81882061184f565b9587526006602052862061184f565b8451815195875b82811061117f57505050855b85811061114d57506110fe565b808361115b60019385611975565b511685878261116e575b50505001611140565b61117792611d08565b388587611165565b8461118a8284611975565b51169089915b878a8085106111bb575b600194146111ab575b505001611134565b6111b491611d91565b38876111a3565b886111ca868a97959697611975565b511684146111de5750506001019190611190565b83926111ee838d60019897611d08565b8d6111f9828b611975565b52945061119a565b5060016110f9565b602060649251917f08c379a0000000000000000000000000000000000000000000000000000000008352820152601f60248201527f45524332303a206d696e7420746f20746865207a65726f2061646472657373006044820152fd5b5050346101db57807ffffffffffffffffffffffffffffffffffffffffffffffffffffffffffffffffc3601126101db576107136020926112d86112a661177c565b913381526001865284812073ffffffffffffffffffffffffffffffffffffffff84168252865284602435912054611e90565b90336122e9565b5050346101db57817ffffffffffffffffffffffffffffffffffffffffffffffffffffffffffffffffc3601126101db576020905160128152f35b5050346101db57817ffffffffffffffffffffffffffffffffffffffffffffffffffffffffffffffffc3601126101db576020906007549051908152f35b839150346101db5760607ffffffffffffffffffffffffffffffffffffffffffffffffffffffffffffffffc3601126101db5761139061177c565b6113986117a4565b91846044359473ffffffffffffffffffffffffffffffffffffffff8416815260016020528181203382526020522054907fffffffffffffffffffffffffffffffffffffffffffffffffffffffffffffffff82036113fe575b602086610713878787611ecc565b848210611427575091839161141c60209695610713950333836122e9565b9193948193506113f0565b60649060208751917f08c379a0000000000000000000000000000000000000000000000000000000008352820152601d60248201527f45524332303a20696e73756666696369656e7420616c6c6f77616e63650000006044820152fd5b5050346101db57817ffffffffffffffffffffffffffffffffffffffffffffffffffffffffffffffffc3601126101db57602090517f00000000000000000000000000000000000000000000000000000000000000008152f35b5050346101db57807ffffffffffffffffffffffffffffffffffffffffffffffffffffffffffffffffc3601126101db576020918173ffffffffffffffffffffffffffffffffffffffff918261153061177c565b16815260068552818120602435825285522054169051908152f35b5050346101db57817ffffffffffffffffffffffffffffffffffffffffffffffffffffffffffffffffc3601126101db576020906002549051908152f35b5050346101db57807ffffffffffffffffffffffffffffffffffffffffffffffffffffffffffffffffc3601126101db576020906107136115c661177c565b60243590336122e9565b9291503461051b57837ffffffffffffffffffffffffffffffffffffffffffffffffffffffffffffffffc36011261051b57600354600181811c918690828116801561170c575b60209586861082146116e057508488529081156116a05750600114611647575b610c888686610c7e828b03836117c7565b929550600383527fc2575a0e9e593c00f959f8c92f12db2869c3395a3b0502d05e2516446f71f85b5b82841061168d5750505082610c8894610c7e928201019438611636565b8054868501880152928601928101611670565b7fffffffffffffffffffffffffffffffffffffffffffffffffffffffffffffff001687860152505050151560051b8301019250610c7e82610c8838611636565b8360226024927f4e487b7100000000000000000000000000000000000000000000000000000000835252fd5b93607f1693611616565b60208082528251818301819052939260005b858110611768575050507fffffffffffffffffffffffffffffffffffffffffffffffffffffffffffffffe0601f8460006040809697860101520116010190565b818101830151848201604001528201611728565b6004359073ffffffffffffffffffffffffffffffffffffffff8216820361179f57565b600080fd5b6024359073ffffffffffffffffffffffffffffffffffffffff8216820361179f57565b90601f7fffffffffffffffffffffffffffffffffffffffffffffffffffffffffffffffe0910116810190811067ffffffffffffffff82111761180857604052565b7f4e487b7100000000000000000000000000000000000000000000000000000000600052604160045260246000fd5b67ffffffffffffffff81116118085760051b60200190565b906000808052602090838252604090818120548060a01c9261187084611837565b9261187d825194856117c7565b84845261188985611837565b977fffffffffffffffffffffffffffffffffffffffffffffffffffffffffffffffe08786019901368a3784988551871161194c57866118cd575b5050505050505050565b85511561191f5773ffffffffffffffffffffffffffffffffffffffff8095169052600196875b87811061190057506118c3565b8089918552838352868686205416611918828a611975565b52016118f3565b6024837f4e487b710000000000000000000000000000000000000000000000000000000081526032600452fd5b600484517ff9a99b25000000000000000000000000000000000000000000000000000000008152fd5b80518210156119895760209160051b010190565b7f4e487b7100000000000000000000000000000000000000000000000000000000600052603260045260246000fd5b6002600554146119e95773ffffffffffffffffffffffffffffffffffffffff16600052600060205260406000205490565b60046040517f37ed32e8000000000000000000000000000000000000000000000000000000008152fd5b73ffffffffffffffffffffffffffffffffffffffff80921690600092828452600660205260016040852001911683526020526040822054611a52575090565b90604091815280602052205490565b9073ffffffffffffffffffffffffffffffffffffffff600183019116600092818452826020526040842054611b245760409260019285805282602052848620928354938460a01c948515600014611afc57505086805260205274ffffffffffffffffffffffffffffffffffffffffff81740100000000000000000000000000000000000000000116858720555b855260205201912055600190565b7401000000000000000000000000000000000000000001905550828652848620819055611aee565b50505090565b906001820173ffffffffffffffffffffffffffffffffffffffff8092169260009380855260209183835260409485872054908115611cfe57611b79836000805260205260406000205460a01c90565b8210611c33575b505085805280835284862054908160a01c908115611c0a57906001917fffffffffffffffffffffffffffffffffffffffffffffffffffffffffffffffff820189528552878781205511611bda575b50845252812055600190565b7fffffffffffffffffffffffff000000000000000000000000000000000000000090868052018486205538611bce565b600487517f06a2af9e000000000000000000000000000000000000000000000000000000008152fd5b7fffffffffffffffffffffffffffffffffffffffffffffffffffffffffffffffff9081611c6d856000805260205260406000205460a01c90565b0189528386528789205416908201611c92846000805260205260406000205460a01c90565b9081811015611cd55782919080611cc3575089805284875260a01b17878920555b8752848452858720553880611b80565b91505088528285528087892055611cb3565b600489517f4e23d035000000000000000000000000000000000000000000000000000000008152fd5b5050505050505090565b9190917f000000000000000000000000000000000000000000000000000000000000000091604051937f7a1f1aa90000000000000000000000000000000000000000000000000000000085526000600486015260248501526044840152600080606485825a9587f115611d7a57505050565b603f0260061c10611d885750565b3d6000823e3d90fd5b907f0000000000000000000000000000000000000000000000000000000000000000604051927f7a1f1aa900000000000000000000000000000000000000000000000000000000845260009283600486015283602486015260448501528280606486825a9587f115611e04575b50505050565b603f0260061c10611e16578080611dfe565b3d90823e3d90fd5b9190917f000000000000000000000000000000000000000000000000000000000000000091604051937f7a1f1aa90000000000000000000000000000000000000000000000000000000085526004850152600060248501526044840152600080606485825a9587f115611d7a57505050565b91908201809211611e9d57565b7f4e487b7100000000000000000000000000000000000000000000000000000000600052601160045260246000fd5b9173ffffffffffffffffffffffffffffffffffffffff8084168015612265578184169485156121e1576000908282526020928284526040938484205487811061215e578790838652858352038585205588845284842087815401905588827fddf252ad1be2c89b69c2b068fc378daa952ba7f163c4a11628f55a4df523b3ef8388518b8152a36002600554146121355760026005558615158061212b575b611f7f575b5050505050505050506001600555565b6006918452818152611f9285852061184f565b98845252611fa183832061184f565b92875191845198845b848110611ff85750505050505b858110611fc657808080611f6f565b8083611fd460019385611975565b5116858782611fe7575b50505001611fb7565b611ff092611d08565b388587611fde565b808a8a858e8c8b8161200b8f998b611975565b51169581925b848410612040575b505050600196501461202f575b50505001611faa565b61203892611e1e565b388a85612026565b61204f848b9897969598611975565b5116871461207357505050505060019192935001908a858e8b95948f8c908f612011565b94919293947f00000000000000000000000000000000000000000000000000000000000000008c51917f7a1f1aa900000000000000000000000000000000000000000000000000000000835286600484015260248301528660448301525a8380606485828d87f1156120fc575b5050506120ef82600199611975565b528f8d97508c908f612019565b93979899509450945050603f91500260061c1061212357858e8b9594938b8f9480806120e0565b3d89823e3d90fd5b5088821415611f6a565b600485517f37ed32e8000000000000000000000000000000000000000000000000000000008152fd5b6084828751907f08c379a00000000000000000000000000000000000000000000000000000000082526004820152602660248201527f45524332303a207472616e7366657220616d6f756e742065786365656473206260448201527f616c616e636500000000000000000000000000000000000000000000000000006064820152fd5b60846040517f08c379a000000000000000000000000000000000000000000000000000000000815260206004820152602360248201527f45524332303a207472616e7366657220746f20746865207a65726f206164647260448201527f65737300000000000000000000000000000000000000000000000000000000006064820152fd5b60846040517f08c379a000000000000000000000000000000000000000000000000000000000815260206004820152602560248201527f45524332303a207472616e736665722066726f6d20746865207a65726f20616460448201527f64726573730000000000000000000000000000000000000000000000000000006064820152fd5b73ffffffffffffffffffffffffffffffffffffffff8091169182156123db57169182156123575760207f8c5be1e5ebec7d5bd14f71427d1e84f3dd0314c0f7b2291e5b200ac8c7c3b925918360005260018252604060002085600052825280604060002055604051908152a3565b60846040517f08c379a000000000000000000000000000000000000000000000000000000000815260206004820152602260248201527f45524332303a20617070726f766520746f20746865207a65726f20616464726560448201527f73730000000000000000000000000000000000000000000000000000000000006064820152fd5b60846040517f08c379a0000000000000000000000000000000000000000000000000000000008152602060048201526024808201527f45524332303a20617070726f76652066726f6d20746865207a65726f2061646460448201527f72657373000000000000000000000000000000000000000000000000000000006064820152fd5b91909160008382019384129112908015821691151617611e9d5756fea2646970667358221220bce2052947d4de6fe314a9f9af64550c3505d1239ad057b2adc7a5a50e1c1f2064736f6c63430008140033","opcodes":"PUSH1 0xC0 PUSH1 0x40 MSTORE CALLVALUE PUSH3 0x38C JUMPI PUSH3 0x28DA DUP1 CODESIZE SUB DUP1 PUSH3 0x1D DUP2 PUSH3 0x391 JUMP JUMPDEST SWAP3 DUP4 CODECOPY DUP2 ADD PUSH1 0x80 DUP3 DUP3 SUB SLT PUSH3 0x38C JUMPI DUP2 MLOAD PUSH1 0x1 PUSH1 0x1 PUSH1 0x40 SHL SUB SWAP1 DUP2 DUP2 GT PUSH3 0x38C JUMPI DUP3 PUSH3 0x4E SWAP2 DUP6 ADD PUSH3 0x3B7 JUMP JUMPDEST SWAP3 PUSH1 0x20 SWAP3 DUP4 DUP3 ADD MLOAD SWAP1 DUP4 DUP3 GT PUSH3 0x38C JUMPI PUSH3 0x6C SWAP2 DUP4 ADD PUSH3 0x3B7 JUMP JUMPDEST PUSH1 0x60 PUSH1 0x40 DUP4 ADD MLOAD SWAP3 ADD MLOAD SWAP3 DUP6 MLOAD DUP2 DUP2 GT PUSH3 0x28C JUMPI PUSH1 0x3 SWAP1 DUP2 SLOAD SWAP1 PUSH1 0x1 SWAP9 DUP10 DUP4 DUP2 SHR SWAP4 AND DUP1 ISZERO PUSH3 0x381 JUMPI JUMPDEST DUP10 DUP5 LT EQ PUSH3 0x36B JUMPI DUP2 SWAP1 PUSH1 0x1F SWAP4 DUP5 DUP2 GT PUSH3 0x315 JUMPI JUMPDEST POP DUP10 SWAP1 DUP5 DUP4 GT PUSH1 0x1 EQ PUSH3 0x2AE JUMPI PUSH1 0x0 SWAP3 PUSH3 0x2A2 JUMPI JUMPDEST POP POP PUSH1 0x0 NOT DUP3 DUP6 SHL SHR NOT AND SWAP1 DUP10 SHL OR DUP3 SSTORE JUMPDEST DUP4 MLOAD SWAP3 DUP4 GT PUSH3 0x28C JUMPI PUSH1 0x4 SWAP4 DUP5 SLOAD SWAP8 DUP10 DUP10 DUP2 SHR SWAP10 AND DUP1 ISZERO PUSH3 0x281 JUMPI JUMPDEST DUP2 DUP11 LT EQ PUSH3 0x26C JUMPI DUP3 DUP10 GT PUSH3 0x220 JUMPI JUMPDEST DUP5 SWAP6 SWAP7 SWAP8 SWAP9 POP DUP1 SWAP3 DUP6 GT PUSH1 0x1 EQ PUSH3 0x1B2 JUMPI POP PUSH1 0x0 SWAP4 PUSH3 0x1A6 JUMPI JUMPDEST POP POP DUP3 DUP8 SHL SWAP3 PUSH1 0x0 NOT SWAP2 SHL SHR NOT AND OR DUP2 SSTORE JUMPDEST DUP2 ISZERO PUSH3 0x197 JUMPI POP PUSH1 0x80 MSTORE PUSH1 0xA0 MSTORE PUSH1 0x5 SSTORE PUSH1 0xA PUSH1 0x7 SSTORE PUSH2 0x2710 PUSH1 0x8 SSTORE PUSH1 0x40 MLOAD PUSH2 0x24B0 SWAP1 DUP2 PUSH3 0x42A DUP3 CODECOPY PUSH1 0x80 MLOAD DUP2 DUP2 DUP2 PUSH2 0x3A8 ADD MSTORE PUSH2 0x14BA ADD MSTORE PUSH1 0xA0 MLOAD DUP2 DUP2 DUP2 PUSH2 0x66B ADD MSTORE DUP2 DUP2 PUSH2 0x1D0D ADD MSTORE DUP2 DUP2 PUSH2 0x1D94 ADD MSTORE DUP2 DUP2 PUSH2 0x1E23 ADD MSTORE PUSH2 0x207A ADD MSTORE RETURN JUMPDEST PUSH1 0x40 MLOAD PUSH4 0xCDAF747B PUSH1 0xE0 SHL DUP2 MSTORE REVERT JUMPDEST ADD MLOAD SWAP2 POP CODESIZE DUP1 PUSH3 0x124 JUMP JUMPDEST SWAP3 SWAP2 SWAP1 DUP10 SWAP6 POP PUSH1 0x1F NOT DUP6 AND DUP8 PUSH1 0x0 MSTORE DUP5 PUSH1 0x0 KECCAK256 SWAP5 PUSH1 0x0 SWAP1 JUMPDEST DUP3 DUP3 LT PUSH3 0x206 JUMPI POP POP DUP6 GT PUSH3 0x1EB JUMPI JUMPDEST POP POP POP POP DUP2 SHL ADD DUP2 SSTORE PUSH3 0x136 JUMP JUMPDEST ADD MLOAD SWAP1 PUSH1 0xF8 DUP5 PUSH1 0x0 NOT SWAP3 SHL AND SHR NOT AND SWAP1 SSTORE CODESIZE DUP1 DUP1 DUP1 PUSH3 0x1DC JUMP JUMPDEST DUP5 DUP5 ADD MLOAD DUP8 SSTORE DUP13 SWAP9 SWAP1 SWAP7 ADD SWAP6 SWAP4 DUP5 ADD SWAP4 SWAP1 DUP2 ADD SWAP1 PUSH3 0x1CA JUMP JUMPDEST DUP6 PUSH1 0x0 MSTORE DUP1 PUSH1 0x0 KECCAK256 DUP4 DUP7 ADD PUSH1 0x5 SHR DUP2 ADD SWAP10 DUP3 DUP8 LT PUSH3 0x261 JUMPI JUMPDEST DUP5 ADD PUSH1 0x5 SHR ADD SWAP9 DUP11 SWAP1 JUMPDEST DUP11 DUP2 LT PUSH3 0x254 JUMPI POP POP PUSH3 0x108 JUMP JUMPDEST PUSH1 0x0 DUP2 SSTORE ADD DUP11 SWAP1 PUSH3 0x244 JUMP JUMPDEST SWAP1 SWAP10 POP DUP10 SWAP1 PUSH3 0x23A JUMP JUMPDEST PUSH1 0x22 DUP7 PUSH4 0x4E487B71 PUSH1 0xE0 SHL PUSH1 0x0 MSTORE MSTORE PUSH1 0x24 PUSH1 0x0 REVERT JUMPDEST SWAP9 PUSH1 0x7F AND SWAP9 PUSH3 0xF6 JUMP JUMPDEST PUSH4 0x4E487B71 PUSH1 0xE0 SHL PUSH1 0x0 MSTORE PUSH1 0x41 PUSH1 0x4 MSTORE PUSH1 0x24 PUSH1 0x0 REVERT JUMPDEST ADD MLOAD SWAP1 POP CODESIZE DUP1 PUSH3 0xC6 JUMP JUMPDEST SWAP1 DUP12 SWAP4 POP PUSH1 0x1F NOT DUP4 AND SWAP2 DUP7 PUSH1 0x0 MSTORE DUP12 PUSH1 0x0 KECCAK256 SWAP3 PUSH1 0x0 JUMPDEST DUP14 DUP3 DUP3 LT PUSH3 0x2FE JUMPI POP POP DUP5 GT PUSH3 0x2E5 JUMPI JUMPDEST POP POP POP DUP2 SHL ADD DUP3 SSTORE PUSH3 0xD8 JUMP JUMPDEST ADD MLOAD PUSH1 0x0 NOT DUP4 DUP8 SHL PUSH1 0xF8 AND SHR NOT AND SWAP1 SSTORE CODESIZE DUP1 DUP1 PUSH3 0x2D7 JUMP JUMPDEST DUP4 DUP6 ADD MLOAD DUP7 SSTORE DUP16 SWAP8 SWAP1 SWAP6 ADD SWAP5 SWAP4 DUP5 ADD SWAP4 ADD PUSH3 0x2C4 JUMP JUMPDEST SWAP1 SWAP2 POP DUP5 PUSH1 0x0 MSTORE DUP10 PUSH1 0x0 KECCAK256 DUP5 DUP1 DUP6 ADD PUSH1 0x5 SHR DUP3 ADD SWAP3 DUP13 DUP7 LT PUSH3 0x361 JUMPI JUMPDEST SWAP2 DUP14 SWAP2 DUP7 SWAP6 SWAP5 SWAP4 ADD PUSH1 0x5 SHR ADD SWAP2 JUMPDEST DUP3 DUP2 LT PUSH3 0x351 JUMPI POP POP PUSH3 0xAF JUMP JUMPDEST PUSH1 0x0 DUP2 SSTORE DUP6 SWAP5 POP DUP14 SWAP2 ADD PUSH3 0x341 JUMP JUMPDEST SWAP3 POP DUP2 SWAP3 PUSH3 0x333 JUMP JUMPDEST PUSH4 0x4E487B71 PUSH1 0xE0 SHL PUSH1 0x0 MSTORE PUSH1 0x22 PUSH1 0x4 MSTORE PUSH1 0x24 PUSH1 0x0 REVERT JUMPDEST SWAP3 PUSH1 0x7F AND SWAP3 PUSH3 0x98 JUMP JUMPDEST PUSH1 0x0 DUP1 REVERT JUMPDEST PUSH1 0x40 MLOAD SWAP2 SWAP1 PUSH1 0x1F ADD PUSH1 0x1F NOT AND DUP3 ADD PUSH1 0x1 PUSH1 0x1 PUSH1 0x40 SHL SUB DUP2 GT DUP4 DUP3 LT OR PUSH3 0x28C JUMPI PUSH1 0x40 MSTORE JUMP JUMPDEST SWAP2 SWAP1 DUP1 PUSH1 0x1F DUP5 ADD SLT ISZERO PUSH3 0x38C JUMPI DUP3 MLOAD PUSH1 0x1 PUSH1 0x1 PUSH1 0x40 SHL SUB DUP2 GT PUSH3 0x28C JUMPI PUSH1 0x20 SWAP1 PUSH3 0x3ED PUSH1 0x1F DUP3 ADD PUSH1 0x1F NOT AND DUP4 ADD PUSH3 0x391 JUMP JUMPDEST SWAP3 DUP2 DUP5 MSTORE DUP3 DUP3 DUP8 ADD ADD GT PUSH3 0x38C JUMPI PUSH1 0x0 JUMPDEST DUP2 DUP2 LT PUSH3 0x415 JUMPI POP DUP3 PUSH1 0x0 SWAP4 SWAP5 SWAP6 POP ADD ADD MSTORE SWAP1 JUMP JUMPDEST DUP6 DUP2 ADD DUP4 ADD MLOAD DUP5 DUP3 ADD DUP5 ADD MSTORE DUP3 ADD PUSH3 0x3FF JUMP INVALID PUSH1 0x80 PUSH1 0x40 DUP2 DUP2 MSTORE PUSH1 0x4 SWAP2 DUP3 CALLDATASIZE LT ISZERO PUSH2 0x16 JUMPI PUSH1 0x0 DUP1 REVERT JUMPDEST PUSH1 0x0 SWAP3 DUP4 CALLDATALOAD PUSH1 0xE0 SHR SWAP2 DUP3 PUSH4 0x6FDDE03 EQ PUSH2 0x15D0 JUMPI POP DUP2 PUSH4 0x95EA7B3 EQ PUSH2 0x1588 JUMPI DUP2 PUSH4 0x18160DDD EQ PUSH2 0x154B JUMPI DUP2 PUSH4 0x1945F729 EQ PUSH2 0x14DD JUMPI DUP2 PUSH4 0x236D8835 EQ PUSH2 0x1484 JUMPI DUP2 PUSH4 0x23B872DD EQ PUSH2 0x1356 JUMPI DUP2 PUSH4 0x28AD0DB7 EQ PUSH2 0x1319 JUMPI DUP2 PUSH4 0x313CE567 EQ PUSH2 0x12DF JUMPI DUP2 PUSH4 0x39509351 EQ PUSH2 0x1265 JUMPI DUP2 PUSH4 0x40C10F19 EQ PUSH2 0x1038 JUMPI DUP2 PUSH4 0x4B12E643 EQ PUSH2 0xF9A JUMPI DUP2 PUSH4 0x61728134 EQ PUSH2 0xF2A JUMPI DUP2 PUSH4 0x70A08231 EQ PUSH2 0xEE6 JUMPI DUP2 PUSH4 0x7EF76C44 EQ PUSH2 0xE81 JUMPI DUP2 PUSH4 0x8B822D88 EQ PUSH2 0xD5C JUMPI DUP2 PUSH4 0x95D89B41 EQ PUSH2 0xC04 JUMPI DUP2 PUSH4 0x9DC29FAC EQ PUSH2 0x8FC JUMPI DUP2 PUSH4 0xA457C2D7 EQ PUSH2 0x7F9 JUMPI DUP2 PUSH4 0xA4D95B64 EQ PUSH2 0x71A JUMPI DUP2 PUSH4 0xA9059CBB EQ PUSH2 0x6CB JUMPI DUP2 PUSH4 0xAD974F4C EQ PUSH2 0x68E JUMPI DUP2 PUSH4 0xB2BE2D58 EQ PUSH2 0x635 JUMPI DUP2 PUSH4 0xBB71FCA5 EQ PUSH2 0x5F1 JUMPI DUP2 PUSH4 0xC1255635 EQ PUSH2 0x567 JUMPI DUP2 PUSH4 0xCECA812F EQ PUSH2 0x523 JUMPI DUP2 PUSH4 0xD8867FC8 EQ PUSH2 0x2CD JUMPI POP DUP1 PUSH4 0xDD62ED3E EQ PUSH2 0x25A JUMPI DUP1 PUSH4 0xE4860339 EQ PUSH2 0x1DF JUMPI PUSH4 0xED6EDC82 EQ PUSH2 0x164 JUMPI PUSH1 0x0 DUP1 REVERT JUMPDEST CALLVALUE PUSH2 0x1DB JUMPI DUP1 PUSH32 0xFFFFFFFFFFFFFFFFFFFFFFFFFFFFFFFFFFFFFFFFFFFFFFFFFFFFFFFFFFFFFFFC CALLDATASIZE ADD SLT PUSH2 0x1DB JUMPI DUP1 PUSH1 0x20 SWAP3 PUSH2 0x19E PUSH2 0x177C JUMP JUMPDEST PUSH2 0x1A6 PUSH2 0x17A4 JUMP JUMPDEST PUSH20 0xFFFFFFFFFFFFFFFFFFFFFFFFFFFFFFFFFFFFFFFF SWAP2 DUP3 AND DUP4 MSTORE PUSH1 0x6 DUP7 MSTORE DUP4 DUP4 KECCAK256 SWAP2 AND DUP3 MSTORE PUSH1 0x1 ADD DUP5 MSTORE KECCAK256 SLOAD SWAP1 MLOAD SWAP1 ISZERO ISZERO DUP2 MSTORE RETURN JUMPDEST POP DUP1 REVERT JUMPDEST POP CALLVALUE PUSH2 0x1DB JUMPI PUSH1 0x20 PUSH32 0xFFFFFFFFFFFFFFFFFFFFFFFFFFFFFFFFFFFFFFFFFFFFFFFFFFFFFFFFFFFFFFFC CALLDATASIZE ADD SLT PUSH2 0x1DB JUMPI PUSH1 0x60 SWAP2 DUP2 PUSH20 0xFFFFFFFFFFFFFFFFFFFFFFFFFFFFFFFFFFFFFFFF SWAP2 DUP3 PUSH2 0x232 PUSH2 0x177C JUMP JUMPDEST AND DUP2 MSTORE PUSH1 0x9 PUSH1 0x20 MSTORE KECCAK256 SWAP1 DUP2 SLOAD AND SWAP2 PUSH1 0x2 PUSH1 0x1 DUP4 ADD SLOAD SWAP3 ADD SLOAD SWAP2 DUP2 MLOAD SWAP4 DUP5 MSTORE PUSH1 0x20 DUP5 ADD MSTORE DUP3 ADD MSTORE RETURN JUMPDEST POP CALLVALUE PUSH2 0x1DB JUMPI DUP1 PUSH32 0xFFFFFFFFFFFFFFFFFFFFFFFFFFFFFFFFFFFFFFFFFFFFFFFFFFFFFFFFFFFFFFFC CALLDATASIZE ADD SLT PUSH2 0x1DB JUMPI DUP1 PUSH1 0x20 SWAP3 PUSH2 0x295 PUSH2 0x177C JUMP JUMPDEST PUSH2 0x29D PUSH2 0x17A4 JUMP JUMPDEST PUSH20 0xFFFFFFFFFFFFFFFFFFFFFFFFFFFFFFFFFFFFFFFF SWAP2 DUP3 AND DUP4 MSTORE PUSH1 0x1 DUP7 MSTORE DUP4 DUP4 KECCAK256 SWAP2 AND DUP3 MSTORE DUP5 MSTORE KECCAK256 SLOAD SWAP1 MLOAD SWAP1 DUP2 MSTORE RETURN JUMPDEST SWAP2 SWAP1 POP CALLVALUE PUSH2 0x51F JUMPI PUSH1 0x20 SWAP2 DUP3 PUSH32 0xFFFFFFFFFFFFFFFFFFFFFFFFFFFFFFFFFFFFFFFFFFFFFFFFFFFFFFFFFFFFFFFC CALLDATASIZE ADD SLT PUSH2 0x51B JUMPI PUSH2 0x309 PUSH2 0x177C JUMP JUMPDEST SWAP3 PUSH20 0xFFFFFFFFFFFFFFFFFFFFFFFFFFFFFFFFFFFFFFFF DUP1 DUP6 AND DUP1 ISZERO PUSH2 0x4F3 JUMPI SWAP1 DUP3 DUP5 SWAP3 DUP7 MLOAD SWAP4 DUP5 DUP1 SWAP3 PUSH32 0xFC0C546A00000000000000000000000000000000000000000000000000000000 DUP3 MSTORE GAS STATICCALL SWAP2 DUP3 ISZERO PUSH2 0x4E9 JUMPI DUP8 SWAP3 PUSH2 0x4AD JUMPI JUMPDEST POP ADDRESS SWAP2 AND SUB PUSH2 0x485 JUMPI CALLER DUP6 MSTORE PUSH1 0x6 DUP2 MSTORE PUSH2 0x381 DUP5 DUP5 DUP8 KECCAK256 PUSH2 0x1A61 JUMP JUMPDEST ISZERO PUSH2 0x45D JUMPI PUSH1 0x6 SWAP1 CALLER DUP7 MSTORE MSTORE PUSH2 0x3A6 DUP3 DUP6 KECCAK256 PUSH1 0x0 DUP1 MSTORE PUSH1 0x20 MSTORE PUSH1 0x40 PUSH1 0x0 KECCAK256 SLOAD PUSH1 0xA0 SHR SWAP1 JUMP JUMPDEST PUSH32 0x0 LT PUSH2 0x436 JUMPI POP MLOAD CALLER DUP2 MSTORE PUSH20 0xFFFFFFFFFFFFFFFFFFFFFFFFFFFFFFFFFFFFFFFF DUP3 AND PUSH1 0x20 DUP3 ADD MSTORE PUSH32 0x68AAFB7A848A8E6E0E8FE992DE5812474789DDEC166CE06BE4DE83B3AAA2864E SWAP1 PUSH1 0x40 SWAP1 LOG1 PUSH2 0x41C CALLER PUSH2 0x19B8 JUMP JUMPDEST DUP1 PUSH2 0x425 JUMPI DUP3 DUP1 RETURN JUMPDEST PUSH2 0x430 SWAP2 CALLER SWAP1 PUSH2 0x1D08 JUMP JUMPDEST CODESIZE DUP1 DUP3 DUP1 RETURN JUMPDEST SWAP1 MLOAD PUSH32 0x2846F78A00000000000000000000000000000000000000000000000000000000 DUP2 MSTORE REVERT JUMPDEST POP SWAP1 MLOAD PUSH32 0xFCE323D600000000000000000000000000000000000000000000000000000000 DUP2 MSTORE REVERT JUMPDEST POP SWAP1 MLOAD PUSH32 0x5940FCC800000000000000000000000000000000000000000000000000000000 DUP2 MSTORE REVERT JUMPDEST SWAP1 SWAP2 POP DUP3 DUP2 DUP2 RETURNDATASIZE DUP4 GT PUSH2 0x4E2 JUMPI JUMPDEST PUSH2 0x4C5 DUP2 DUP4 PUSH2 0x17C7 JUMP JUMPDEST DUP2 ADD SUB SLT PUSH2 0x4DE JUMPI MLOAD DUP2 DUP2 AND DUP2 SUB PUSH2 0x4DE JUMPI SWAP1 CODESIZE PUSH2 0x365 JUMP JUMPDEST DUP7 DUP1 REVERT JUMPDEST POP RETURNDATASIZE PUSH2 0x4BB JUMP JUMPDEST DUP6 MLOAD RETURNDATASIZE DUP10 DUP3 RETURNDATACOPY RETURNDATASIZE SWAP1 REVERT JUMPDEST DUP4 DUP6 MLOAD PUSH32 0x4C6EA03C00000000000000000000000000000000000000000000000000000000 DUP2 MSTORE REVERT JUMPDEST DUP4 DUP1 REVERT JUMPDEST DUP3 DUP1 REVERT JUMPDEST DUP4 SWAP1 CALLVALUE PUSH2 0x1DB JUMPI PUSH1 0x20 PUSH32 0xFFFFFFFFFFFFFFFFFFFFFFFFFFFFFFFFFFFFFFFFFFFFFFFFFFFFFFFFFFFFFFFC CALLDATASIZE ADD SLT PUSH2 0x1DB JUMPI PUSH2 0x561 SWAP1 CALLDATALOAD PUSH1 0x7 SLOAD PUSH2 0x245E JUMP JUMPDEST PUSH1 0x7 SSTORE DUP1 RETURN JUMPDEST DUP3 DUP5 CALLVALUE PUSH2 0x5EE JUMPI DUP2 PUSH32 0xFFFFFFFFFFFFFFFFFFFFFFFFFFFFFFFFFFFFFFFFFFFFFFFFFFFFFFFFFFFFFFFC CALLDATASIZE ADD SLT PUSH2 0x5EE JUMPI POP PUSH2 0x5A0 PUSH2 0x177C JUMP JUMPDEST PUSH2 0x5A8 PUSH2 0x17A4 JUMP JUMPDEST SWAP3 PUSH1 0x2 PUSH1 0x5 SLOAD EQ PUSH2 0x5C7 JUMPI POP PUSH1 0x20 SWAP3 PUSH2 0x5C0 SWAP2 PUSH2 0x1A13 JUMP JUMPDEST SWAP1 MLOAD SWAP1 DUP2 MSTORE RETURN JUMPDEST DUP3 MLOAD PUSH32 0x37ED32E800000000000000000000000000000000000000000000000000000000 DUP2 MSTORE REVERT JUMPDEST DUP1 REVERT JUMPDEST DUP4 SWAP1 CALLVALUE PUSH2 0x1DB JUMPI PUSH1 0x20 PUSH32 0xFFFFFFFFFFFFFFFFFFFFFFFFFFFFFFFFFFFFFFFFFFFFFFFFFFFFFFFFFFFFFFFC CALLDATASIZE ADD SLT PUSH2 0x1DB JUMPI PUSH2 0x62F SWAP1 CALLDATALOAD PUSH1 0x8 SLOAD PUSH2 0x245E JUMP JUMPDEST PUSH1 0x8 SSTORE DUP1 RETURN JUMPDEST POP POP CALLVALUE PUSH2 0x1DB JUMPI DUP2 PUSH32 0xFFFFFFFFFFFFFFFFFFFFFFFFFFFFFFFFFFFFFFFFFFFFFFFFFFFFFFFFFFFFFFFC CALLDATASIZE ADD SLT PUSH2 0x1DB JUMPI PUSH1 0x20 SWAP1 MLOAD PUSH32 0x0 DUP2 MSTORE RETURN JUMPDEST POP POP CALLVALUE PUSH2 0x1DB JUMPI DUP2 PUSH32 0xFFFFFFFFFFFFFFFFFFFFFFFFFFFFFFFFFFFFFFFFFFFFFFFFFFFFFFFFFFFFFFFC CALLDATASIZE ADD SLT PUSH2 0x1DB JUMPI PUSH1 0x20 SWAP1 PUSH1 0x8 SLOAD SWAP1 MLOAD SWAP1 DUP2 MSTORE RETURN JUMPDEST POP POP CALLVALUE PUSH2 0x1DB JUMPI DUP1 PUSH32 0xFFFFFFFFFFFFFFFFFFFFFFFFFFFFFFFFFFFFFFFFFFFFFFFFFFFFFFFFFFFFFFFC CALLDATASIZE ADD SLT PUSH2 0x1DB JUMPI PUSH1 0x20 SWAP1 PUSH2 0x713 PUSH2 0x709 PUSH2 0x177C JUMP JUMPDEST PUSH1 0x24 CALLDATALOAD SWAP1 CALLER PUSH2 0x1ECC JUMP JUMPDEST MLOAD PUSH1 0x1 DUP2 MSTORE RETURN JUMPDEST SWAP2 SWAP1 POP CALLVALUE PUSH2 0x51F JUMPI PUSH1 0x20 PUSH32 0xFFFFFFFFFFFFFFFFFFFFFFFFFFFFFFFFFFFFFFFFFFFFFFFFFFFFFFFFFFFFFFFC CALLDATASIZE ADD SLT PUSH2 0x51F JUMPI PUSH2 0x754 PUSH2 0x177C JUMP JUMPDEST SWAP2 CALLER DUP5 MSTORE PUSH1 0x6 PUSH1 0x20 MSTORE PUSH2 0x769 DUP4 DUP4 DUP7 KECCAK256 PUSH2 0x1B2A JUMP JUMPDEST ISZERO PUSH2 0x7D2 JUMPI POP MLOAD CALLER DUP2 MSTORE PUSH20 0xFFFFFFFFFFFFFFFFFFFFFFFFFFFFFFFFFFFFFFFF DUP3 AND PUSH1 0x20 DUP3 ADD MSTORE PUSH32 0x550EF13F654F6FC7054E7C556D2647CB8838BEFBFA68640BB3050FC458AD4735 SWAP1 PUSH1 0x40 SWAP1 LOG1 PUSH2 0x7BE CALLER PUSH2 0x19B8 JUMP JUMPDEST DUP1 PUSH2 0x7C7 JUMPI DUP3 DUP1 RETURN JUMPDEST PUSH2 0x430 SWAP2 CALLER SWAP1 PUSH2 0x1E1E JUMP JUMPDEST SWAP1 MLOAD PUSH32 0x108A506D00000000000000000000000000000000000000000000000000000000 DUP2 MSTORE REVERT JUMPDEST SWAP1 POP DUP3 CALLVALUE PUSH2 0x5EE JUMPI DUP3 PUSH32 0xFFFFFFFFFFFFFFFFFFFFFFFFFFFFFFFFFFFFFFFFFFFFFFFFFFFFFFFFFFFFFFFC CALLDATASIZE ADD SLT PUSH2 0x5EE JUMPI PUSH2 0x832 PUSH2 0x177C JUMP JUMPDEST SWAP2 DUP4 PUSH1 0x24 CALLDATALOAD SWAP3 CALLER DUP2 MSTORE PUSH1 0x1 PUSH1 0x20 MSTORE DUP2 DUP2 KECCAK256 PUSH20 0xFFFFFFFFFFFFFFFFFFFFFFFFFFFFFFFFFFFFFFFF DUP7 AND DUP3 MSTORE PUSH1 0x20 MSTORE KECCAK256 SLOAD SWAP1 DUP3 DUP3 LT PUSH2 0x879 JUMPI PUSH1 0x20 DUP6 PUSH2 0x713 DUP6 DUP6 SUB DUP8 CALLER PUSH2 0x22E9 JUMP JUMPDEST PUSH1 0x84 SWAP1 PUSH1 0x20 DUP7 MLOAD SWAP2 PUSH32 0x8C379A000000000000000000000000000000000000000000000000000000000 DUP4 MSTORE DUP3 ADD MSTORE PUSH1 0x25 PUSH1 0x24 DUP3 ADD MSTORE PUSH32 0x45524332303A2064656372656173656420616C6C6F77616E63652062656C6F77 PUSH1 0x44 DUP3 ADD MSTORE PUSH32 0x207A65726F000000000000000000000000000000000000000000000000000000 PUSH1 0x64 DUP3 ADD MSTORE REVERT JUMPDEST SWAP2 SWAP1 POP CALLVALUE PUSH2 0x51F JUMPI DUP1 PUSH32 0xFFFFFFFFFFFFFFFFFFFFFFFFFFFFFFFFFFFFFFFFFFFFFFFFFFFFFFFFFFFFFFFC CALLDATASIZE ADD SLT PUSH2 0x51F JUMPI PUSH2 0x935 PUSH2 0x177C JUMP JUMPDEST SWAP1 PUSH1 0x24 CALLDATALOAD SWAP2 PUSH20 0xFFFFFFFFFFFFFFFFFFFFFFFFFFFFFFFFFFFFFFFF SWAP2 DUP3 DUP3 AND SWAP1 DUP2 ISZERO PUSH2 0xB82 JUMPI DUP2 DUP8 MSTORE PUSH1 0x20 SWAP6 DUP8 DUP8 MSTORE DUP2 DUP9 KECCAK256 SLOAD DUP7 DUP2 LT PUSH2 0xB00 JUMPI DUP7 SWAP1 DUP5 DUP11 MSTORE DUP10 DUP10 MSTORE SUB DUP3 DUP10 KECCAK256 SSTORE DUP6 PUSH1 0x2 SLOAD SUB PUSH1 0x2 SSTORE DUP8 DUP4 PUSH32 0xDDF252AD1BE2C89B69C2B068FC378DAA952BA7F163C4A11628F55A4DF523B3EF DUP10 DUP6 MLOAD DUP11 DUP2 MSTORE LOG3 PUSH1 0x2 PUSH1 0x5 SLOAD EQ PUSH2 0xAD9 JUMPI POP PUSH1 0x2 PUSH1 0x5 SSTORE DUP5 ISZERO ISZERO DUP1 PUSH2 0xAD1 JUMPI JUMPDEST PUSH2 0x9D4 JUMPI JUMPDEST DUP7 PUSH1 0x1 PUSH1 0x5 SSTORE DUP1 RETURN JUMPDEST PUSH2 0x9F7 SWAP2 DUP8 MSTORE PUSH1 0x6 DUP7 MSTORE PUSH1 0x6 PUSH2 0x9EB DUP3 DUP10 KECCAK256 PUSH2 0x184F JUMP JUMPDEST SWAP7 DUP9 DUP1 MSTORE MSTORE DUP7 KECCAK256 PUSH2 0x184F JUMP JUMPDEST SWAP1 DUP5 MLOAD SWAP1 DUP3 MLOAD SWAP6 DUP8 JUMPDEST DUP4 DUP2 LT PUSH2 0xA49 JUMPI POP POP POP POP DUP5 JUMPDEST DUP5 DUP2 LT PUSH2 0xA1A JUMPI DUP1 PUSH2 0x9CB JUMP JUMPDEST DUP1 DUP4 PUSH2 0xA28 PUSH1 0x1 SWAP4 DUP6 PUSH2 0x1975 JUMP JUMPDEST MLOAD AND DUP6 DUP2 PUSH2 0xA39 JUMPI JUMPDEST POP POP ADD PUSH2 0xA0D JUMP JUMPDEST PUSH2 0xA42 SWAP2 PUSH2 0x1D91 JUMP JUMPDEST CODESIZE DUP6 PUSH2 0xA31 JUMP JUMPDEST DUP6 PUSH2 0xA54 DUP3 DUP5 PUSH2 0x1975 JUMP JUMPDEST MLOAD AND SWAP1 DUP10 SWAP2 JUMPDEST DUP9 DUP6 DUP12 DUP1 DUP7 LT PUSH2 0xA88 JUMPI JUMPDEST PUSH1 0x1 SWAP6 EQ PUSH2 0xA77 JUMPI JUMPDEST POP POP POP ADD PUSH2 0xA00 JUMP JUMPDEST PUSH2 0xA80 SWAP3 PUSH2 0x1E1E JUMP JUMPDEST CODESIZE DUP9 DUP6 PUSH2 0xA6E JUMP JUMPDEST DUP14 DUP12 PUSH2 0xA98 DUP9 DUP14 SWAP10 SWAP8 SWAP9 SWAP10 PUSH2 0x1975 JUMP JUMPDEST MLOAD AND DUP7 EQ PUSH2 0xAAE JUMPI POP POP POP POP PUSH1 0x1 ADD SWAP2 SWAP1 PUSH2 0xA5A JUMP JUMPDEST SWAP4 DUP6 SWAP5 PUSH2 0xABF DUP6 DUP6 PUSH1 0x1 SWAP11 SWAP10 PUSH2 0x1E1E JUMP JUMPDEST PUSH2 0xAC9 DUP3 DUP14 PUSH2 0x1975 JUMP JUMPDEST MSTORE SWAP6 POP PUSH2 0xA65 JUMP JUMPDEST POP PUSH1 0x1 PUSH2 0x9C6 JUMP JUMPDEST SWAP1 MLOAD PUSH32 0x37ED32E800000000000000000000000000000000000000000000000000000000 DUP2 MSTORE REVERT JUMPDEST POP DUP7 PUSH1 0x84 SWAP3 MLOAD SWAP2 PUSH32 0x8C379A000000000000000000000000000000000000000000000000000000000 DUP4 MSTORE DUP3 ADD MSTORE PUSH1 0x22 PUSH1 0x24 DUP3 ADD MSTORE PUSH32 0x45524332303A206275726E20616D6F756E7420657863656564732062616C616E PUSH1 0x44 DUP3 ADD MSTORE PUSH32 0x6365000000000000000000000000000000000000000000000000000000000000 PUSH1 0x64 DUP3 ADD MSTORE REVERT JUMPDEST MLOAD PUSH32 0x8C379A000000000000000000000000000000000000000000000000000000000 DUP2 MSTORE PUSH1 0x20 DUP2 DUP8 ADD MSTORE PUSH1 0x21 PUSH1 0x24 DUP3 ADD MSTORE PUSH32 0x45524332303A206275726E2066726F6D20746865207A65726F20616464726573 PUSH1 0x44 DUP3 ADD MSTORE PUSH32 0x7300000000000000000000000000000000000000000000000000000000000000 PUSH1 0x64 DUP3 ADD MSTORE PUSH1 0x84 SWAP1 REVERT JUMPDEST DUP4 DUP4 CALLVALUE PUSH2 0x1DB JUMPI DUP2 PUSH32 0xFFFFFFFFFFFFFFFFFFFFFFFFFFFFFFFFFFFFFFFFFFFFFFFFFFFFFFFFFFFFFFFC CALLDATASIZE ADD SLT PUSH2 0x1DB JUMPI DUP1 MLOAD SWAP2 DUP1 SWAP4 DUP1 SLOAD SWAP2 PUSH1 0x1 SWAP1 DUP4 DUP3 SHR SWAP3 DUP3 DUP6 AND SWAP5 DUP6 ISZERO PUSH2 0xD52 JUMPI JUMPDEST PUSH1 0x20 SWAP6 DUP7 DUP7 LT DUP2 EQ PUSH2 0xD26 JUMPI DUP6 DUP10 MSTORE SWAP1 DUP2 ISZERO PUSH2 0xCE4 JUMPI POP PUSH1 0x1 EQ PUSH2 0xC8C JUMPI JUMPDEST PUSH2 0xC88 DUP8 DUP8 PUSH2 0xC7E DUP3 DUP13 SUB DUP4 PUSH2 0x17C7 JUMP JUMPDEST MLOAD SWAP2 DUP3 SWAP2 DUP3 PUSH2 0x1716 JUMP JUMPDEST SUB SWAP1 RETURN JUMPDEST DUP2 MSTORE SWAP3 SWAP6 POP PUSH32 0x8A35ACFBC15FF81A39AE7D344FD709F28E8600B4AA8C65C6B64BFE7FE36BD19B JUMPDEST DUP3 DUP5 LT PUSH2 0xCD1 JUMPI POP POP POP DUP3 PUSH2 0xC88 SWAP5 PUSH2 0xC7E SWAP3 DUP3 ADD ADD SWAP5 DUP7 DUP1 PUSH2 0xC6D JUMP JUMPDEST DUP1 SLOAD DUP7 DUP6 ADD DUP9 ADD MSTORE SWAP3 DUP7 ADD SWAP3 DUP2 ADD PUSH2 0xCB3 JUMP JUMPDEST PUSH32 0xFFFFFFFFFFFFFFFFFFFFFFFFFFFFFFFFFFFFFFFFFFFFFFFFFFFFFFFFFFFFFF00 AND DUP9 DUP8 ADD MSTORE POP POP POP POP ISZERO ISZERO PUSH1 0x5 SHL DUP4 ADD ADD SWAP3 POP PUSH2 0xC7E DUP3 PUSH2 0xC88 DUP7 DUP1 PUSH2 0xC6D JUMP JUMPDEST PUSH1 0x24 DUP5 PUSH1 0x22 DUP6 PUSH32 0x4E487B7100000000000000000000000000000000000000000000000000000000 DUP4 MSTORE MSTORE REVERT JUMPDEST SWAP4 PUSH1 0x7F AND SWAP4 PUSH2 0xC4E JUMP JUMPDEST POP POP CALLVALUE PUSH2 0x1DB JUMPI DUP2 PUSH32 0xFFFFFFFFFFFFFFFFFFFFFFFFFFFFFFFFFFFFFFFFFFFFFFFFFFFFFFFFFFFFFFFC CALLDATASIZE ADD SLT PUSH2 0x1DB JUMPI CALLER DUP3 MSTORE PUSH1 0x6 PUSH1 0x20 SWAP2 DUP2 DUP4 MSTORE PUSH2 0xDA2 DUP2 DUP6 KECCAK256 PUSH2 0x184F JUMP JUMPDEST SWAP3 PUSH2 0xDAC CALLER PUSH2 0x19B8 JUMP JUMPDEST SWAP2 DUP5 MLOAD SWAP2 DUP3 DUP5 ISZERO ISZERO SWAP4 JUMPDEST PUSH2 0xDBE JUMPI DUP8 DUP1 RETURN JUMPDEST DUP1 PUSH20 0xFFFFFFFFFFFFFFFFFFFFFFFFFFFFFFFFFFFFFFFF PUSH2 0xE01 PUSH32 0xFFFFFFFFFFFFFFFFFFFFFFFFFFFFFFFFFFFFFFFFFFFFFFFFFFFFFFFFFFFFFFFF DUP1 SWAP5 ADD DUP11 PUSH2 0x1975 JUMP JUMPDEST MLOAD AND CALLER DUP11 MSTORE DUP8 DUP5 MSTORE PUSH2 0xE15 DUP2 DUP7 DUP13 KECCAK256 PUSH2 0x1B2A JUMP JUMPDEST POP DUP5 MLOAD CALLER DUP2 MSTORE PUSH20 0xFFFFFFFFFFFFFFFFFFFFFFFFFFFFFFFFFFFFFFFF DUP3 AND PUSH1 0x20 DUP3 ADD MSTORE DUP8 SWAP1 DUP8 SWAP1 PUSH32 0x550EF13F654F6FC7054E7C556D2647CB8838BEFBFA68640BB3050FC458AD4735 SWAP1 PUSH1 0x40 SWAP1 LOG1 PUSH2 0xE6F JUMPI JUMPDEST POP POP ADD DUP1 PUSH2 0xDB6 JUMP JUMPDEST PUSH2 0xE7A SWAP2 CALLER SWAP1 PUSH2 0x1E1E JUMP JUMPDEST CODESIZE DUP7 PUSH2 0xE66 JUMP JUMPDEST POP POP CALLVALUE PUSH2 0x1DB JUMPI PUSH1 0x20 PUSH32 0xFFFFFFFFFFFFFFFFFFFFFFFFFFFFFFFFFFFFFFFFFFFFFFFFFFFFFFFFFFFFFFFC CALLDATASIZE ADD SLT PUSH2 0x1DB JUMPI PUSH1 0x2 DUP2 PUSH1 0x20 SWAP4 PUSH20 0xFFFFFFFFFFFFFFFFFFFFFFFFFFFFFFFFFFFFFFFF PUSH2 0xED5 PUSH2 0x177C JUMP JUMPDEST AND DUP2 MSTORE PUSH1 0x9 DUP6 MSTORE KECCAK256 ADD SLOAD SWAP1 MLOAD SWAP1 DUP2 MSTORE RETURN JUMPDEST POP POP CALLVALUE PUSH2 0x1DB JUMPI PUSH1 0x20 PUSH32 0xFFFFFFFFFFFFFFFFFFFFFFFFFFFFFFFFFFFFFFFFFFFFFFFFFFFFFFFFFFFFFFFC CALLDATASIZE ADD SLT PUSH2 0x1DB JUMPI PUSH1 0x20 SWAP1 PUSH2 0x5C0 PUSH2 0xF25 PUSH2 0x177C JUMP JUMPDEST PUSH2 0x19B8 JUMP JUMPDEST POP POP CALLVALUE PUSH2 0x1DB JUMPI PUSH1 0x20 PUSH32 0xFFFFFFFFFFFFFFFFFFFFFFFFFFFFFFFFFFFFFFFFFFFFFFFFFFFFFFFFFFFFFFFC CALLDATASIZE ADD SLT PUSH2 0x1DB JUMPI PUSH2 0x5C0 DUP2 PUSH1 0x20 SWAP4 PUSH20 0xFFFFFFFFFFFFFFFFFFFFFFFFFFFFFFFFFFFFFFFF PUSH2 0xF7F PUSH2 0x177C JUMP JUMPDEST AND DUP2 MSTORE PUSH1 0x6 DUP6 MSTORE KECCAK256 PUSH1 0x0 DUP1 MSTORE PUSH1 0x20 MSTORE PUSH1 0x40 PUSH1 0x0 KECCAK256 SLOAD PUSH1 0xA0 SHR SWAP1 JUMP JUMPDEST DUP3 DUP5 CALLVALUE PUSH2 0x5EE JUMPI PUSH1 0x20 DUP1 PUSH32 0xFFFFFFFFFFFFFFFFFFFFFFFFFFFFFFFFFFFFFFFFFFFFFFFFFFFFFFFFFFFFFFFC CALLDATASIZE ADD SLT PUSH2 0x1DB JUMPI DUP3 PUSH20 0xFFFFFFFFFFFFFFFFFFFFFFFFFFFFFFFFFFFFFFFF SWAP3 DUP4 PUSH2 0xFEC PUSH2 0x177C JUMP JUMPDEST AND DUP2 MSTORE PUSH1 0x6 DUP4 MSTORE PUSH2 0xFFE DUP3 DUP3 KECCAK256 PUSH2 0x184F JUMP JUMPDEST SWAP2 DUP1 MLOAD SWAP4 DUP1 DUP1 DUP7 ADD SWAP3 DUP2 DUP8 MSTORE DUP6 MLOAD DUP1 SWAP5 MSTORE DUP7 ADD SWAP5 ADD SWAP3 JUMPDEST DUP3 DUP2 LT PUSH2 0x1022 JUMPI DUP6 DUP6 SUB DUP7 RETURN JUMPDEST DUP4 MLOAD DUP8 AND DUP6 MSTORE SWAP4 DUP2 ADD SWAP4 SWAP3 DUP2 ADD SWAP3 PUSH1 0x1 ADD PUSH2 0x1015 JUMP JUMPDEST SWAP2 SWAP1 POP CALLVALUE PUSH2 0x51F JUMPI DUP1 PUSH32 0xFFFFFFFFFFFFFFFFFFFFFFFFFFFFFFFFFFFFFFFFFFFFFFFFFFFFFFFFFFFFFFFC CALLDATASIZE ADD SLT PUSH2 0x51F JUMPI PUSH2 0x1071 PUSH2 0x177C JUMP JUMPDEST SWAP1 PUSH1 0x24 CALLDATALOAD SWAP1 PUSH20 0xFFFFFFFFFFFFFFFFFFFFFFFFFFFFFFFFFFFFFFFF SWAP1 DUP2 DUP5 AND SWAP5 DUP6 ISZERO PUSH2 0x1209 JUMPI PUSH2 0x10A2 DUP5 PUSH1 0x2 SLOAD PUSH2 0x1E90 JUMP JUMPDEST PUSH1 0x2 SSTORE DUP6 DUP8 MSTORE DUP7 PUSH1 0x20 MSTORE DUP2 DUP8 KECCAK256 DUP5 DUP2 SLOAD ADD SWAP1 SSTORE DUP6 DUP8 PUSH32 0xDDF252AD1BE2C89B69C2B068FC378DAA952BA7F163C4A11628F55A4DF523B3EF PUSH1 0x20 DUP6 MLOAD DUP9 DUP2 MSTORE LOG3 PUSH1 0x2 PUSH1 0x5 SLOAD EQ PUSH2 0xAD9 JUMPI POP PUSH1 0x2 PUSH1 0x5 SSTORE DUP3 ISZERO ISZERO DUP1 PUSH2 0x1201 JUMPI JUMPDEST PUSH2 0x1107 JUMPI JUMPDEST DUP6 PUSH1 0x1 PUSH1 0x5 SSTORE DUP1 RETURN JUMPDEST PUSH2 0x112D SWAP1 DUP7 DUP1 MSTORE PUSH1 0x6 PUSH1 0x20 MSTORE PUSH2 0x111E DUP2 DUP9 KECCAK256 PUSH2 0x184F JUMP JUMPDEST SWAP6 DUP8 MSTORE PUSH1 0x6 PUSH1 0x20 MSTORE DUP7 KECCAK256 PUSH2 0x184F JUMP JUMPDEST DUP5 MLOAD DUP2 MLOAD SWAP6 DUP8 JUMPDEST DUP3 DUP2 LT PUSH2 0x117F JUMPI POP POP POP DUP6 JUMPDEST DUP6 DUP2 LT PUSH2 0x114D JUMPI POP PUSH2 0x10FE JUMP JUMPDEST DUP1 DUP4 PUSH2 0x115B PUSH1 0x1 SWAP4 DUP6 PUSH2 0x1975 JUMP JUMPDEST MLOAD AND DUP6 DUP8 DUP3 PUSH2 0x116E JUMPI JUMPDEST POP POP POP ADD PUSH2 0x1140 JUMP JUMPDEST PUSH2 0x1177 SWAP3 PUSH2 0x1D08 JUMP JUMPDEST CODESIZE DUP6 DUP8 PUSH2 0x1165 JUMP JUMPDEST DUP5 PUSH2 0x118A DUP3 DUP5 PUSH2 0x1975 JUMP JUMPDEST MLOAD AND SWAP1 DUP10 SWAP2 JUMPDEST DUP8 DUP11 DUP1 DUP6 LT PUSH2 0x11BB JUMPI JUMPDEST PUSH1 0x1 SWAP5 EQ PUSH2 0x11AB JUMPI JUMPDEST POP POP ADD PUSH2 0x1134 JUMP JUMPDEST PUSH2 0x11B4 SWAP2 PUSH2 0x1D91 JUMP JUMPDEST CODESIZE DUP8 PUSH2 0x11A3 JUMP JUMPDEST DUP9 PUSH2 0x11CA DUP7 DUP11 SWAP8 SWAP6 SWAP7 SWAP8 PUSH2 0x1975 JUMP JUMPDEST MLOAD AND DUP5 EQ PUSH2 0x11DE JUMPI POP POP PUSH1 0x1 ADD SWAP2 SWAP1 PUSH2 0x1190 JUMP JUMPDEST DUP4 SWAP3 PUSH2 0x11EE DUP4 DUP14 PUSH1 0x1 SWAP9 SWAP8 PUSH2 0x1D08 JUMP JUMPDEST DUP14 PUSH2 0x11F9 DUP3 DUP12 PUSH2 0x1975 JUMP JUMPDEST MSTORE SWAP5 POP PUSH2 0x119A JUMP JUMPDEST POP PUSH1 0x1 PUSH2 0x10F9 JUMP JUMPDEST PUSH1 0x20 PUSH1 0x64 SWAP3 MLOAD SWAP2 PUSH32 0x8C379A000000000000000000000000000000000000000000000000000000000 DUP4 MSTORE DUP3 ADD MSTORE PUSH1 0x1F PUSH1 0x24 DUP3 ADD MSTORE PUSH32 0x45524332303A206D696E7420746F20746865207A65726F206164647265737300 PUSH1 0x44 DUP3 ADD MSTORE REVERT JUMPDEST POP POP CALLVALUE PUSH2 0x1DB JUMPI DUP1 PUSH32 0xFFFFFFFFFFFFFFFFFFFFFFFFFFFFFFFFFFFFFFFFFFFFFFFFFFFFFFFFFFFFFFFC CALLDATASIZE ADD SLT PUSH2 0x1DB JUMPI PUSH2 0x713 PUSH1 0x20 SWAP3 PUSH2 0x12D8 PUSH2 0x12A6 PUSH2 0x177C JUMP JUMPDEST SWAP2 CALLER DUP2 MSTORE PUSH1 0x1 DUP7 MSTORE DUP5 DUP2 KECCAK256 PUSH20 0xFFFFFFFFFFFFFFFFFFFFFFFFFFFFFFFFFFFFFFFF DUP5 AND DUP3 MSTORE DUP7 MSTORE DUP5 PUSH1 0x24 CALLDATALOAD SWAP2 KECCAK256 SLOAD PUSH2 0x1E90 JUMP JUMPDEST SWAP1 CALLER PUSH2 0x22E9 JUMP JUMPDEST POP POP CALLVALUE PUSH2 0x1DB JUMPI DUP2 PUSH32 0xFFFFFFFFFFFFFFFFFFFFFFFFFFFFFFFFFFFFFFFFFFFFFFFFFFFFFFFFFFFFFFFC CALLDATASIZE ADD SLT PUSH2 0x1DB JUMPI PUSH1 0x20 SWAP1 MLOAD PUSH1 0x12 DUP2 MSTORE RETURN JUMPDEST POP POP CALLVALUE PUSH2 0x1DB JUMPI DUP2 PUSH32 0xFFFFFFFFFFFFFFFFFFFFFFFFFFFFFFFFFFFFFFFFFFFFFFFFFFFFFFFFFFFFFFFC CALLDATASIZE ADD SLT PUSH2 0x1DB JUMPI PUSH1 0x20 SWAP1 PUSH1 0x7 SLOAD SWAP1 MLOAD SWAP1 DUP2 MSTORE RETURN JUMPDEST DUP4 SWAP2 POP CALLVALUE PUSH2 0x1DB JUMPI PUSH1 0x60 PUSH32 0xFFFFFFFFFFFFFFFFFFFFFFFFFFFFFFFFFFFFFFFFFFFFFFFFFFFFFFFFFFFFFFFC CALLDATASIZE ADD SLT PUSH2 0x1DB JUMPI PUSH2 0x1390 PUSH2 0x177C JUMP JUMPDEST PUSH2 0x1398 PUSH2 0x17A4 JUMP JUMPDEST SWAP2 DUP5 PUSH1 0x44 CALLDATALOAD SWAP5 PUSH20 0xFFFFFFFFFFFFFFFFFFFFFFFFFFFFFFFFFFFFFFFF DUP5 AND DUP2 MSTORE PUSH1 0x1 PUSH1 0x20 MSTORE DUP2 DUP2 KECCAK256 CALLER DUP3 MSTORE PUSH1 0x20 MSTORE KECCAK256 SLOAD SWAP1 PUSH32 0xFFFFFFFFFFFFFFFFFFFFFFFFFFFFFFFFFFFFFFFFFFFFFFFFFFFFFFFFFFFFFFFF DUP3 SUB PUSH2 0x13FE JUMPI JUMPDEST PUSH1 0x20 DUP7 PUSH2 0x713 DUP8 DUP8 DUP8 PUSH2 0x1ECC JUMP JUMPDEST DUP5 DUP3 LT PUSH2 0x1427 JUMPI POP SWAP2 DUP4 SWAP2 PUSH2 0x141C PUSH1 0x20 SWAP7 SWAP6 PUSH2 0x713 SWAP6 SUB CALLER DUP4 PUSH2 0x22E9 JUMP JUMPDEST SWAP2 SWAP4 SWAP5 DUP2 SWAP4 POP PUSH2 0x13F0 JUMP JUMPDEST PUSH1 0x64 SWAP1 PUSH1 0x20 DUP8 MLOAD SWAP2 PUSH32 0x8C379A000000000000000000000000000000000000000000000000000000000 DUP4 MSTORE DUP3 ADD MSTORE PUSH1 0x1D PUSH1 0x24 DUP3 ADD MSTORE PUSH32 0x45524332303A20696E73756666696369656E7420616C6C6F77616E6365000000 PUSH1 0x44 DUP3 ADD MSTORE REVERT JUMPDEST POP POP CALLVALUE PUSH2 0x1DB JUMPI DUP2 PUSH32 0xFFFFFFFFFFFFFFFFFFFFFFFFFFFFFFFFFFFFFFFFFFFFFFFFFFFFFFFFFFFFFFFC CALLDATASIZE ADD SLT PUSH2 0x1DB JUMPI PUSH1 0x20 SWAP1 MLOAD PUSH32 0x0 DUP2 MSTORE RETURN JUMPDEST POP POP CALLVALUE PUSH2 0x1DB JUMPI DUP1 PUSH32 0xFFFFFFFFFFFFFFFFFFFFFFFFFFFFFFFFFFFFFFFFFFFFFFFFFFFFFFFFFFFFFFFC CALLDATASIZE ADD SLT PUSH2 0x1DB JUMPI PUSH1 0x20 SWAP2 DUP2 PUSH20 0xFFFFFFFFFFFFFFFFFFFFFFFFFFFFFFFFFFFFFFFF SWAP2 DUP3 PUSH2 0x1530 PUSH2 0x177C JUMP JUMPDEST AND DUP2 MSTORE PUSH1 0x6 DUP6 MSTORE DUP2 DUP2 KECCAK256 PUSH1 0x24 CALLDATALOAD DUP3 MSTORE DUP6 MSTORE KECCAK256 SLOAD AND SWAP1 MLOAD SWAP1 DUP2 MSTORE RETURN JUMPDEST POP POP CALLVALUE PUSH2 0x1DB JUMPI DUP2 PUSH32 0xFFFFFFFFFFFFFFFFFFFFFFFFFFFFFFFFFFFFFFFFFFFFFFFFFFFFFFFFFFFFFFFC CALLDATASIZE ADD SLT PUSH2 0x1DB JUMPI PUSH1 0x20 SWAP1 PUSH1 0x2 SLOAD SWAP1 MLOAD SWAP1 DUP2 MSTORE RETURN JUMPDEST POP POP CALLVALUE PUSH2 0x1DB JUMPI DUP1 PUSH32 0xFFFFFFFFFFFFFFFFFFFFFFFFFFFFFFFFFFFFFFFFFFFFFFFFFFFFFFFFFFFFFFFC CALLDATASIZE ADD SLT PUSH2 0x1DB JUMPI PUSH1 0x20 SWAP1 PUSH2 0x713 PUSH2 0x15C6 PUSH2 0x177C JUMP JUMPDEST PUSH1 0x24 CALLDATALOAD SWAP1 CALLER PUSH2 0x22E9 JUMP JUMPDEST SWAP3 SWAP2 POP CALLVALUE PUSH2 0x51B JUMPI DUP4 PUSH32 0xFFFFFFFFFFFFFFFFFFFFFFFFFFFFFFFFFFFFFFFFFFFFFFFFFFFFFFFFFFFFFFFC CALLDATASIZE ADD SLT PUSH2 0x51B JUMPI PUSH1 0x3 SLOAD PUSH1 0x1 DUP2 DUP2 SHR SWAP2 DUP7 SWAP1 DUP3 DUP2 AND DUP1 ISZERO PUSH2 0x170C JUMPI JUMPDEST PUSH1 0x20 SWAP6 DUP7 DUP7 LT DUP3 EQ PUSH2 0x16E0 JUMPI POP DUP5 DUP9 MSTORE SWAP1 DUP2 ISZERO PUSH2 0x16A0 JUMPI POP PUSH1 0x1 EQ PUSH2 0x1647 JUMPI JUMPDEST PUSH2 0xC88 DUP7 DUP7 PUSH2 0xC7E DUP3 DUP12 SUB DUP4 PUSH2 0x17C7 JUMP JUMPDEST SWAP3 SWAP6 POP PUSH1 0x3 DUP4 MSTORE PUSH32 0xC2575A0E9E593C00F959F8C92F12DB2869C3395A3B0502D05E2516446F71F85B JUMPDEST DUP3 DUP5 LT PUSH2 0x168D JUMPI POP POP POP DUP3 PUSH2 0xC88 SWAP5 PUSH2 0xC7E SWAP3 DUP3 ADD ADD SWAP5 CODESIZE PUSH2 0x1636 JUMP JUMPDEST DUP1 SLOAD DUP7 DUP6 ADD DUP9 ADD MSTORE SWAP3 DUP7 ADD SWAP3 DUP2 ADD PUSH2 0x1670 JUMP JUMPDEST PUSH32 0xFFFFFFFFFFFFFFFFFFFFFFFFFFFFFFFFFFFFFFFFFFFFFFFFFFFFFFFFFFFFFF00 AND DUP8 DUP7 ADD MSTORE POP POP POP ISZERO ISZERO PUSH1 0x5 SHL DUP4 ADD ADD SWAP3 POP PUSH2 0xC7E DUP3 PUSH2 0xC88 CODESIZE PUSH2 0x1636 JUMP JUMPDEST DUP4 PUSH1 0x22 PUSH1 0x24 SWAP3 PUSH32 0x4E487B7100000000000000000000000000000000000000000000000000000000 DUP4 MSTORE MSTORE REVERT JUMPDEST SWAP4 PUSH1 0x7F AND SWAP4 PUSH2 0x1616 JUMP JUMPDEST PUSH1 0x20 DUP1 DUP3 MSTORE DUP3 MLOAD DUP2 DUP4 ADD DUP2 SWAP1 MSTORE SWAP4 SWAP3 PUSH1 0x0 JUMPDEST DUP6 DUP2 LT PUSH2 0x1768 JUMPI POP POP POP PUSH32 0xFFFFFFFFFFFFFFFFFFFFFFFFFFFFFFFFFFFFFFFFFFFFFFFFFFFFFFFFFFFFFFE0 PUSH1 0x1F DUP5 PUSH1 0x0 PUSH1 0x40 DUP1 SWAP7 SWAP8 DUP7 ADD ADD MSTORE ADD AND ADD ADD SWAP1 JUMP JUMPDEST DUP2 DUP2 ADD DUP4 ADD MLOAD DUP5 DUP3 ADD PUSH1 0x40 ADD MSTORE DUP3 ADD PUSH2 0x1728 JUMP JUMPDEST PUSH1 0x4 CALLDATALOAD SWAP1 PUSH20 0xFFFFFFFFFFFFFFFFFFFFFFFFFFFFFFFFFFFFFFFF DUP3 AND DUP3 SUB PUSH2 0x179F JUMPI JUMP JUMPDEST PUSH1 0x0 DUP1 REVERT JUMPDEST PUSH1 0x24 CALLDATALOAD SWAP1 PUSH20 0xFFFFFFFFFFFFFFFFFFFFFFFFFFFFFFFFFFFFFFFF DUP3 AND DUP3 SUB PUSH2 0x179F JUMPI JUMP JUMPDEST SWAP1 PUSH1 0x1F PUSH32 0xFFFFFFFFFFFFFFFFFFFFFFFFFFFFFFFFFFFFFFFFFFFFFFFFFFFFFFFFFFFFFFE0 SWAP2 ADD AND DUP2 ADD SWAP1 DUP2 LT PUSH8 0xFFFFFFFFFFFFFFFF DUP3 GT OR PUSH2 0x1808 JUMPI PUSH1 0x40 MSTORE JUMP JUMPDEST PUSH32 0x4E487B7100000000000000000000000000000000000000000000000000000000 PUSH1 0x0 MSTORE PUSH1 0x41 PUSH1 0x4 MSTORE PUSH1 0x24 PUSH1 0x0 REVERT JUMPDEST PUSH8 0xFFFFFFFFFFFFFFFF DUP2 GT PUSH2 0x1808 JUMPI PUSH1 0x5 SHL PUSH1 0x20 ADD SWAP1 JUMP JUMPDEST SWAP1 PUSH1 0x0 DUP1 DUP1 MSTORE PUSH1 0x20 SWAP1 DUP4 DUP3 MSTORE PUSH1 0x40 SWAP1 DUP2 DUP2 KECCAK256 SLOAD DUP1 PUSH1 0xA0 SHR SWAP3 PUSH2 0x1870 DUP5 PUSH2 0x1837 JUMP JUMPDEST SWAP3 PUSH2 0x187D DUP3 MLOAD SWAP5 DUP6 PUSH2 0x17C7 JUMP JUMPDEST DUP5 DUP5 MSTORE PUSH2 0x1889 DUP6 PUSH2 0x1837 JUMP JUMPDEST SWAP8 PUSH32 0xFFFFFFFFFFFFFFFFFFFFFFFFFFFFFFFFFFFFFFFFFFFFFFFFFFFFFFFFFFFFFFE0 DUP8 DUP7 ADD SWAP10 ADD CALLDATASIZE DUP11 CALLDATACOPY DUP5 SWAP9 DUP6 MLOAD DUP8 GT PUSH2 0x194C JUMPI DUP7 PUSH2 0x18CD JUMPI JUMPDEST POP POP POP POP POP POP POP POP JUMP JUMPDEST DUP6 MLOAD ISZERO PUSH2 0x191F JUMPI PUSH20 0xFFFFFFFFFFFFFFFFFFFFFFFFFFFFFFFFFFFFFFFF DUP1 SWAP6 AND SWAP1 MSTORE PUSH1 0x1 SWAP7 DUP8 JUMPDEST DUP8 DUP2 LT PUSH2 0x1900 JUMPI POP PUSH2 0x18C3 JUMP JUMPDEST DUP1 DUP10 SWAP2 DUP6 MSTORE DUP4 DUP4 MSTORE DUP7 DUP7 DUP7 KECCAK256 SLOAD AND PUSH2 0x1918 DUP3 DUP11 PUSH2 0x1975 JUMP JUMPDEST MSTORE ADD PUSH2 0x18F3 JUMP JUMPDEST PUSH1 0x24 DUP4 PUSH32 0x4E487B7100000000000000000000000000000000000000000000000000000000 DUP2 MSTORE PUSH1 0x32 PUSH1 0x4 MSTORE REVERT JUMPDEST PUSH1 0x4 DUP5 MLOAD PUSH32 0xF9A99B2500000000000000000000000000000000000000000000000000000000 DUP2 MSTORE REVERT JUMPDEST DUP1 MLOAD DUP3 LT ISZERO PUSH2 0x1989 JUMPI PUSH1 0x20 SWAP2 PUSH1 0x5 SHL ADD ADD SWAP1 JUMP JUMPDEST PUSH32 0x4E487B7100000000000000000000000000000000000000000000000000000000 PUSH1 0x0 MSTORE PUSH1 0x32 PUSH1 0x4 MSTORE PUSH1 0x24 PUSH1 0x0 REVERT JUMPDEST PUSH1 0x2 PUSH1 0x5 SLOAD EQ PUSH2 0x19E9 JUMPI PUSH20 0xFFFFFFFFFFFFFFFFFFFFFFFFFFFFFFFFFFFFFFFF AND PUSH1 0x0 MSTORE PUSH1 0x0 PUSH1 0x20 MSTORE PUSH1 0x40 PUSH1 0x0 KECCAK256 SLOAD SWAP1 JUMP JUMPDEST PUSH1 0x4 PUSH1 0x40 MLOAD PUSH32 0x37ED32E800000000000000000000000000000000000000000000000000000000 DUP2 MSTORE REVERT JUMPDEST PUSH20 0xFFFFFFFFFFFFFFFFFFFFFFFFFFFFFFFFFFFFFFFF DUP1 SWAP3 AND SWAP1 PUSH1 0x0 SWAP3 DUP3 DUP5 MSTORE PUSH1 0x6 PUSH1 0x20 MSTORE PUSH1 0x1 PUSH1 0x40 DUP6 KECCAK256 ADD SWAP2 AND DUP4 MSTORE PUSH1 0x20 MSTORE PUSH1 0x40 DUP3 KECCAK256 SLOAD PUSH2 0x1A52 JUMPI POP SWAP1 JUMP JUMPDEST SWAP1 PUSH1 0x40 SWAP2 DUP2 MSTORE DUP1 PUSH1 0x20 MSTORE KECCAK256 SLOAD SWAP1 JUMP JUMPDEST SWAP1 PUSH20 0xFFFFFFFFFFFFFFFFFFFFFFFFFFFFFFFFFFFFFFFF PUSH1 0x1 DUP4 ADD SWAP2 AND PUSH1 0x0 SWAP3 DUP2 DUP5 MSTORE DUP3 PUSH1 0x20 MSTORE PUSH1 0x40 DUP5 KECCAK256 SLOAD PUSH2 0x1B24 JUMPI PUSH1 0x40 SWAP3 PUSH1 0x1 SWAP3 DUP6 DUP1 MSTORE DUP3 PUSH1 0x20 MSTORE DUP5 DUP7 KECCAK256 SWAP3 DUP4 SLOAD SWAP4 DUP5 PUSH1 0xA0 SHR SWAP5 DUP6 ISZERO PUSH1 0x0 EQ PUSH2 0x1AFC JUMPI POP POP DUP7 DUP1 MSTORE PUSH1 0x20 MSTORE PUSH21 0xFFFFFFFFFFFFFFFFFFFFFFFFFFFFFFFFFFFFFFFFFF DUP2 PUSH21 0x10000000000000000000000000000000000000000 ADD AND DUP6 DUP8 KECCAK256 SSTORE JUMPDEST DUP6 MSTORE PUSH1 0x20 MSTORE ADD SWAP2 KECCAK256 SSTORE PUSH1 0x1 SWAP1 JUMP JUMPDEST PUSH21 0x10000000000000000000000000000000000000000 ADD SWAP1 SSTORE POP DUP3 DUP7 MSTORE DUP5 DUP7 KECCAK256 DUP2 SWAP1 SSTORE PUSH2 0x1AEE JUMP JUMPDEST POP POP POP SWAP1 JUMP JUMPDEST SWAP1 PUSH1 0x1 DUP3 ADD PUSH20 0xFFFFFFFFFFFFFFFFFFFFFFFFFFFFFFFFFFFFFFFF DUP1 SWAP3 AND SWAP3 PUSH1 0x0 SWAP4 DUP1 DUP6 MSTORE PUSH1 0x20 SWAP2 DUP4 DUP4 MSTORE PUSH1 0x40 SWAP5 DUP6 DUP8 KECCAK256 SLOAD SWAP1 DUP2 ISZERO PUSH2 0x1CFE JUMPI PUSH2 0x1B79 DUP4 PUSH1 0x0 DUP1 MSTORE PUSH1 0x20 MSTORE PUSH1 0x40 PUSH1 0x0 KECCAK256 SLOAD PUSH1 0xA0 SHR SWAP1 JUMP JUMPDEST DUP3 LT PUSH2 0x1C33 JUMPI JUMPDEST POP POP DUP6 DUP1 MSTORE DUP1 DUP4 MSTORE DUP5 DUP7 KECCAK256 SLOAD SWAP1 DUP2 PUSH1 0xA0 SHR SWAP1 DUP2 ISZERO PUSH2 0x1C0A JUMPI SWAP1 PUSH1 0x1 SWAP2 PUSH32 0xFFFFFFFFFFFFFFFFFFFFFFFFFFFFFFFFFFFFFFFFFFFFFFFFFFFFFFFFFFFFFFFF DUP3 ADD DUP10 MSTORE DUP6 MSTORE DUP8 DUP8 DUP2 KECCAK256 SSTORE GT PUSH2 0x1BDA JUMPI JUMPDEST POP DUP5 MSTORE MSTORE DUP2 KECCAK256 SSTORE PUSH1 0x1 SWAP1 JUMP JUMPDEST PUSH32 0xFFFFFFFFFFFFFFFFFFFFFFFF0000000000000000000000000000000000000000 SWAP1 DUP7 DUP1 MSTORE ADD DUP5 DUP7 KECCAK256 SSTORE CODESIZE PUSH2 0x1BCE JUMP JUMPDEST PUSH1 0x4 DUP8 MLOAD PUSH32 0x6A2AF9E00000000000000000000000000000000000000000000000000000000 DUP2 MSTORE REVERT JUMPDEST PUSH32 0xFFFFFFFFFFFFFFFFFFFFFFFFFFFFFFFFFFFFFFFFFFFFFFFFFFFFFFFFFFFFFFFF SWAP1 DUP2 PUSH2 0x1C6D DUP6 PUSH1 0x0 DUP1 MSTORE PUSH1 0x20 MSTORE PUSH1 0x40 PUSH1 0x0 KECCAK256 SLOAD PUSH1 0xA0 SHR SWAP1 JUMP JUMPDEST ADD DUP10 MSTORE DUP4 DUP7 MSTORE DUP8 DUP10 KECCAK256 SLOAD AND SWAP1 DUP3 ADD PUSH2 0x1C92 DUP5 PUSH1 0x0 DUP1 MSTORE PUSH1 0x20 MSTORE PUSH1 0x40 PUSH1 0x0 KECCAK256 SLOAD PUSH1 0xA0 SHR SWAP1 JUMP JUMPDEST SWAP1 DUP2 DUP2 LT ISZERO PUSH2 0x1CD5 JUMPI DUP3 SWAP2 SWAP1 DUP1 PUSH2 0x1CC3 JUMPI POP DUP10 DUP1 MSTORE DUP5 DUP8 MSTORE PUSH1 0xA0 SHL OR DUP8 DUP10 KECCAK256 SSTORE JUMPDEST DUP8 MSTORE DUP5 DUP5 MSTORE DUP6 DUP8 KECCAK256 SSTORE CODESIZE DUP1 PUSH2 0x1B80 JUMP JUMPDEST SWAP2 POP POP DUP9 MSTORE DUP3 DUP6 MSTORE DUP1 DUP8 DUP10 KECCAK256 SSTORE PUSH2 0x1CB3 JUMP JUMPDEST PUSH1 0x4 DUP10 MLOAD PUSH32 0x4E23D03500000000000000000000000000000000000000000000000000000000 DUP2 MSTORE REVERT JUMPDEST POP POP POP POP POP POP POP SWAP1 JUMP JUMPDEST SWAP2 SWAP1 SWAP2 PUSH32 0x0 SWAP2 PUSH1 0x40 MLOAD SWAP4 PUSH32 0x7A1F1AA900000000000000000000000000000000000000000000000000000000 DUP6 MSTORE PUSH1 0x0 PUSH1 0x4 DUP7 ADD MSTORE PUSH1 0x24 DUP6 ADD MSTORE PUSH1 0x44 DUP5 ADD MSTORE PUSH1 0x0 DUP1 PUSH1 0x64 DUP6 DUP3 GAS SWAP6 DUP8 CALL ISZERO PUSH2 0x1D7A JUMPI POP POP POP JUMP JUMPDEST PUSH1 0x3F MUL PUSH1 0x6 SHR LT PUSH2 0x1D88 JUMPI POP JUMP JUMPDEST RETURNDATASIZE PUSH1 0x0 DUP3 RETURNDATACOPY RETURNDATASIZE SWAP1 REVERT JUMPDEST SWAP1 PUSH32 0x0 PUSH1 0x40 MLOAD SWAP3 PUSH32 0x7A1F1AA900000000000000000000000000000000000000000000000000000000 DUP5 MSTORE PUSH1 0x0 SWAP3 DUP4 PUSH1 0x4 DUP7 ADD MSTORE DUP4 PUSH1 0x24 DUP7 ADD MSTORE PUSH1 0x44 DUP6 ADD MSTORE DUP3 DUP1 PUSH1 0x64 DUP7 DUP3 GAS SWAP6 DUP8 CALL ISZERO PUSH2 0x1E04 JUMPI JUMPDEST POP POP POP POP JUMP JUMPDEST PUSH1 0x3F MUL PUSH1 0x6 SHR LT PUSH2 0x1E16 JUMPI DUP1 DUP1 PUSH2 0x1DFE JUMP JUMPDEST RETURNDATASIZE SWAP1 DUP3 RETURNDATACOPY RETURNDATASIZE SWAP1 REVERT JUMPDEST SWAP2 SWAP1 SWAP2 PUSH32 0x0 SWAP2 PUSH1 0x40 MLOAD SWAP4 PUSH32 0x7A1F1AA900000000000000000000000000000000000000000000000000000000 DUP6 MSTORE PUSH1 0x4 DUP6 ADD MSTORE PUSH1 0x0 PUSH1 0x24 DUP6 ADD MSTORE PUSH1 0x44 DUP5 ADD MSTORE PUSH1 0x0 DUP1 PUSH1 0x64 DUP6 DUP3 GAS SWAP6 DUP8 CALL ISZERO PUSH2 0x1D7A JUMPI POP POP POP JUMP JUMPDEST SWAP2 SWAP1 DUP3 ADD DUP1 SWAP3 GT PUSH2 0x1E9D JUMPI JUMP JUMPDEST PUSH32 0x4E487B7100000000000000000000000000000000000000000000000000000000 PUSH1 0x0 MSTORE PUSH1 0x11 PUSH1 0x4 MSTORE PUSH1 0x24 PUSH1 0x0 REVERT JUMPDEST SWAP2 PUSH20 0xFFFFFFFFFFFFFFFFFFFFFFFFFFFFFFFFFFFFFFFF DUP1 DUP5 AND DUP1 ISZERO PUSH2 0x2265 JUMPI DUP2 DUP5 AND SWAP5 DUP6 ISZERO PUSH2 0x21E1 JUMPI PUSH1 0x0 SWAP1 DUP3 DUP3 MSTORE PUSH1 0x20 SWAP3 DUP3 DUP5 MSTORE PUSH1 0x40 SWAP4 DUP5 DUP5 KECCAK256 SLOAD DUP8 DUP2 LT PUSH2 0x215E JUMPI DUP8 SWAP1 DUP4 DUP7 MSTORE DUP6 DUP4 MSTORE SUB DUP6 DUP6 KECCAK256 SSTORE DUP9 DUP5 MSTORE DUP5 DUP5 KECCAK256 DUP8 DUP2 SLOAD ADD SWAP1 SSTORE DUP9 DUP3 PUSH32 0xDDF252AD1BE2C89B69C2B068FC378DAA952BA7F163C4A11628F55A4DF523B3EF DUP4 DUP9 MLOAD DUP12 DUP2 MSTORE LOG3 PUSH1 0x2 PUSH1 0x5 SLOAD EQ PUSH2 0x2135 JUMPI PUSH1 0x2 PUSH1 0x5 SSTORE DUP7 ISZERO ISZERO DUP1 PUSH2 0x212B JUMPI JUMPDEST PUSH2 0x1F7F JUMPI JUMPDEST POP POP POP POP POP POP POP POP POP PUSH1 0x1 PUSH1 0x5 SSTORE JUMP JUMPDEST PUSH1 0x6 SWAP2 DUP5 MSTORE DUP2 DUP2 MSTORE PUSH2 0x1F92 DUP6 DUP6 KECCAK256 PUSH2 0x184F JUMP JUMPDEST SWAP9 DUP5 MSTORE MSTORE PUSH2 0x1FA1 DUP4 DUP4 KECCAK256 PUSH2 0x184F JUMP JUMPDEST SWAP3 DUP8 MLOAD SWAP2 DUP5 MLOAD SWAP9 DUP5 JUMPDEST DUP5 DUP2 LT PUSH2 0x1FF8 JUMPI POP POP POP POP POP JUMPDEST DUP6 DUP2 LT PUSH2 0x1FC6 JUMPI DUP1 DUP1 DUP1 PUSH2 0x1F6F JUMP JUMPDEST DUP1 DUP4 PUSH2 0x1FD4 PUSH1 0x1 SWAP4 DUP6 PUSH2 0x1975 JUMP JUMPDEST MLOAD AND DUP6 DUP8 DUP3 PUSH2 0x1FE7 JUMPI JUMPDEST POP POP POP ADD PUSH2 0x1FB7 JUMP JUMPDEST PUSH2 0x1FF0 SWAP3 PUSH2 0x1D08 JUMP JUMPDEST CODESIZE DUP6 DUP8 PUSH2 0x1FDE JUMP JUMPDEST DUP1 DUP11 DUP11 DUP6 DUP15 DUP13 DUP12 DUP2 PUSH2 0x200B DUP16 SWAP10 DUP12 PUSH2 0x1975 JUMP JUMPDEST MLOAD AND SWAP6 DUP2 SWAP3 JUMPDEST DUP5 DUP5 LT PUSH2 0x2040 JUMPI JUMPDEST POP POP POP PUSH1 0x1 SWAP7 POP EQ PUSH2 0x202F JUMPI JUMPDEST POP POP POP ADD PUSH2 0x1FAA JUMP JUMPDEST PUSH2 0x2038 SWAP3 PUSH2 0x1E1E JUMP JUMPDEST CODESIZE DUP11 DUP6 PUSH2 0x2026 JUMP JUMPDEST PUSH2 0x204F DUP5 DUP12 SWAP9 SWAP8 SWAP7 SWAP6 SWAP9 PUSH2 0x1975 JUMP JUMPDEST MLOAD AND DUP8 EQ PUSH2 0x2073 JUMPI POP POP POP POP POP PUSH1 0x1 SWAP2 SWAP3 SWAP4 POP ADD SWAP1 DUP11 DUP6 DUP15 DUP12 SWAP6 SWAP5 DUP16 DUP13 SWAP1 DUP16 PUSH2 0x2011 JUMP JUMPDEST SWAP5 SWAP2 SWAP3 SWAP4 SWAP5 PUSH32 0x0 DUP13 MLOAD SWAP2 PUSH32 0x7A1F1AA900000000000000000000000000000000000000000000000000000000 DUP4 MSTORE DUP7 PUSH1 0x4 DUP5 ADD MSTORE PUSH1 0x24 DUP4 ADD MSTORE DUP7 PUSH1 0x44 DUP4 ADD MSTORE GAS DUP4 DUP1 PUSH1 0x64 DUP6 DUP3 DUP14 DUP8 CALL ISZERO PUSH2 0x20FC JUMPI JUMPDEST POP POP POP PUSH2 0x20EF DUP3 PUSH1 0x1 SWAP10 PUSH2 0x1975 JUMP JUMPDEST MSTORE DUP16 DUP14 SWAP8 POP DUP13 SWAP1 DUP16 PUSH2 0x2019 JUMP JUMPDEST SWAP4 SWAP8 SWAP9 SWAP10 POP SWAP5 POP SWAP5 POP POP PUSH1 0x3F SWAP2 POP MUL PUSH1 0x6 SHR LT PUSH2 0x2123 JUMPI DUP6 DUP15 DUP12 SWAP6 SWAP5 SWAP4 DUP12 DUP16 SWAP5 DUP1 DUP1 PUSH2 0x20E0 JUMP JUMPDEST RETURNDATASIZE DUP10 DUP3 RETURNDATACOPY RETURNDATASIZE SWAP1 REVERT JUMPDEST POP DUP9 DUP3 EQ ISZERO PUSH2 0x1F6A JUMP JUMPDEST PUSH1 0x4 DUP6 MLOAD PUSH32 0x37ED32E800000000000000000000000000000000000000000000000000000000 DUP2 MSTORE REVERT JUMPDEST PUSH1 0x84 DUP3 DUP8 MLOAD SWAP1 PUSH32 0x8C379A000000000000000000000000000000000000000000000000000000000 DUP3 MSTORE PUSH1 0x4 DUP3 ADD MSTORE PUSH1 0x26 PUSH1 0x24 DUP3 ADD MSTORE PUSH32 0x45524332303A207472616E7366657220616D6F756E7420657863656564732062 PUSH1 0x44 DUP3 ADD MSTORE PUSH32 0x616C616E63650000000000000000000000000000000000000000000000000000 PUSH1 0x64 DUP3 ADD MSTORE REVERT JUMPDEST PUSH1 0x84 PUSH1 0x40 MLOAD PUSH32 0x8C379A000000000000000000000000000000000000000000000000000000000 DUP2 MSTORE PUSH1 0x20 PUSH1 0x4 DUP3 ADD MSTORE PUSH1 0x23 PUSH1 0x24 DUP3 ADD MSTORE PUSH32 0x45524332303A207472616E7366657220746F20746865207A65726F2061646472 PUSH1 0x44 DUP3 ADD MSTORE PUSH32 0x6573730000000000000000000000000000000000000000000000000000000000 PUSH1 0x64 DUP3 ADD MSTORE REVERT JUMPDEST PUSH1 0x84 PUSH1 0x40 MLOAD PUSH32 0x8C379A000000000000000000000000000000000000000000000000000000000 DUP2 MSTORE PUSH1 0x20 PUSH1 0x4 DUP3 ADD MSTORE PUSH1 0x25 PUSH1 0x24 DUP3 ADD MSTORE PUSH32 0x45524332303A207472616E736665722066726F6D20746865207A65726F206164 PUSH1 0x44 DUP3 ADD MSTORE PUSH32 0x6472657373000000000000000000000000000000000000000000000000000000 PUSH1 0x64 DUP3 ADD MSTORE REVERT JUMPDEST PUSH20 0xFFFFFFFFFFFFFFFFFFFFFFFFFFFFFFFFFFFFFFFF DUP1 SWAP2 AND SWAP2 DUP3 ISZERO PUSH2 0x23DB JUMPI AND SWAP2 DUP3 ISZERO PUSH2 0x2357 JUMPI PUSH1 0x20 PUSH32 0x8C5BE1E5EBEC7D5BD14F71427D1E84F3DD0314C0F7B2291E5B200AC8C7C3B925 SWAP2 DUP4 PUSH1 0x0 MSTORE PUSH1 0x1 DUP3 MSTORE PUSH1 0x40 PUSH1 0x0 KECCAK256 DUP6 PUSH1 0x0 MSTORE DUP3 MSTORE DUP1 PUSH1 0x40 PUSH1 0x0 KECCAK256 SSTORE PUSH1 0x40 MLOAD SWAP1 DUP2 MSTORE LOG3 JUMP JUMPDEST PUSH1 0x84 PUSH1 0x40 MLOAD PUSH32 0x8C379A000000000000000000000000000000000000000000000000000000000 DUP2 MSTORE PUSH1 0x20 PUSH1 0x4 DUP3 ADD MSTORE PUSH1 0x22 PUSH1 0x24 DUP3 ADD MSTORE PUSH32 0x45524332303A20617070726F766520746F20746865207A65726F206164647265 PUSH1 0x44 DUP3 ADD MSTORE PUSH32 0x7373000000000000000000000000000000000000000000000000000000000000 PUSH1 0x64 DUP3 ADD MSTORE REVERT JUMPDEST PUSH1 0x84 PUSH1 0x40 MLOAD PUSH32 0x8C379A000000000000000000000000000000000000000000000000000000000 DUP2 MSTORE PUSH1 0x20 PUSH1 0x4 DUP3 ADD MSTORE PUSH1 0x24 DUP1 DUP3 ADD MSTORE PUSH32 0x45524332303A20617070726F76652066726F6D20746865207A65726F20616464 PUSH1 0x44 DUP3 ADD MSTORE PUSH32 0x7265737300000000000000000000000000000000000000000000000000000000 PUSH1 0x64 DUP3 ADD MSTORE REVERT JUMPDEST SWAP2 SWAP1 SWAP2 PUSH1 0x0 DUP4 DUP3 ADD SWAP4 DUP5 SLT SWAP2 SLT SWAP1 DUP1 ISZERO DUP3 AND SWAP2 ISZERO AND OR PUSH2 0x1E9D JUMPI JUMP INVALID LOG2 PUSH5 0x6970667358 0x22 SLT KECCAK256 0xBC 0xE2 SDIV 0x29 SELFBALANCE 0xD4 0xDE PUSH16 0xE314A9F9AF64550C3505D1239AD057B2 0xAD 0xC7 0xA5 0xA5 0xE SHR 0x1F KECCAK256 PUSH5 0x736F6C6343 STOP ADDMOD EQ STOP CALLER "},"methodIdentifiers":{"addPlugin(address)":"d8867fc8","allowance(address,address)":"dd62ed3e","approve(address,uint256)":"095ea7b3","balanceOf(address)":"70a08231","burn(address,uint256)":"9dc29fac","decimals()":"313ce567","decreaseAllowance(address,uint256)":"a457c2d7","getTokenAPY(address)":"7ef76c44","getTokenAYP()":"28ad0db7","getTokenSupply()":"ad974f4c","hasPlugin(address,address)":"ed6edc82","increaseAllowance(address,uint256)":"39509351","maxPluginsPerAccount()":"236d8835","mint(address,uint256)":"40c10f19","name()":"06fdde03","pluginAt(address,uint256)":"1945f729","pluginBalanceOf(address,address)":"c1255635","pluginCallGasLimit()":"b2be2d58","plugins(address)":"4b12e643","pluginsCount(address)":"61728134","removeAllPlugins()":"8b822d88","removePlugin(address)":"a4d95b64","symbol()":"95d89b41","tokens(address)":"e4860339","totalSupply()":"18160ddd","transfer(address,uint256)":"a9059cbb","transferFrom(address,address,uint256)":"23b872dd","updateTokenAYP(int256)":"ceca812f","updateTokenSupply(int256)":"bb71fca5"}}}}}