{"contracts/libs/AYPCalc.sol":{"AYPCalc":{"abi":[{"inputs":[{"internalType":"int256","name":"fromAsset","type":"int256"},{"internalType":"int256","name":"toAsset","type":"int256"}],"name":"calculateAYP","outputs":[{"internalType":"int256","name":"","type":"int256"}],"stateMutability":"pure","type":"function"}],"evm":{"bytecode":{"linkReferences":{},"object":"6080806040523461001a576102229081610020823930815050f35b600080fdfe60808060405260048036101561001457600080fd5b6000803560e01c631a502de91461002a57600080fd5b60407ffffffffffffffffffffffffffffffffffffffffffffffffffffffffffffffffc3601126101e95781356024938435821591821561019057508015610165576305f5e100059061013a577fffffffffffffffffffffffffffffffffffffffffffffffffffffffffffffffff82147f800000000000000000000000000000000000000000000000000000000000000082141661010f5705916064830292808405606414901517156100e457602083606460405191058152f35b8192507f4e487b71000000000000000000000000000000000000000000000000000000006011925252fd5b84836011867f4e487b7100000000000000000000000000000000000000000000000000000000835252fd5b84836012867f4e487b7100000000000000000000000000000000000000000000000000000000835252fd5b85846012877f4e487b7100000000000000000000000000000000000000000000000000000000835252fd5b8060208881897f08c379a000000000000000000000000000000000000000000000000000000000606496528401528201527f41595043616c633a204d756c7469706c69636174696f6e206f766572666c6f776044820152fd5b80fdfea2646970667358221220dcf716ab4c4fb23c8f21e73ca0551cff64fe2cfda5f9ec71a98c755bf0acd0b164736f6c63430008140033","opcodes":"PUSH1 0x80 DUP1 PUSH1 0x40 MSTORE CALLVALUE PUSH2 0x1A JUMPI PUSH2 0x222 SWAP1 DUP2 PUSH2 0x20 DUP3 CODECOPY ADDRESS DUP2 POP POP RETURN JUMPDEST PUSH1 0x0 DUP1 REVERT INVALID PUSH1 0x80 DUP1 PUSH1 0x40 MSTORE PUSH1 0x4 DUP1 CALLDATASIZE LT ISZERO PUSH2 0x14 JUMPI PUSH1 0x0 DUP1 REVERT JUMPDEST PUSH1 0x0 DUP1 CALLDATALOAD PUSH1 0xE0 SHR PUSH4 0x1A502DE9 EQ PUSH2 0x2A JUMPI PUSH1 0x0 DUP1 REVERT JUMPDEST PUSH1 0x40 PUSH32 0xFFFFFFFFFFFFFFFFFFFFFFFFFFFFFFFFFFFFFFFFFFFFFFFFFFFFFFFFFFFFFFFC CALLDATASIZE ADD SLT PUSH2 0x1E9 JUMPI DUP2 CALLDATALOAD PUSH1 0x24 SWAP4 DUP5 CALLDATALOAD DUP3 ISZERO SWAP2 DUP3 ISZERO PUSH2 0x190 JUMPI POP DUP1 ISZERO PUSH2 0x165 JUMPI PUSH4 0x5F5E100 SDIV SWAP1 PUSH2 0x13A JUMPI PUSH32 0xFFFFFFFFFFFFFFFFFFFFFFFFFFFFFFFFFFFFFFFFFFFFFFFFFFFFFFFFFFFFFFFF DUP3 EQ PUSH32 0x8000000000000000000000000000000000000000000000000000000000000000 DUP3 EQ AND PUSH2 0x10F JUMPI SDIV SWAP2 PUSH1 0x64 DUP4 MUL SWAP3 DUP1 DUP5 SDIV PUSH1 0x64 EQ SWAP1 ISZERO OR ISZERO PUSH2 0xE4 JUMPI PUSH1 0x20 DUP4 PUSH1 0x64 PUSH1 0x40 MLOAD SWAP2 SDIV DUP2 MSTORE RETURN JUMPDEST DUP2 SWAP3 POP PUSH32 0x4E487B7100000000000000000000000000000000000000000000000000000000 PUSH1 0x11 SWAP3 MSTORE MSTORE REVERT JUMPDEST DUP5 DUP4 PUSH1 0x11 DUP7 PUSH32 0x4E487B7100000000000000000000000000000000000000000000000000000000 DUP4 MSTORE MSTORE REVERT JUMPDEST DUP5 DUP4 PUSH1 0x12 DUP7 PUSH32 0x4E487B7100000000000000000000000000000000000000000000000000000000 DUP4 MSTORE MSTORE REVERT JUMPDEST DUP6 DUP5 PUSH1 0x12 DUP8 PUSH32 0x4E487B7100000000000000000000000000000000000000000000000000000000 DUP4 MSTORE MSTORE REVERT JUMPDEST DUP1 PUSH1 0x20 DUP9 DUP2 DUP10 PUSH32 0x8C379A000000000000000000000000000000000000000000000000000000000 PUSH1 0x64 SWAP7 MSTORE DUP5 ADD MSTORE DUP3 ADD MSTORE PUSH32 0x41595043616C633A204D756C7469706C69636174696F6E206F766572666C6F77 PUSH1 0x44 DUP3 ADD MSTORE REVERT JUMPDEST DUP1 REVERT INVALID LOG2 PUSH5 0x6970667358 0x22 SLT KECCAK256 0xDC 0xF7 AND 0xAB 0x4C 0x4F 0xB2 EXTCODECOPY DUP16 0x21 0xE7 EXTCODECOPY LOG0 SSTORE SHR SELFDESTRUCT PUSH5 0xFE2CFDA5F9 0xEC PUSH18 0xA98C755BF0ACD0B164736F6C634300081400 CALLER "},"methodIdentifiers":{"calculateAYP(int256,int256)":"1a502de9"}}}}}