{"contracts/WETH.sol":{"WETH":{"abi":[{"inputs":[{"internalType":"string","name":"name_","type":"string"},{"internalType":"string","name":"symbol_","type":"string"},{"internalType":"uint256","name":"maxUserPlugins_","type":"uint256"},{"internalType":"uint256","name":"pluginCallGasLimit_","type":"uint256"}],"stateMutability":"nonpayable","type":"constructor"},{"inputs":[],"name":"IndexOutOfBounds","type":"error"},{"inputs":[],"name":"InvalidPluginAddress","type":"error"},{"inputs":[],"name":"InvalidTokenInPlugin","type":"error"},{"inputs":[],"name":"OutputArrayTooSmall","type":"error"},{"inputs":[],"name":"PluginAlreadyAdded","type":"error"},{"inputs":[],"name":"PluginNotFound","type":"error"},{"inputs":[],"name":"PluginsLimitReachedForAccount","type":"error"},{"inputs":[],"name":"PopFromEmptyArray","type":"error"},{"inputs":[],"name":"ReentrantCall","type":"error"},{"inputs":[],"name":"ZeroPluginsLimit","type":"error"},{"anonymous":false,"inputs":[{"indexed":true,"internalType":"address","name":"owner","type":"address"},{"indexed":true,"internalType":"address","name":"spender","type":"address"},{"indexed":false,"internalType":"uint256","name":"value","type":"uint256"}],"name":"Approval","type":"event"},{"anonymous":false,"inputs":[{"indexed":false,"internalType":"address","name":"account","type":"address"},{"indexed":false,"internalType":"address","name":"plugin","type":"address"}],"name":"PluginAdded","type":"event"},{"anonymous":false,"inputs":[{"indexed":false,"internalType":"address","name":"account","type":"address"},{"indexed":false,"internalType":"address","name":"plugin","type":"address"}],"name":"PluginRemoved","type":"event"},{"anonymous":false,"inputs":[{"indexed":true,"internalType":"address","name":"from","type":"address"},{"indexed":true,"internalType":"address","name":"to","type":"address"},{"indexed":false,"internalType":"uint256","name":"value","type":"uint256"}],"name":"Transfer","type":"event"},{"inputs":[{"internalType":"address","name":"plugin","type":"address"}],"name":"addPlugin","outputs":[],"stateMutability":"nonpayable","type":"function"},{"inputs":[{"internalType":"address","name":"owner","type":"address"},{"internalType":"address","name":"spender","type":"address"}],"name":"allowance","outputs":[{"internalType":"uint256","name":"","type":"uint256"}],"stateMutability":"view","type":"function"},{"inputs":[{"internalType":"address","name":"spender","type":"address"},{"internalType":"uint256","name":"amount","type":"uint256"}],"name":"approve","outputs":[{"internalType":"bool","name":"","type":"bool"}],"stateMutability":"nonpayable","type":"function"},{"inputs":[{"internalType":"address","name":"account","type":"address"}],"name":"balanceOf","outputs":[{"internalType":"uint256","name":"","type":"uint256"}],"stateMutability":"view","type":"function"},{"inputs":[{"internalType":"address","name":"account","type":"address"},{"internalType":"uint256","name":"amount","type":"uint256"}],"name":"burn","outputs":[],"stateMutability":"nonpayable","type":"function"},{"inputs":[],"name":"decimals","outputs":[{"internalType":"uint8","name":"","type":"uint8"}],"stateMutability":"view","type":"function"},{"inputs":[{"internalType":"address","name":"spender","type":"address"},{"internalType":"uint256","name":"subtractedValue","type":"uint256"}],"name":"decreaseAllowance","outputs":[{"internalType":"bool","name":"","type":"bool"}],"stateMutability":"nonpayable","type":"function"},{"inputs":[],"name":"getTokenAYP","outputs":[{"internalType":"int256","name":"","type":"int256"}],"stateMutability":"view","type":"function"},{"inputs":[],"name":"getTokenSupply","outputs":[{"internalType":"int256","name":"","type":"int256"}],"stateMutability":"view","type":"function"},{"inputs":[{"internalType":"address","name":"account","type":"address"},{"internalType":"address","name":"plugin","type":"address"}],"name":"hasPlugin","outputs":[{"internalType":"bool","name":"","type":"bool"}],"stateMutability":"view","type":"function"},{"inputs":[{"internalType":"address","name":"spender","type":"address"},{"internalType":"uint256","name":"addedValue","type":"uint256"}],"name":"increaseAllowance","outputs":[{"internalType":"bool","name":"","type":"bool"}],"stateMutability":"nonpayable","type":"function"},{"inputs":[],"name":"maxPluginsPerAccount","outputs":[{"internalType":"uint256","name":"","type":"uint256"}],"stateMutability":"view","type":"function"},{"inputs":[{"internalType":"address","name":"account","type":"address"},{"internalType":"uint256","name":"amount","type":"uint256"}],"name":"mint","outputs":[],"stateMutability":"nonpayable","type":"function"},{"inputs":[],"name":"name","outputs":[{"internalType":"string","name":"","type":"string"}],"stateMutability":"view","type":"function"},{"inputs":[{"internalType":"address","name":"account","type":"address"},{"internalType":"uint256","name":"index","type":"uint256"}],"name":"pluginAt","outputs":[{"internalType":"address","name":"","type":"address"}],"stateMutability":"view","type":"function"},{"inputs":[{"internalType":"address","name":"plugin","type":"address"},{"internalType":"address","name":"account","type":"address"}],"name":"pluginBalanceOf","outputs":[{"internalType":"uint256","name":"","type":"uint256"}],"stateMutability":"view","type":"function"},{"inputs":[],"name":"pluginCallGasLimit","outputs":[{"internalType":"uint256","name":"","type":"uint256"}],"stateMutability":"view","type":"function"},{"inputs":[{"internalType":"address","name":"account","type":"address"}],"name":"plugins","outputs":[{"internalType":"address[]","name":"","type":"address[]"}],"stateMutability":"view","type":"function"},{"inputs":[{"internalType":"address","name":"account","type":"address"}],"name":"pluginsCount","outputs":[{"internalType":"uint256","name":"","type":"uint256"}],"stateMutability":"view","type":"function"},{"inputs":[],"name":"removeAllPlugins","outputs":[],"stateMutability":"nonpayable","type":"function"},{"inputs":[{"internalType":"address","name":"plugin","type":"address"}],"name":"removePlugin","outputs":[],"stateMutability":"nonpayable","type":"function"},{"inputs":[],"name":"symbol","outputs":[{"internalType":"string","name":"","type":"string"}],"stateMutability":"view","type":"function"},{"inputs":[],"name":"totalSupply","outputs":[{"internalType":"uint256","name":"","type":"uint256"}],"stateMutability":"view","type":"function"},{"inputs":[{"internalType":"address","name":"to","type":"address"},{"internalType":"uint256","name":"amount","type":"uint256"}],"name":"transfer","outputs":[{"internalType":"bool","name":"","type":"bool"}],"stateMutability":"nonpayable","type":"function"},{"inputs":[{"internalType":"address","name":"from","type":"address"},{"internalType":"address","name":"to","type":"address"},{"internalType":"uint256","name":"amount","type":"uint256"}],"name":"transferFrom","outputs":[{"internalType":"bool","name":"","type":"bool"}],"stateMutability":"nonpayable","type":"function"},{"inputs":[{"internalType":"int256","name":"newAYP","type":"int256"}],"name":"updateTokenAYP","outputs":[],"stateMutability":"nonpayable","type":"function"},{"inputs":[{"internalType":"int256","name":"change","type":"int256"}],"name":"updateTokenSupply","outputs":[],"stateMutability":"nonpayable","type":"function"}],"evm":{"bytecode":{"linkReferences":{},"object":"60c0604052346200038e57620027e6803803806200001d8162000393565b92833981016080828203126200038e5781516001600160401b03908181116200038e57826200004e918501620003b9565b9260209283820151908382116200038e576200006c918301620003b9565b606060408301519201519285518181116200028e576003908154906001988983811c9316801562000383575b898410146200036d578190601f9384811162000317575b508990848311600114620002b057600092620002a4575b505060001982851b1c191690891b1782555b83519283116200028e576004938454978989811c9916801562000283575b818a10146200026e5782891162000222575b84959697985080928511600114620001b45750600093620001a8575b505082871b92600019911b1c19161781555b811562000199575060805260a052600555600a6007556305f5e1006008556040516123ba90816200042c823960805181818161031701526113c4015260a0518181816105da01528181611c1701528181611c9e01528181611d2d0152611f840152f35b60405163cdaf747b60e01b8152fd5b01519150388062000124565b929190899550601f1985168760005284600020946000905b828210620002085750508511620001ed575b50505050811b01815562000136565b01519060f884600019921b161c1916905538808080620001de565b8484015187558c98909601959384019390810190620001cc565b856000528060002083860160051c81019982871062000263575b840160051c01988a905b8a81106200025657505062000108565b60008155018a9062000246565b90995089906200023c565b602286634e487b7160e01b6000525260246000fd5b98607f1698620000f6565b634e487b7160e01b600052604160045260246000fd5b015190503880620000c6565b908b9350601f19831691866000528b6000209260005b8d828210620003005750508411620002e7575b505050811b018255620000d8565b015160001983871b60f8161c19169055388080620002d9565b8385015186558f97909501949384019301620002c6565b90915084600052896000208480850160051c8201928c861062000363575b918d91869594930160051c01915b82811062000353575050620000af565b600081558594508d910162000343565b9250819262000335565b634e487b7160e01b600052602260045260246000fd5b92607f169262000098565b600080fd5b6040519190601f01601f191682016001600160401b038111838210176200028e57604052565b919080601f840112156200038e5782516001600160401b0381116200028e57602090620003ef601f8201601f1916830162000393565b928184528282870101116200038e5760005b8181106200041757508260009394955001015290565b85810183015184820184015282016200040156fe608060408181526004918236101561001657600080fd5b600092833560e01c91826306fdde03146114da57508163095ea7b31461149257816318160ddd146114555781631945f729146113e7578163236d88351461138e57816323b872dd1461126057816328ad0db714611223578163313ce567146111e9578163395093511461116f57816340c10f1914610f425781634b12e64314610ea45781636172813414610e3457816370a0823114610df05781638b822d8814610ccb57816395d89b4114610b735781639dc29fac1461086b578163a457c2d714610768578163a4d95b6414610689578163a9059cbb1461063a578163ad974f4c146105fd578163b2be2d58146105a4578163bb71fca514610560578163c1255635146104d6578163ceca812f14610492578163d8867fc81461023c57508063dd62ed3e146101c95763ed6edc821461014e57600080fd5b346101c557807ffffffffffffffffffffffffffffffffffffffffffffffffffffffffffffffffc3601126101c55780602092610188611686565b6101906116ae565b73ffffffffffffffffffffffffffffffffffffffff918216835260068652838320911682526001018452205490519015158152f35b5080fd5b50346101c557807ffffffffffffffffffffffffffffffffffffffffffffffffffffffffffffffffc3601126101c55780602092610204611686565b61020c6116ae565b73ffffffffffffffffffffffffffffffffffffffff91821683526001865283832091168252845220549051908152f35b9190503461048e57602091827ffffffffffffffffffffffffffffffffffffffffffffffffffffffffffffffffc36011261048a57610278611686565b9273ffffffffffffffffffffffffffffffffffffffff808516801561046257908284928651938480927ffc0c546a0000000000000000000000000000000000000000000000000000000082525afa91821561045857879261041c575b50309116036103f457338552600681526102f08484872061196b565b156103cc57600690338652526103158285206000805260205260406000205460a01c90565b7f0000000000000000000000000000000000000000000000000000000000000000106103a557505133815273ffffffffffffffffffffffffffffffffffffffff821660208201527f68aafb7a848a8e6e0e8fe992de5812474789ddec166ce06be4de83b3aaa2864e90604090a161038b336118c2565b80610394578280f35b61039f913390611c12565b38808280f35b90517f2846f78a000000000000000000000000000000000000000000000000000000008152fd5b5090517ffce323d6000000000000000000000000000000000000000000000000000000008152fd5b5090517f5940fcc8000000000000000000000000000000000000000000000000000000008152fd5b9091508281813d8311610451575b61043481836116d1565b8101031261044d5751818116810361044d5790386102d4565b8680fd5b503d61042a565b85513d89823e3d90fd5b8385517f4c6ea03c000000000000000000000000000000000000000000000000000000008152fd5b8380fd5b8280fd5b8390346101c55760207ffffffffffffffffffffffffffffffffffffffffffffffffffffffffffffffffc3601126101c5576104d09035600754612368565b60075580f35b82843461055d57817ffffffffffffffffffffffffffffffffffffffffffffffffffffffffffffffffc36011261055d575061050f611686565b6105176116ae565b92600260055414610536575060209261052f9161191d565b9051908152f35b82517f37ed32e8000000000000000000000000000000000000000000000000000000008152fd5b80fd5b8390346101c55760207ffffffffffffffffffffffffffffffffffffffffffffffffffffffffffffffffc3601126101c55761059e9035600854612368565b60085580f35b5050346101c557817ffffffffffffffffffffffffffffffffffffffffffffffffffffffffffffffffc3601126101c557602090517f00000000000000000000000000000000000000000000000000000000000000008152f35b5050346101c557817ffffffffffffffffffffffffffffffffffffffffffffffffffffffffffffffffc3601126101c5576020906008549051908152f35b5050346101c557807ffffffffffffffffffffffffffffffffffffffffffffffffffffffffffffffffc3601126101c557602090610682610678611686565b6024359033611dd6565b5160018152f35b9190503461048e5760207ffffffffffffffffffffffffffffffffffffffffffffffffffffffffffffffffc36011261048e576106c3611686565b9133845260066020526106d883838620611a34565b1561074157505133815273ffffffffffffffffffffffffffffffffffffffff821660208201527f550ef13f654f6fc7054e7c556d2647cb8838befbfa68640bb3050fc458ad473590604090a161072d336118c2565b80610736578280f35b61039f913390611d28565b90517f108a506d000000000000000000000000000000000000000000000000000000008152fd5b9050823461055d57827ffffffffffffffffffffffffffffffffffffffffffffffffffffffffffffffffc36011261055d576107a1611686565b918360243592338152600160205281812073ffffffffffffffffffffffffffffffffffffffff861682526020522054908282106107e85760208561068285850387336121f3565b60849060208651917f08c379a0000000000000000000000000000000000000000000000000000000008352820152602560248201527f45524332303a2064656372656173656420616c6c6f77616e63652062656c6f7760448201527f207a65726f0000000000000000000000000000000000000000000000000000006064820152fd5b9190503461048e57807ffffffffffffffffffffffffffffffffffffffffffffffffffffffffffffffffc36011261048e576108a4611686565b906024359173ffffffffffffffffffffffffffffffffffffffff91828216908115610af15781875260209587875281882054868110610a6f578690848a528989520382892055856002540360025587837fddf252ad1be2c89b69c2b068fc378daa952ba7f163c4a11628f55a4df523b3ef8985518a8152a3600260055414610a485750600260055584151580610a40575b610943575b86600160055580f35b61096691875260068652600661095a828920611759565b96888052528620611759565b90845190825195875b8381106109b85750505050845b848110610989578061093a565b80836109976001938561187f565b511685816109a8575b50500161097c565b6109b191611c9b565b38856109a0565b856109c3828461187f565b51169089915b88858b8086106109f7575b600195146109e6575b5050500161096f565b6109ef92611d28565b3888856109dd565b8d8b610a07888d9997989961187f565b51168614610a1d575050505060010191906109c9565b938594610a2e858560019a99611d28565b610a38828d61187f565b5295506109d4565b506001610935565b90517f37ed32e8000000000000000000000000000000000000000000000000000000008152fd5b508660849251917f08c379a0000000000000000000000000000000000000000000000000000000008352820152602260248201527f45524332303a206275726e20616d6f756e7420657863656564732062616c616e60448201527f63650000000000000000000000000000000000000000000000000000000000006064820152fd5b517f08c379a0000000000000000000000000000000000000000000000000000000008152602081870152602160248201527f45524332303a206275726e2066726f6d20746865207a65726f2061646472657360448201527f73000000000000000000000000000000000000000000000000000000000000006064820152608490fd5b8383346101c557817ffffffffffffffffffffffffffffffffffffffffffffffffffffffffffffffffc3601126101c557805191809380549160019083821c92828516948515610cc1575b6020958686108114610c9557858952908115610c535750600114610bfb575b610bf78787610bed828c03836116d1565b5191829182611620565b0390f35b81529295507f8a35acfbc15ff81a39ae7d344fd709f28e8600b4aa8c65c6b64bfe7fe36bd19b5b828410610c405750505082610bf794610bed92820101948680610bdc565b8054868501880152928601928101610c22565b7fffffffffffffffffffffffffffffffffffffffffffffffffffffffffffffff00168887015250505050151560051b8301019250610bed82610bf78680610bdc565b6024846022857f4e487b7100000000000000000000000000000000000000000000000000000000835252fd5b93607f1693610bbd565b5050346101c557817ffffffffffffffffffffffffffffffffffffffffffffffffffffffffffffffffc3601126101c5573382526006602091818352610d11818520611759565b92610d1b336118c2565b9184519182841515935b610d2d578780f35b8073ffffffffffffffffffffffffffffffffffffffff610d707fffffffffffffffffffffffffffffffffffffffffffffffffffffffffffffffff8094018a61187f565b5116338a52878452610d8481868c20611a34565b50845133815273ffffffffffffffffffffffffffffffffffffffff82166020820152879087907f550ef13f654f6fc7054e7c556d2647cb8838befbfa68640bb3050fc458ad473590604090a1610dde575b50500180610d25565b610de9913390611d28565b3886610dd5565b5050346101c55760207ffffffffffffffffffffffffffffffffffffffffffffffffffffffffffffffffc3601126101c55760209061052f610e2f611686565b6118c2565b5050346101c55760207ffffffffffffffffffffffffffffffffffffffffffffffffffffffffffffffffc3601126101c55761052f8160209373ffffffffffffffffffffffffffffffffffffffff610e89611686565b16815260068552206000805260205260406000205460a01c90565b82843461055d576020807ffffffffffffffffffffffffffffffffffffffffffffffffffffffffffffffffc3601126101c5578273ffffffffffffffffffffffffffffffffffffffff9283610ef6611686565b16815260068352610f08828220611759565b918051938080860192818752855180945286019401925b828110610f2c5785850386f35b8351871685529381019392810192600101610f1f565b9190503461048e57807ffffffffffffffffffffffffffffffffffffffffffffffffffffffffffffffffc36011261048e57610f7b611686565b906024359073ffffffffffffffffffffffffffffffffffffffff9081841694851561111357610fac84600254611d9a565b6002558587528660205281872084815401905585877fddf252ad1be2c89b69c2b068fc378daa952ba7f163c4a11628f55a4df523b3ef60208551888152a3600260055414610a48575060026005558215158061110b575b611011575b85600160055580f35b611037908680526006602052611028818820611759565b95875260066020528620611759565b8451815195875b82811061108957505050855b8581106110575750611008565b80836110656001938561187f565b5116858782611078575b5050500161104a565b61108192611c12565b38858761106f565b84611094828461187f565b51169089915b878a8085106110c5575b600194146110b5575b50500161103e565b6110be91611c9b565b38876110ad565b886110d4868a9795969761187f565b511684146110e8575050600101919061109a565b83926110f8838d60019897611c12565b8d611103828b61187f565b5294506110a4565b506001611003565b602060649251917f08c379a0000000000000000000000000000000000000000000000000000000008352820152601f60248201527f45524332303a206d696e7420746f20746865207a65726f2061646472657373006044820152fd5b5050346101c557807ffffffffffffffffffffffffffffffffffffffffffffffffffffffffffffffffc3601126101c5576106826020926111e26111b0611686565b913381526001865284812073ffffffffffffffffffffffffffffffffffffffff84168252865284602435912054611d9a565b90336121f3565b5050346101c557817ffffffffffffffffffffffffffffffffffffffffffffffffffffffffffffffffc3601126101c5576020905160128152f35b5050346101c557817ffffffffffffffffffffffffffffffffffffffffffffffffffffffffffffffffc3601126101c5576020906007549051908152f35b839150346101c55760607ffffffffffffffffffffffffffffffffffffffffffffffffffffffffffffffffc3601126101c55761129a611686565b6112a26116ae565b91846044359473ffffffffffffffffffffffffffffffffffffffff8416815260016020528181203382526020522054907fffffffffffffffffffffffffffffffffffffffffffffffffffffffffffffffff8203611308575b602086610682878787611dd6565b848210611331575091839161132660209695610682950333836121f3565b9193948193506112fa565b60649060208751917f08c379a0000000000000000000000000000000000000000000000000000000008352820152601d60248201527f45524332303a20696e73756666696369656e7420616c6c6f77616e63650000006044820152fd5b5050346101c557817ffffffffffffffffffffffffffffffffffffffffffffffffffffffffffffffffc3601126101c557602090517f00000000000000000000000000000000000000000000000000000000000000008152f35b5050346101c557807ffffffffffffffffffffffffffffffffffffffffffffffffffffffffffffffffc3601126101c5576020918173ffffffffffffffffffffffffffffffffffffffff918261143a611686565b16815260068552818120602435825285522054169051908152f35b5050346101c557817ffffffffffffffffffffffffffffffffffffffffffffffffffffffffffffffffc3601126101c5576020906002549051908152f35b5050346101c557807ffffffffffffffffffffffffffffffffffffffffffffffffffffffffffffffffc3601126101c5576020906106826114d0611686565b60243590336121f3565b9291503461048a57837ffffffffffffffffffffffffffffffffffffffffffffffffffffffffffffffffc36011261048a57600354600181811c9186908281168015611616575b60209586861082146115ea57508488529081156115aa5750600114611551575b610bf78686610bed828b03836116d1565b929550600383527fc2575a0e9e593c00f959f8c92f12db2869c3395a3b0502d05e2516446f71f85b5b8284106115975750505082610bf794610bed928201019438611540565b805486850188015292860192810161157a565b7fffffffffffffffffffffffffffffffffffffffffffffffffffffffffffffff001687860152505050151560051b8301019250610bed82610bf738611540565b8360226024927f4e487b7100000000000000000000000000000000000000000000000000000000835252fd5b93607f1693611520565b60208082528251818301819052939260005b858110611672575050507fffffffffffffffffffffffffffffffffffffffffffffffffffffffffffffffe0601f8460006040809697860101520116010190565b818101830151848201604001528201611632565b6004359073ffffffffffffffffffffffffffffffffffffffff821682036116a957565b600080fd5b6024359073ffffffffffffffffffffffffffffffffffffffff821682036116a957565b90601f7fffffffffffffffffffffffffffffffffffffffffffffffffffffffffffffffe0910116810190811067ffffffffffffffff82111761171257604052565b7f4e487b7100000000000000000000000000000000000000000000000000000000600052604160045260246000fd5b67ffffffffffffffff81116117125760051b60200190565b906000808052602090838252604090818120548060a01c9261177a84611741565b92611787825194856116d1565b84845261179385611741565b977fffffffffffffffffffffffffffffffffffffffffffffffffffffffffffffffe08786019901368a3784988551871161185657866117d7575b5050505050505050565b8551156118295773ffffffffffffffffffffffffffffffffffffffff8095169052600196875b87811061180a57506117cd565b8089918552838352868686205416611822828a61187f565b52016117fd565b6024837f4e487b710000000000000000000000000000000000000000000000000000000081526032600452fd5b600484517ff9a99b25000000000000000000000000000000000000000000000000000000008152fd5b80518210156118935760209160051b010190565b7f4e487b7100000000000000000000000000000000000000000000000000000000600052603260045260246000fd5b6002600554146118f35773ffffffffffffffffffffffffffffffffffffffff16600052600060205260406000205490565b60046040517f37ed32e8000000000000000000000000000000000000000000000000000000008152fd5b73ffffffffffffffffffffffffffffffffffffffff8092169060009282845260066020526001604085200191168352602052604082205461195c575090565b90604091815280602052205490565b9073ffffffffffffffffffffffffffffffffffffffff600183019116600092818452826020526040842054611a2e5760409260019285805282602052848620928354938460a01c948515600014611a0657505086805260205274ffffffffffffffffffffffffffffffffffffffffff81740100000000000000000000000000000000000000000116858720555b855260205201912055600190565b74010000000000000000000000000000000000000000019055508286528486208190556119f8565b50505090565b906001820173ffffffffffffffffffffffffffffffffffffffff8092169260009380855260209183835260409485872054908115611c0857611a83836000805260205260406000205460a01c90565b8210611b3d575b505085805280835284862054908160a01c908115611b1457906001917fffffffffffffffffffffffffffffffffffffffffffffffffffffffffffffffff820189528552878781205511611ae4575b50845252812055600190565b7fffffffffffffffffffffffff000000000000000000000000000000000000000090868052018486205538611ad8565b600487517f06a2af9e000000000000000000000000000000000000000000000000000000008152fd5b7fffffffffffffffffffffffffffffffffffffffffffffffffffffffffffffffff9081611b77856000805260205260406000205460a01c90565b0189528386528789205416908201611b9c846000805260205260406000205460a01c90565b9081811015611bdf5782919080611bcd575089805284875260a01b17878920555b8752848452858720553880611a8a565b91505088528285528087892055611bbd565b600489517f4e23d035000000000000000000000000000000000000000000000000000000008152fd5b5050505050505090565b9190917f000000000000000000000000000000000000000000000000000000000000000091604051937f7a1f1aa90000000000000000000000000000000000000000000000000000000085526000600486015260248501526044840152600080606485825a9587f115611c8457505050565b603f0260061c10611c925750565b3d6000823e3d90fd5b907f0000000000000000000000000000000000000000000000000000000000000000604051927f7a1f1aa900000000000000000000000000000000000000000000000000000000845260009283600486015283602486015260448501528280606486825a9587f115611d0e575b50505050565b603f0260061c10611d20578080611d08565b3d90823e3d90fd5b9190917f000000000000000000000000000000000000000000000000000000000000000091604051937f7a1f1aa90000000000000000000000000000000000000000000000000000000085526004850152600060248501526044840152600080606485825a9587f115611c8457505050565b91908201809211611da757565b7f4e487b7100000000000000000000000000000000000000000000000000000000600052601160045260246000fd5b9173ffffffffffffffffffffffffffffffffffffffff808416801561216f578184169485156120eb5760009082825260209282845260409384842054878110612068578790838652858352038585205588845284842087815401905588827fddf252ad1be2c89b69c2b068fc378daa952ba7f163c4a11628f55a4df523b3ef8388518b8152a360026005541461203f57600260055586151580612035575b611e89575b5050505050505050506001600555565b6006918452818152611e9c858520611759565b98845252611eab838320611759565b92875191845198845b848110611f025750505050505b858110611ed057808080611e79565b8083611ede6001938561187f565b5116858782611ef1575b50505001611ec1565b611efa92611c12565b388587611ee8565b808a8a858e8c8b81611f158f998b61187f565b51169581925b848410611f4a575b5050506001965014611f39575b50505001611eb4565b611f4292611d28565b388a85611f30565b611f59848b989796959861187f565b51168714611f7d57505050505060019192935001908a858e8b95948f8c908f611f1b565b94919293947f00000000000000000000000000000000000000000000000000000000000000008c51917f7a1f1aa900000000000000000000000000000000000000000000000000000000835286600484015260248301528660448301525a8380606485828d87f115612006575b505050611ff98260019961187f565b528f8d97508c908f611f23565b93979899509450945050603f91500260061c1061202d57858e8b9594938b8f948080611fea565b3d89823e3d90fd5b5088821415611e74565b600485517f37ed32e8000000000000000000000000000000000000000000000000000000008152fd5b6084828751907f08c379a00000000000000000000000000000000000000000000000000000000082526004820152602660248201527f45524332303a207472616e7366657220616d6f756e742065786365656473206260448201527f616c616e636500000000000000000000000000000000000000000000000000006064820152fd5b60846040517f08c379a000000000000000000000000000000000000000000000000000000000815260206004820152602360248201527f45524332303a207472616e7366657220746f20746865207a65726f206164647260448201527f65737300000000000000000000000000000000000000000000000000000000006064820152fd5b60846040517f08c379a000000000000000000000000000000000000000000000000000000000815260206004820152602560248201527f45524332303a207472616e736665722066726f6d20746865207a65726f20616460448201527f64726573730000000000000000000000000000000000000000000000000000006064820152fd5b73ffffffffffffffffffffffffffffffffffffffff8091169182156122e557169182156122615760207f8c5be1e5ebec7d5bd14f71427d1e84f3dd0314c0f7b2291e5b200ac8c7c3b925918360005260018252604060002085600052825280604060002055604051908152a3565b60846040517f08c379a000000000000000000000000000000000000000000000000000000000815260206004820152602260248201527f45524332303a20617070726f766520746f20746865207a65726f20616464726560448201527f73730000000000000000000000000000000000000000000000000000000000006064820152fd5b60846040517f08c379a0000000000000000000000000000000000000000000000000000000008152602060048201526024808201527f45524332303a20617070726f76652066726f6d20746865207a65726f2061646460448201527f72657373000000000000000000000000000000000000000000000000000000006064820152fd5b91909160008382019384129112908015821691151617611da75756fea264697066735822122031b4f1435fde39a4996620e2cbf86db2affd3a6e890f4d797173c18b4d2c70ba64736f6c63430008140033","opcodes":"PUSH1 0xC0 PUSH1 0x40 MSTORE CALLVALUE PUSH3 0x38E JUMPI PUSH3 0x27E6 DUP1 CODESIZE SUB DUP1 PUSH3 0x1D DUP2 PUSH3 0x393 JUMP JUMPDEST SWAP3 DUP4 CODECOPY DUP2 ADD PUSH1 0x80 DUP3 DUP3 SUB SLT PUSH3 0x38E JUMPI DUP2 MLOAD PUSH1 0x1 PUSH1 0x1 PUSH1 0x40 SHL SUB SWAP1 DUP2 DUP2 GT PUSH3 0x38E JUMPI DUP3 PUSH3 0x4E SWAP2 DUP6 ADD PUSH3 0x3B9 JUMP JUMPDEST SWAP3 PUSH1 0x20 SWAP3 DUP4 DUP3 ADD MLOAD SWAP1 DUP4 DUP3 GT PUSH3 0x38E JUMPI PUSH3 0x6C SWAP2 DUP4 ADD PUSH3 0x3B9 JUMP JUMPDEST PUSH1 0x60 PUSH1 0x40 DUP4 ADD MLOAD SWAP3 ADD MLOAD SWAP3 DUP6 MLOAD DUP2 DUP2 GT PUSH3 0x28E JUMPI PUSH1 0x3 SWAP1 DUP2 SLOAD SWAP1 PUSH1 0x1 SWAP9 DUP10 DUP4 DUP2 SHR SWAP4 AND DUP1 ISZERO PUSH3 0x383 JUMPI JUMPDEST DUP10 DUP5 LT EQ PUSH3 0x36D JUMPI DUP2 SWAP1 PUSH1 0x1F SWAP4 DUP5 DUP2 GT PUSH3 0x317 JUMPI JUMPDEST POP DUP10 SWAP1 DUP5 DUP4 GT PUSH1 0x1 EQ PUSH3 0x2B0 JUMPI PUSH1 0x0 SWAP3 PUSH3 0x2A4 JUMPI JUMPDEST POP POP PUSH1 0x0 NOT DUP3 DUP6 SHL SHR NOT AND SWAP1 DUP10 SHL OR DUP3 SSTORE JUMPDEST DUP4 MLOAD SWAP3 DUP4 GT PUSH3 0x28E JUMPI PUSH1 0x4 SWAP4 DUP5 SLOAD SWAP8 DUP10 DUP10 DUP2 SHR SWAP10 AND DUP1 ISZERO PUSH3 0x283 JUMPI JUMPDEST DUP2 DUP11 LT EQ PUSH3 0x26E JUMPI DUP3 DUP10 GT PUSH3 0x222 JUMPI JUMPDEST DUP5 SWAP6 SWAP7 SWAP8 SWAP9 POP DUP1 SWAP3 DUP6 GT PUSH1 0x1 EQ PUSH3 0x1B4 JUMPI POP PUSH1 0x0 SWAP4 PUSH3 0x1A8 JUMPI JUMPDEST POP POP DUP3 DUP8 SHL SWAP3 PUSH1 0x0 NOT SWAP2 SHL SHR NOT AND OR DUP2 SSTORE JUMPDEST DUP2 ISZERO PUSH3 0x199 JUMPI POP PUSH1 0x80 MSTORE PUSH1 0xA0 MSTORE PUSH1 0x5 SSTORE PUSH1 0xA PUSH1 0x7 SSTORE PUSH4 0x5F5E100 PUSH1 0x8 SSTORE PUSH1 0x40 MLOAD PUSH2 0x23BA SWAP1 DUP2 PUSH3 0x42C DUP3 CODECOPY PUSH1 0x80 MLOAD DUP2 DUP2 DUP2 PUSH2 0x317 ADD MSTORE PUSH2 0x13C4 ADD MSTORE PUSH1 0xA0 MLOAD DUP2 DUP2 DUP2 PUSH2 0x5DA ADD MSTORE DUP2 DUP2 PUSH2 0x1C17 ADD MSTORE DUP2 DUP2 PUSH2 0x1C9E ADD MSTORE DUP2 DUP2 PUSH2 0x1D2D ADD MSTORE PUSH2 0x1F84 ADD MSTORE RETURN JUMPDEST PUSH1 0x40 MLOAD PUSH4 0xCDAF747B PUSH1 0xE0 SHL DUP2 MSTORE REVERT JUMPDEST ADD MLOAD SWAP2 POP CODESIZE DUP1 PUSH3 0x124 JUMP JUMPDEST SWAP3 SWAP2 SWAP1 DUP10 SWAP6 POP PUSH1 0x1F NOT DUP6 AND DUP8 PUSH1 0x0 MSTORE DUP5 PUSH1 0x0 KECCAK256 SWAP5 PUSH1 0x0 SWAP1 JUMPDEST DUP3 DUP3 LT PUSH3 0x208 JUMPI POP POP DUP6 GT PUSH3 0x1ED JUMPI JUMPDEST POP POP POP POP DUP2 SHL ADD DUP2 SSTORE PUSH3 0x136 JUMP JUMPDEST ADD MLOAD SWAP1 PUSH1 0xF8 DUP5 PUSH1 0x0 NOT SWAP3 SHL AND SHR NOT AND SWAP1 SSTORE CODESIZE DUP1 DUP1 DUP1 PUSH3 0x1DE JUMP JUMPDEST DUP5 DUP5 ADD MLOAD DUP8 SSTORE DUP13 SWAP9 SWAP1 SWAP7 ADD SWAP6 SWAP4 DUP5 ADD SWAP4 SWAP1 DUP2 ADD SWAP1 PUSH3 0x1CC JUMP JUMPDEST DUP6 PUSH1 0x0 MSTORE DUP1 PUSH1 0x0 KECCAK256 DUP4 DUP7 ADD PUSH1 0x5 SHR DUP2 ADD SWAP10 DUP3 DUP8 LT PUSH3 0x263 JUMPI JUMPDEST DUP5 ADD PUSH1 0x5 SHR ADD SWAP9 DUP11 SWAP1 JUMPDEST DUP11 DUP2 LT PUSH3 0x256 JUMPI POP POP PUSH3 0x108 JUMP JUMPDEST PUSH1 0x0 DUP2 SSTORE ADD DUP11 SWAP1 PUSH3 0x246 JUMP JUMPDEST SWAP1 SWAP10 POP DUP10 SWAP1 PUSH3 0x23C JUMP JUMPDEST PUSH1 0x22 DUP7 PUSH4 0x4E487B71 PUSH1 0xE0 SHL PUSH1 0x0 MSTORE MSTORE PUSH1 0x24 PUSH1 0x0 REVERT JUMPDEST SWAP9 PUSH1 0x7F AND SWAP9 PUSH3 0xF6 JUMP JUMPDEST PUSH4 0x4E487B71 PUSH1 0xE0 SHL PUSH1 0x0 MSTORE PUSH1 0x41 PUSH1 0x4 MSTORE PUSH1 0x24 PUSH1 0x0 REVERT JUMPDEST ADD MLOAD SWAP1 POP CODESIZE DUP1 PUSH3 0xC6 JUMP JUMPDEST SWAP1 DUP12 SWAP4 POP PUSH1 0x1F NOT DUP4 AND SWAP2 DUP7 PUSH1 0x0 MSTORE DUP12 PUSH1 0x0 KECCAK256 SWAP3 PUSH1 0x0 JUMPDEST DUP14 DUP3 DUP3 LT PUSH3 0x300 JUMPI POP POP DUP5 GT PUSH3 0x2E7 JUMPI JUMPDEST POP POP POP DUP2 SHL ADD DUP3 SSTORE PUSH3 0xD8 JUMP JUMPDEST ADD MLOAD PUSH1 0x0 NOT DUP4 DUP8 SHL PUSH1 0xF8 AND SHR NOT AND SWAP1 SSTORE CODESIZE DUP1 DUP1 PUSH3 0x2D9 JUMP JUMPDEST DUP4 DUP6 ADD MLOAD DUP7 SSTORE DUP16 SWAP8 SWAP1 SWAP6 ADD SWAP5 SWAP4 DUP5 ADD SWAP4 ADD PUSH3 0x2C6 JUMP JUMPDEST SWAP1 SWAP2 POP DUP5 PUSH1 0x0 MSTORE DUP10 PUSH1 0x0 KECCAK256 DUP5 DUP1 DUP6 ADD PUSH1 0x5 SHR DUP3 ADD SWAP3 DUP13 DUP7 LT PUSH3 0x363 JUMPI JUMPDEST SWAP2 DUP14 SWAP2 DUP7 SWAP6 SWAP5 SWAP4 ADD PUSH1 0x5 SHR ADD SWAP2 JUMPDEST DUP3 DUP2 LT PUSH3 0x353 JUMPI POP POP PUSH3 0xAF JUMP JUMPDEST PUSH1 0x0 DUP2 SSTORE DUP6 SWAP5 POP DUP14 SWAP2 ADD PUSH3 0x343 JUMP JUMPDEST SWAP3 POP DUP2 SWAP3 PUSH3 0x335 JUMP JUMPDEST PUSH4 0x4E487B71 PUSH1 0xE0 SHL PUSH1 0x0 MSTORE PUSH1 0x22 PUSH1 0x4 MSTORE PUSH1 0x24 PUSH1 0x0 REVERT JUMPDEST SWAP3 PUSH1 0x7F AND SWAP3 PUSH3 0x98 JUMP JUMPDEST PUSH1 0x0 DUP1 REVERT JUMPDEST PUSH1 0x40 MLOAD SWAP2 SWAP1 PUSH1 0x1F ADD PUSH1 0x1F NOT AND DUP3 ADD PUSH1 0x1 PUSH1 0x1 PUSH1 0x40 SHL SUB DUP2 GT DUP4 DUP3 LT OR PUSH3 0x28E JUMPI PUSH1 0x40 MSTORE JUMP JUMPDEST SWAP2 SWAP1 DUP1 PUSH1 0x1F DUP5 ADD SLT ISZERO PUSH3 0x38E JUMPI DUP3 MLOAD PUSH1 0x1 PUSH1 0x1 PUSH1 0x40 SHL SUB DUP2 GT PUSH3 0x28E JUMPI PUSH1 0x20 SWAP1 PUSH3 0x3EF PUSH1 0x1F DUP3 ADD PUSH1 0x1F NOT AND DUP4 ADD PUSH3 0x393 JUMP JUMPDEST SWAP3 DUP2 DUP5 MSTORE DUP3 DUP3 DUP8 ADD ADD GT PUSH3 0x38E JUMPI PUSH1 0x0 JUMPDEST DUP2 DUP2 LT PUSH3 0x417 JUMPI POP DUP3 PUSH1 0x0 SWAP4 SWAP5 SWAP6 POP ADD ADD MSTORE SWAP1 JUMP JUMPDEST DUP6 DUP2 ADD DUP4 ADD MLOAD DUP5 DUP3 ADD DUP5 ADD MSTORE DUP3 ADD PUSH3 0x401 JUMP INVALID PUSH1 0x80 PUSH1 0x40 DUP2 DUP2 MSTORE PUSH1 0x4 SWAP2 DUP3 CALLDATASIZE LT ISZERO PUSH2 0x16 JUMPI PUSH1 0x0 DUP1 REVERT JUMPDEST PUSH1 0x0 SWAP3 DUP4 CALLDATALOAD PUSH1 0xE0 SHR SWAP2 DUP3 PUSH4 0x6FDDE03 EQ PUSH2 0x14DA JUMPI POP DUP2 PUSH4 0x95EA7B3 EQ PUSH2 0x1492 JUMPI DUP2 PUSH4 0x18160DDD EQ PUSH2 0x1455 JUMPI DUP2 PUSH4 0x1945F729 EQ PUSH2 0x13E7 JUMPI DUP2 PUSH4 0x236D8835 EQ PUSH2 0x138E JUMPI DUP2 PUSH4 0x23B872DD EQ PUSH2 0x1260 JUMPI DUP2 PUSH4 0x28AD0DB7 EQ PUSH2 0x1223 JUMPI DUP2 PUSH4 0x313CE567 EQ PUSH2 0x11E9 JUMPI DUP2 PUSH4 0x39509351 EQ PUSH2 0x116F JUMPI DUP2 PUSH4 0x40C10F19 EQ PUSH2 0xF42 JUMPI DUP2 PUSH4 0x4B12E643 EQ PUSH2 0xEA4 JUMPI DUP2 PUSH4 0x61728134 EQ PUSH2 0xE34 JUMPI DUP2 PUSH4 0x70A08231 EQ PUSH2 0xDF0 JUMPI DUP2 PUSH4 0x8B822D88 EQ PUSH2 0xCCB JUMPI DUP2 PUSH4 0x95D89B41 EQ PUSH2 0xB73 JUMPI DUP2 PUSH4 0x9DC29FAC EQ PUSH2 0x86B JUMPI DUP2 PUSH4 0xA457C2D7 EQ PUSH2 0x768 JUMPI DUP2 PUSH4 0xA4D95B64 EQ PUSH2 0x689 JUMPI DUP2 PUSH4 0xA9059CBB EQ PUSH2 0x63A JUMPI DUP2 PUSH4 0xAD974F4C EQ PUSH2 0x5FD JUMPI DUP2 PUSH4 0xB2BE2D58 EQ PUSH2 0x5A4 JUMPI DUP2 PUSH4 0xBB71FCA5 EQ PUSH2 0x560 JUMPI DUP2 PUSH4 0xC1255635 EQ PUSH2 0x4D6 JUMPI DUP2 PUSH4 0xCECA812F EQ PUSH2 0x492 JUMPI DUP2 PUSH4 0xD8867FC8 EQ PUSH2 0x23C JUMPI POP DUP1 PUSH4 0xDD62ED3E EQ PUSH2 0x1C9 JUMPI PUSH4 0xED6EDC82 EQ PUSH2 0x14E JUMPI PUSH1 0x0 DUP1 REVERT JUMPDEST CALLVALUE PUSH2 0x1C5 JUMPI DUP1 PUSH32 0xFFFFFFFFFFFFFFFFFFFFFFFFFFFFFFFFFFFFFFFFFFFFFFFFFFFFFFFFFFFFFFFC CALLDATASIZE ADD SLT PUSH2 0x1C5 JUMPI DUP1 PUSH1 0x20 SWAP3 PUSH2 0x188 PUSH2 0x1686 JUMP JUMPDEST PUSH2 0x190 PUSH2 0x16AE JUMP JUMPDEST PUSH20 0xFFFFFFFFFFFFFFFFFFFFFFFFFFFFFFFFFFFFFFFF SWAP2 DUP3 AND DUP4 MSTORE PUSH1 0x6 DUP7 MSTORE DUP4 DUP4 KECCAK256 SWAP2 AND DUP3 MSTORE PUSH1 0x1 ADD DUP5 MSTORE KECCAK256 SLOAD SWAP1 MLOAD SWAP1 ISZERO ISZERO DUP2 MSTORE RETURN JUMPDEST POP DUP1 REVERT JUMPDEST POP CALLVALUE PUSH2 0x1C5 JUMPI DUP1 PUSH32 0xFFFFFFFFFFFFFFFFFFFFFFFFFFFFFFFFFFFFFFFFFFFFFFFFFFFFFFFFFFFFFFFC CALLDATASIZE ADD SLT PUSH2 0x1C5 JUMPI DUP1 PUSH1 0x20 SWAP3 PUSH2 0x204 PUSH2 0x1686 JUMP JUMPDEST PUSH2 0x20C PUSH2 0x16AE JUMP JUMPDEST PUSH20 0xFFFFFFFFFFFFFFFFFFFFFFFFFFFFFFFFFFFFFFFF SWAP2 DUP3 AND DUP4 MSTORE PUSH1 0x1 DUP7 MSTORE DUP4 DUP4 KECCAK256 SWAP2 AND DUP3 MSTORE DUP5 MSTORE KECCAK256 SLOAD SWAP1 MLOAD SWAP1 DUP2 MSTORE RETURN JUMPDEST SWAP2 SWAP1 POP CALLVALUE PUSH2 0x48E JUMPI PUSH1 0x20 SWAP2 DUP3 PUSH32 0xFFFFFFFFFFFFFFFFFFFFFFFFFFFFFFFFFFFFFFFFFFFFFFFFFFFFFFFFFFFFFFFC CALLDATASIZE ADD SLT PUSH2 0x48A JUMPI PUSH2 0x278 PUSH2 0x1686 JUMP JUMPDEST SWAP3 PUSH20 0xFFFFFFFFFFFFFFFFFFFFFFFFFFFFFFFFFFFFFFFF DUP1 DUP6 AND DUP1 ISZERO PUSH2 0x462 JUMPI SWAP1 DUP3 DUP5 SWAP3 DUP7 MLOAD SWAP4 DUP5 DUP1 SWAP3 PUSH32 0xFC0C546A00000000000000000000000000000000000000000000000000000000 DUP3 MSTORE GAS STATICCALL SWAP2 DUP3 ISZERO PUSH2 0x458 JUMPI DUP8 SWAP3 PUSH2 0x41C JUMPI JUMPDEST POP ADDRESS SWAP2 AND SUB PUSH2 0x3F4 JUMPI CALLER DUP6 MSTORE PUSH1 0x6 DUP2 MSTORE PUSH2 0x2F0 DUP5 DUP5 DUP8 KECCAK256 PUSH2 0x196B JUMP JUMPDEST ISZERO PUSH2 0x3CC JUMPI PUSH1 0x6 SWAP1 CALLER DUP7 MSTORE MSTORE PUSH2 0x315 DUP3 DUP6 KECCAK256 PUSH1 0x0 DUP1 MSTORE PUSH1 0x20 MSTORE PUSH1 0x40 PUSH1 0x0 KECCAK256 SLOAD PUSH1 0xA0 SHR SWAP1 JUMP JUMPDEST PUSH32 0x0 LT PUSH2 0x3A5 JUMPI POP MLOAD CALLER DUP2 MSTORE PUSH20 0xFFFFFFFFFFFFFFFFFFFFFFFFFFFFFFFFFFFFFFFF DUP3 AND PUSH1 0x20 DUP3 ADD MSTORE PUSH32 0x68AAFB7A848A8E6E0E8FE992DE5812474789DDEC166CE06BE4DE83B3AAA2864E SWAP1 PUSH1 0x40 SWAP1 LOG1 PUSH2 0x38B CALLER PUSH2 0x18C2 JUMP JUMPDEST DUP1 PUSH2 0x394 JUMPI DUP3 DUP1 RETURN JUMPDEST PUSH2 0x39F SWAP2 CALLER SWAP1 PUSH2 0x1C12 JUMP JUMPDEST CODESIZE DUP1 DUP3 DUP1 RETURN JUMPDEST SWAP1 MLOAD PUSH32 0x2846F78A00000000000000000000000000000000000000000000000000000000 DUP2 MSTORE REVERT JUMPDEST POP SWAP1 MLOAD PUSH32 0xFCE323D600000000000000000000000000000000000000000000000000000000 DUP2 MSTORE REVERT JUMPDEST POP SWAP1 MLOAD PUSH32 0x5940FCC800000000000000000000000000000000000000000000000000000000 DUP2 MSTORE REVERT JUMPDEST SWAP1 SWAP2 POP DUP3 DUP2 DUP2 RETURNDATASIZE DUP4 GT PUSH2 0x451 JUMPI JUMPDEST PUSH2 0x434 DUP2 DUP4 PUSH2 0x16D1 JUMP JUMPDEST DUP2 ADD SUB SLT PUSH2 0x44D JUMPI MLOAD DUP2 DUP2 AND DUP2 SUB PUSH2 0x44D JUMPI SWAP1 CODESIZE PUSH2 0x2D4 JUMP JUMPDEST DUP7 DUP1 REVERT JUMPDEST POP RETURNDATASIZE PUSH2 0x42A JUMP JUMPDEST DUP6 MLOAD RETURNDATASIZE DUP10 DUP3 RETURNDATACOPY RETURNDATASIZE SWAP1 REVERT JUMPDEST DUP4 DUP6 MLOAD PUSH32 0x4C6EA03C00000000000000000000000000000000000000000000000000000000 DUP2 MSTORE REVERT JUMPDEST DUP4 DUP1 REVERT JUMPDEST DUP3 DUP1 REVERT JUMPDEST DUP4 SWAP1 CALLVALUE PUSH2 0x1C5 JUMPI PUSH1 0x20 PUSH32 0xFFFFFFFFFFFFFFFFFFFFFFFFFFFFFFFFFFFFFFFFFFFFFFFFFFFFFFFFFFFFFFFC CALLDATASIZE ADD SLT PUSH2 0x1C5 JUMPI PUSH2 0x4D0 SWAP1 CALLDATALOAD PUSH1 0x7 SLOAD PUSH2 0x2368 JUMP JUMPDEST PUSH1 0x7 SSTORE DUP1 RETURN JUMPDEST DUP3 DUP5 CALLVALUE PUSH2 0x55D JUMPI DUP2 PUSH32 0xFFFFFFFFFFFFFFFFFFFFFFFFFFFFFFFFFFFFFFFFFFFFFFFFFFFFFFFFFFFFFFFC CALLDATASIZE ADD SLT PUSH2 0x55D JUMPI POP PUSH2 0x50F PUSH2 0x1686 JUMP JUMPDEST PUSH2 0x517 PUSH2 0x16AE JUMP JUMPDEST SWAP3 PUSH1 0x2 PUSH1 0x5 SLOAD EQ PUSH2 0x536 JUMPI POP PUSH1 0x20 SWAP3 PUSH2 0x52F SWAP2 PUSH2 0x191D JUMP JUMPDEST SWAP1 MLOAD SWAP1 DUP2 MSTORE RETURN JUMPDEST DUP3 MLOAD PUSH32 0x37ED32E800000000000000000000000000000000000000000000000000000000 DUP2 MSTORE REVERT JUMPDEST DUP1 REVERT JUMPDEST DUP4 SWAP1 CALLVALUE PUSH2 0x1C5 JUMPI PUSH1 0x20 PUSH32 0xFFFFFFFFFFFFFFFFFFFFFFFFFFFFFFFFFFFFFFFFFFFFFFFFFFFFFFFFFFFFFFFC CALLDATASIZE ADD SLT PUSH2 0x1C5 JUMPI PUSH2 0x59E SWAP1 CALLDATALOAD PUSH1 0x8 SLOAD PUSH2 0x2368 JUMP JUMPDEST PUSH1 0x8 SSTORE DUP1 RETURN JUMPDEST POP POP CALLVALUE PUSH2 0x1C5 JUMPI DUP2 PUSH32 0xFFFFFFFFFFFFFFFFFFFFFFFFFFFFFFFFFFFFFFFFFFFFFFFFFFFFFFFFFFFFFFFC CALLDATASIZE ADD SLT PUSH2 0x1C5 JUMPI PUSH1 0x20 SWAP1 MLOAD PUSH32 0x0 DUP2 MSTORE RETURN JUMPDEST POP POP CALLVALUE PUSH2 0x1C5 JUMPI DUP2 PUSH32 0xFFFFFFFFFFFFFFFFFFFFFFFFFFFFFFFFFFFFFFFFFFFFFFFFFFFFFFFFFFFFFFFC CALLDATASIZE ADD SLT PUSH2 0x1C5 JUMPI PUSH1 0x20 SWAP1 PUSH1 0x8 SLOAD SWAP1 MLOAD SWAP1 DUP2 MSTORE RETURN JUMPDEST POP POP CALLVALUE PUSH2 0x1C5 JUMPI DUP1 PUSH32 0xFFFFFFFFFFFFFFFFFFFFFFFFFFFFFFFFFFFFFFFFFFFFFFFFFFFFFFFFFFFFFFFC CALLDATASIZE ADD SLT PUSH2 0x1C5 JUMPI PUSH1 0x20 SWAP1 PUSH2 0x682 PUSH2 0x678 PUSH2 0x1686 JUMP JUMPDEST PUSH1 0x24 CALLDATALOAD SWAP1 CALLER PUSH2 0x1DD6 JUMP JUMPDEST MLOAD PUSH1 0x1 DUP2 MSTORE RETURN JUMPDEST SWAP2 SWAP1 POP CALLVALUE PUSH2 0x48E JUMPI PUSH1 0x20 PUSH32 0xFFFFFFFFFFFFFFFFFFFFFFFFFFFFFFFFFFFFFFFFFFFFFFFFFFFFFFFFFFFFFFFC CALLDATASIZE ADD SLT PUSH2 0x48E JUMPI PUSH2 0x6C3 PUSH2 0x1686 JUMP JUMPDEST SWAP2 CALLER DUP5 MSTORE PUSH1 0x6 PUSH1 0x20 MSTORE PUSH2 0x6D8 DUP4 DUP4 DUP7 KECCAK256 PUSH2 0x1A34 JUMP JUMPDEST ISZERO PUSH2 0x741 JUMPI POP MLOAD CALLER DUP2 MSTORE PUSH20 0xFFFFFFFFFFFFFFFFFFFFFFFFFFFFFFFFFFFFFFFF DUP3 AND PUSH1 0x20 DUP3 ADD MSTORE PUSH32 0x550EF13F654F6FC7054E7C556D2647CB8838BEFBFA68640BB3050FC458AD4735 SWAP1 PUSH1 0x40 SWAP1 LOG1 PUSH2 0x72D CALLER PUSH2 0x18C2 JUMP JUMPDEST DUP1 PUSH2 0x736 JUMPI DUP3 DUP1 RETURN JUMPDEST PUSH2 0x39F SWAP2 CALLER SWAP1 PUSH2 0x1D28 JUMP JUMPDEST SWAP1 MLOAD PUSH32 0x108A506D00000000000000000000000000000000000000000000000000000000 DUP2 MSTORE REVERT JUMPDEST SWAP1 POP DUP3 CALLVALUE PUSH2 0x55D JUMPI DUP3 PUSH32 0xFFFFFFFFFFFFFFFFFFFFFFFFFFFFFFFFFFFFFFFFFFFFFFFFFFFFFFFFFFFFFFFC CALLDATASIZE ADD SLT PUSH2 0x55D JUMPI PUSH2 0x7A1 PUSH2 0x1686 JUMP JUMPDEST SWAP2 DUP4 PUSH1 0x24 CALLDATALOAD SWAP3 CALLER DUP2 MSTORE PUSH1 0x1 PUSH1 0x20 MSTORE DUP2 DUP2 KECCAK256 PUSH20 0xFFFFFFFFFFFFFFFFFFFFFFFFFFFFFFFFFFFFFFFF DUP7 AND DUP3 MSTORE PUSH1 0x20 MSTORE KECCAK256 SLOAD SWAP1 DUP3 DUP3 LT PUSH2 0x7E8 JUMPI PUSH1 0x20 DUP6 PUSH2 0x682 DUP6 DUP6 SUB DUP8 CALLER PUSH2 0x21F3 JUMP JUMPDEST PUSH1 0x84 SWAP1 PUSH1 0x20 DUP7 MLOAD SWAP2 PUSH32 0x8C379A000000000000000000000000000000000000000000000000000000000 DUP4 MSTORE DUP3 ADD MSTORE PUSH1 0x25 PUSH1 0x24 DUP3 ADD MSTORE PUSH32 0x45524332303A2064656372656173656420616C6C6F77616E63652062656C6F77 PUSH1 0x44 DUP3 ADD MSTORE PUSH32 0x207A65726F000000000000000000000000000000000000000000000000000000 PUSH1 0x64 DUP3 ADD MSTORE REVERT JUMPDEST SWAP2 SWAP1 POP CALLVALUE PUSH2 0x48E JUMPI DUP1 PUSH32 0xFFFFFFFFFFFFFFFFFFFFFFFFFFFFFFFFFFFFFFFFFFFFFFFFFFFFFFFFFFFFFFFC CALLDATASIZE ADD SLT PUSH2 0x48E JUMPI PUSH2 0x8A4 PUSH2 0x1686 JUMP JUMPDEST SWAP1 PUSH1 0x24 CALLDATALOAD SWAP2 PUSH20 0xFFFFFFFFFFFFFFFFFFFFFFFFFFFFFFFFFFFFFFFF SWAP2 DUP3 DUP3 AND SWAP1 DUP2 ISZERO PUSH2 0xAF1 JUMPI DUP2 DUP8 MSTORE PUSH1 0x20 SWAP6 DUP8 DUP8 MSTORE DUP2 DUP9 KECCAK256 SLOAD DUP7 DUP2 LT PUSH2 0xA6F JUMPI DUP7 SWAP1 DUP5 DUP11 MSTORE DUP10 DUP10 MSTORE SUB DUP3 DUP10 KECCAK256 SSTORE DUP6 PUSH1 0x2 SLOAD SUB PUSH1 0x2 SSTORE DUP8 DUP4 PUSH32 0xDDF252AD1BE2C89B69C2B068FC378DAA952BA7F163C4A11628F55A4DF523B3EF DUP10 DUP6 MLOAD DUP11 DUP2 MSTORE LOG3 PUSH1 0x2 PUSH1 0x5 SLOAD EQ PUSH2 0xA48 JUMPI POP PUSH1 0x2 PUSH1 0x5 SSTORE DUP5 ISZERO ISZERO DUP1 PUSH2 0xA40 JUMPI JUMPDEST PUSH2 0x943 JUMPI JUMPDEST DUP7 PUSH1 0x1 PUSH1 0x5 SSTORE DUP1 RETURN JUMPDEST PUSH2 0x966 SWAP2 DUP8 MSTORE PUSH1 0x6 DUP7 MSTORE PUSH1 0x6 PUSH2 0x95A DUP3 DUP10 KECCAK256 PUSH2 0x1759 JUMP JUMPDEST SWAP7 DUP9 DUP1 MSTORE MSTORE DUP7 KECCAK256 PUSH2 0x1759 JUMP JUMPDEST SWAP1 DUP5 MLOAD SWAP1 DUP3 MLOAD SWAP6 DUP8 JUMPDEST DUP4 DUP2 LT PUSH2 0x9B8 JUMPI POP POP POP POP DUP5 JUMPDEST DUP5 DUP2 LT PUSH2 0x989 JUMPI DUP1 PUSH2 0x93A JUMP JUMPDEST DUP1 DUP4 PUSH2 0x997 PUSH1 0x1 SWAP4 DUP6 PUSH2 0x187F JUMP JUMPDEST MLOAD AND DUP6 DUP2 PUSH2 0x9A8 JUMPI JUMPDEST POP POP ADD PUSH2 0x97C JUMP JUMPDEST PUSH2 0x9B1 SWAP2 PUSH2 0x1C9B JUMP JUMPDEST CODESIZE DUP6 PUSH2 0x9A0 JUMP JUMPDEST DUP6 PUSH2 0x9C3 DUP3 DUP5 PUSH2 0x187F JUMP JUMPDEST MLOAD AND SWAP1 DUP10 SWAP2 JUMPDEST DUP9 DUP6 DUP12 DUP1 DUP7 LT PUSH2 0x9F7 JUMPI JUMPDEST PUSH1 0x1 SWAP6 EQ PUSH2 0x9E6 JUMPI JUMPDEST POP POP POP ADD PUSH2 0x96F JUMP JUMPDEST PUSH2 0x9EF SWAP3 PUSH2 0x1D28 JUMP JUMPDEST CODESIZE DUP9 DUP6 PUSH2 0x9DD JUMP JUMPDEST DUP14 DUP12 PUSH2 0xA07 DUP9 DUP14 SWAP10 SWAP8 SWAP9 SWAP10 PUSH2 0x187F JUMP JUMPDEST MLOAD AND DUP7 EQ PUSH2 0xA1D JUMPI POP POP POP POP PUSH1 0x1 ADD SWAP2 SWAP1 PUSH2 0x9C9 JUMP JUMPDEST SWAP4 DUP6 SWAP5 PUSH2 0xA2E DUP6 DUP6 PUSH1 0x1 SWAP11 SWAP10 PUSH2 0x1D28 JUMP JUMPDEST PUSH2 0xA38 DUP3 DUP14 PUSH2 0x187F JUMP JUMPDEST MSTORE SWAP6 POP PUSH2 0x9D4 JUMP JUMPDEST POP PUSH1 0x1 PUSH2 0x935 JUMP JUMPDEST SWAP1 MLOAD PUSH32 0x37ED32E800000000000000000000000000000000000000000000000000000000 DUP2 MSTORE REVERT JUMPDEST POP DUP7 PUSH1 0x84 SWAP3 MLOAD SWAP2 PUSH32 0x8C379A000000000000000000000000000000000000000000000000000000000 DUP4 MSTORE DUP3 ADD MSTORE PUSH1 0x22 PUSH1 0x24 DUP3 ADD MSTORE PUSH32 0x45524332303A206275726E20616D6F756E7420657863656564732062616C616E PUSH1 0x44 DUP3 ADD MSTORE PUSH32 0x6365000000000000000000000000000000000000000000000000000000000000 PUSH1 0x64 DUP3 ADD MSTORE REVERT JUMPDEST MLOAD PUSH32 0x8C379A000000000000000000000000000000000000000000000000000000000 DUP2 MSTORE PUSH1 0x20 DUP2 DUP8 ADD MSTORE PUSH1 0x21 PUSH1 0x24 DUP3 ADD MSTORE PUSH32 0x45524332303A206275726E2066726F6D20746865207A65726F20616464726573 PUSH1 0x44 DUP3 ADD MSTORE PUSH32 0x7300000000000000000000000000000000000000000000000000000000000000 PUSH1 0x64 DUP3 ADD MSTORE PUSH1 0x84 SWAP1 REVERT JUMPDEST DUP4 DUP4 CALLVALUE PUSH2 0x1C5 JUMPI DUP2 PUSH32 0xFFFFFFFFFFFFFFFFFFFFFFFFFFFFFFFFFFFFFFFFFFFFFFFFFFFFFFFFFFFFFFFC CALLDATASIZE ADD SLT PUSH2 0x1C5 JUMPI DUP1 MLOAD SWAP2 DUP1 SWAP4 DUP1 SLOAD SWAP2 PUSH1 0x1 SWAP1 DUP4 DUP3 SHR SWAP3 DUP3 DUP6 AND SWAP5 DUP6 ISZERO PUSH2 0xCC1 JUMPI JUMPDEST PUSH1 0x20 SWAP6 DUP7 DUP7 LT DUP2 EQ PUSH2 0xC95 JUMPI DUP6 DUP10 MSTORE SWAP1 DUP2 ISZERO PUSH2 0xC53 JUMPI POP PUSH1 0x1 EQ PUSH2 0xBFB JUMPI JUMPDEST PUSH2 0xBF7 DUP8 DUP8 PUSH2 0xBED DUP3 DUP13 SUB DUP4 PUSH2 0x16D1 JUMP JUMPDEST MLOAD SWAP2 DUP3 SWAP2 DUP3 PUSH2 0x1620 JUMP JUMPDEST SUB SWAP1 RETURN JUMPDEST DUP2 MSTORE SWAP3 SWAP6 POP PUSH32 0x8A35ACFBC15FF81A39AE7D344FD709F28E8600B4AA8C65C6B64BFE7FE36BD19B JUMPDEST DUP3 DUP5 LT PUSH2 0xC40 JUMPI POP POP POP DUP3 PUSH2 0xBF7 SWAP5 PUSH2 0xBED SWAP3 DUP3 ADD ADD SWAP5 DUP7 DUP1 PUSH2 0xBDC JUMP JUMPDEST DUP1 SLOAD DUP7 DUP6 ADD DUP9 ADD MSTORE SWAP3 DUP7 ADD SWAP3 DUP2 ADD PUSH2 0xC22 JUMP JUMPDEST PUSH32 0xFFFFFFFFFFFFFFFFFFFFFFFFFFFFFFFFFFFFFFFFFFFFFFFFFFFFFFFFFFFFFF00 AND DUP9 DUP8 ADD MSTORE POP POP POP POP ISZERO ISZERO PUSH1 0x5 SHL DUP4 ADD ADD SWAP3 POP PUSH2 0xBED DUP3 PUSH2 0xBF7 DUP7 DUP1 PUSH2 0xBDC JUMP JUMPDEST PUSH1 0x24 DUP5 PUSH1 0x22 DUP6 PUSH32 0x4E487B7100000000000000000000000000000000000000000000000000000000 DUP4 MSTORE MSTORE REVERT JUMPDEST SWAP4 PUSH1 0x7F AND SWAP4 PUSH2 0xBBD JUMP JUMPDEST POP POP CALLVALUE PUSH2 0x1C5 JUMPI DUP2 PUSH32 0xFFFFFFFFFFFFFFFFFFFFFFFFFFFFFFFFFFFFFFFFFFFFFFFFFFFFFFFFFFFFFFFC CALLDATASIZE ADD SLT PUSH2 0x1C5 JUMPI CALLER DUP3 MSTORE PUSH1 0x6 PUSH1 0x20 SWAP2 DUP2 DUP4 MSTORE PUSH2 0xD11 DUP2 DUP6 KECCAK256 PUSH2 0x1759 JUMP JUMPDEST SWAP3 PUSH2 0xD1B CALLER PUSH2 0x18C2 JUMP JUMPDEST SWAP2 DUP5 MLOAD SWAP2 DUP3 DUP5 ISZERO ISZERO SWAP4 JUMPDEST PUSH2 0xD2D JUMPI DUP8 DUP1 RETURN JUMPDEST DUP1 PUSH20 0xFFFFFFFFFFFFFFFFFFFFFFFFFFFFFFFFFFFFFFFF PUSH2 0xD70 PUSH32 0xFFFFFFFFFFFFFFFFFFFFFFFFFFFFFFFFFFFFFFFFFFFFFFFFFFFFFFFFFFFFFFFF DUP1 SWAP5 ADD DUP11 PUSH2 0x187F JUMP JUMPDEST MLOAD AND CALLER DUP11 MSTORE DUP8 DUP5 MSTORE PUSH2 0xD84 DUP2 DUP7 DUP13 KECCAK256 PUSH2 0x1A34 JUMP JUMPDEST POP DUP5 MLOAD CALLER DUP2 MSTORE PUSH20 0xFFFFFFFFFFFFFFFFFFFFFFFFFFFFFFFFFFFFFFFF DUP3 AND PUSH1 0x20 DUP3 ADD MSTORE DUP8 SWAP1 DUP8 SWAP1 PUSH32 0x550EF13F654F6FC7054E7C556D2647CB8838BEFBFA68640BB3050FC458AD4735 SWAP1 PUSH1 0x40 SWAP1 LOG1 PUSH2 0xDDE JUMPI JUMPDEST POP POP ADD DUP1 PUSH2 0xD25 JUMP JUMPDEST PUSH2 0xDE9 SWAP2 CALLER SWAP1 PUSH2 0x1D28 JUMP JUMPDEST CODESIZE DUP7 PUSH2 0xDD5 JUMP JUMPDEST POP POP CALLVALUE PUSH2 0x1C5 JUMPI PUSH1 0x20 PUSH32 0xFFFFFFFFFFFFFFFFFFFFFFFFFFFFFFFFFFFFFFFFFFFFFFFFFFFFFFFFFFFFFFFC CALLDATASIZE ADD SLT PUSH2 0x1C5 JUMPI PUSH1 0x20 SWAP1 PUSH2 0x52F PUSH2 0xE2F PUSH2 0x1686 JUMP JUMPDEST PUSH2 0x18C2 JUMP JUMPDEST POP POP CALLVALUE PUSH2 0x1C5 JUMPI PUSH1 0x20 PUSH32 0xFFFFFFFFFFFFFFFFFFFFFFFFFFFFFFFFFFFFFFFFFFFFFFFFFFFFFFFFFFFFFFFC CALLDATASIZE ADD SLT PUSH2 0x1C5 JUMPI PUSH2 0x52F DUP2 PUSH1 0x20 SWAP4 PUSH20 0xFFFFFFFFFFFFFFFFFFFFFFFFFFFFFFFFFFFFFFFF PUSH2 0xE89 PUSH2 0x1686 JUMP JUMPDEST AND DUP2 MSTORE PUSH1 0x6 DUP6 MSTORE KECCAK256 PUSH1 0x0 DUP1 MSTORE PUSH1 0x20 MSTORE PUSH1 0x40 PUSH1 0x0 KECCAK256 SLOAD PUSH1 0xA0 SHR SWAP1 JUMP JUMPDEST DUP3 DUP5 CALLVALUE PUSH2 0x55D JUMPI PUSH1 0x20 DUP1 PUSH32 0xFFFFFFFFFFFFFFFFFFFFFFFFFFFFFFFFFFFFFFFFFFFFFFFFFFFFFFFFFFFFFFFC CALLDATASIZE ADD SLT PUSH2 0x1C5 JUMPI DUP3 PUSH20 0xFFFFFFFFFFFFFFFFFFFFFFFFFFFFFFFFFFFFFFFF SWAP3 DUP4 PUSH2 0xEF6 PUSH2 0x1686 JUMP JUMPDEST AND DUP2 MSTORE PUSH1 0x6 DUP4 MSTORE PUSH2 0xF08 DUP3 DUP3 KECCAK256 PUSH2 0x1759 JUMP JUMPDEST SWAP2 DUP1 MLOAD SWAP4 DUP1 DUP1 DUP7 ADD SWAP3 DUP2 DUP8 MSTORE DUP6 MLOAD DUP1 SWAP5 MSTORE DUP7 ADD SWAP5 ADD SWAP3 JUMPDEST DUP3 DUP2 LT PUSH2 0xF2C JUMPI DUP6 DUP6 SUB DUP7 RETURN JUMPDEST DUP4 MLOAD DUP8 AND DUP6 MSTORE SWAP4 DUP2 ADD SWAP4 SWAP3 DUP2 ADD SWAP3 PUSH1 0x1 ADD PUSH2 0xF1F JUMP JUMPDEST SWAP2 SWAP1 POP CALLVALUE PUSH2 0x48E JUMPI DUP1 PUSH32 0xFFFFFFFFFFFFFFFFFFFFFFFFFFFFFFFFFFFFFFFFFFFFFFFFFFFFFFFFFFFFFFFC CALLDATASIZE ADD SLT PUSH2 0x48E JUMPI PUSH2 0xF7B PUSH2 0x1686 JUMP JUMPDEST SWAP1 PUSH1 0x24 CALLDATALOAD SWAP1 PUSH20 0xFFFFFFFFFFFFFFFFFFFFFFFFFFFFFFFFFFFFFFFF SWAP1 DUP2 DUP5 AND SWAP5 DUP6 ISZERO PUSH2 0x1113 JUMPI PUSH2 0xFAC DUP5 PUSH1 0x2 SLOAD PUSH2 0x1D9A JUMP JUMPDEST PUSH1 0x2 SSTORE DUP6 DUP8 MSTORE DUP7 PUSH1 0x20 MSTORE DUP2 DUP8 KECCAK256 DUP5 DUP2 SLOAD ADD SWAP1 SSTORE DUP6 DUP8 PUSH32 0xDDF252AD1BE2C89B69C2B068FC378DAA952BA7F163C4A11628F55A4DF523B3EF PUSH1 0x20 DUP6 MLOAD DUP9 DUP2 MSTORE LOG3 PUSH1 0x2 PUSH1 0x5 SLOAD EQ PUSH2 0xA48 JUMPI POP PUSH1 0x2 PUSH1 0x5 SSTORE DUP3 ISZERO ISZERO DUP1 PUSH2 0x110B JUMPI JUMPDEST PUSH2 0x1011 JUMPI JUMPDEST DUP6 PUSH1 0x1 PUSH1 0x5 SSTORE DUP1 RETURN JUMPDEST PUSH2 0x1037 SWAP1 DUP7 DUP1 MSTORE PUSH1 0x6 PUSH1 0x20 MSTORE PUSH2 0x1028 DUP2 DUP9 KECCAK256 PUSH2 0x1759 JUMP JUMPDEST SWAP6 DUP8 MSTORE PUSH1 0x6 PUSH1 0x20 MSTORE DUP7 KECCAK256 PUSH2 0x1759 JUMP JUMPDEST DUP5 MLOAD DUP2 MLOAD SWAP6 DUP8 JUMPDEST DUP3 DUP2 LT PUSH2 0x1089 JUMPI POP POP POP DUP6 JUMPDEST DUP6 DUP2 LT PUSH2 0x1057 JUMPI POP PUSH2 0x1008 JUMP JUMPDEST DUP1 DUP4 PUSH2 0x1065 PUSH1 0x1 SWAP4 DUP6 PUSH2 0x187F JUMP JUMPDEST MLOAD AND DUP6 DUP8 DUP3 PUSH2 0x1078 JUMPI JUMPDEST POP POP POP ADD PUSH2 0x104A JUMP JUMPDEST PUSH2 0x1081 SWAP3 PUSH2 0x1C12 JUMP JUMPDEST CODESIZE DUP6 DUP8 PUSH2 0x106F JUMP JUMPDEST DUP5 PUSH2 0x1094 DUP3 DUP5 PUSH2 0x187F JUMP JUMPDEST MLOAD AND SWAP1 DUP10 SWAP2 JUMPDEST DUP8 DUP11 DUP1 DUP6 LT PUSH2 0x10C5 JUMPI JUMPDEST PUSH1 0x1 SWAP5 EQ PUSH2 0x10B5 JUMPI JUMPDEST POP POP ADD PUSH2 0x103E JUMP JUMPDEST PUSH2 0x10BE SWAP2 PUSH2 0x1C9B JUMP JUMPDEST CODESIZE DUP8 PUSH2 0x10AD JUMP JUMPDEST DUP9 PUSH2 0x10D4 DUP7 DUP11 SWAP8 SWAP6 SWAP7 SWAP8 PUSH2 0x187F JUMP JUMPDEST MLOAD AND DUP5 EQ PUSH2 0x10E8 JUMPI POP POP PUSH1 0x1 ADD SWAP2 SWAP1 PUSH2 0x109A JUMP JUMPDEST DUP4 SWAP3 PUSH2 0x10F8 DUP4 DUP14 PUSH1 0x1 SWAP9 SWAP8 PUSH2 0x1C12 JUMP JUMPDEST DUP14 PUSH2 0x1103 DUP3 DUP12 PUSH2 0x187F JUMP JUMPDEST MSTORE SWAP5 POP PUSH2 0x10A4 JUMP JUMPDEST POP PUSH1 0x1 PUSH2 0x1003 JUMP JUMPDEST PUSH1 0x20 PUSH1 0x64 SWAP3 MLOAD SWAP2 PUSH32 0x8C379A000000000000000000000000000000000000000000000000000000000 DUP4 MSTORE DUP3 ADD MSTORE PUSH1 0x1F PUSH1 0x24 DUP3 ADD MSTORE PUSH32 0x45524332303A206D696E7420746F20746865207A65726F206164647265737300 PUSH1 0x44 DUP3 ADD MSTORE REVERT JUMPDEST POP POP CALLVALUE PUSH2 0x1C5 JUMPI DUP1 PUSH32 0xFFFFFFFFFFFFFFFFFFFFFFFFFFFFFFFFFFFFFFFFFFFFFFFFFFFFFFFFFFFFFFFC CALLDATASIZE ADD SLT PUSH2 0x1C5 JUMPI PUSH2 0x682 PUSH1 0x20 SWAP3 PUSH2 0x11E2 PUSH2 0x11B0 PUSH2 0x1686 JUMP JUMPDEST SWAP2 CALLER DUP2 MSTORE PUSH1 0x1 DUP7 MSTORE DUP5 DUP2 KECCAK256 PUSH20 0xFFFFFFFFFFFFFFFFFFFFFFFFFFFFFFFFFFFFFFFF DUP5 AND DUP3 MSTORE DUP7 MSTORE DUP5 PUSH1 0x24 CALLDATALOAD SWAP2 KECCAK256 SLOAD PUSH2 0x1D9A JUMP JUMPDEST SWAP1 CALLER PUSH2 0x21F3 JUMP JUMPDEST POP POP CALLVALUE PUSH2 0x1C5 JUMPI DUP2 PUSH32 0xFFFFFFFFFFFFFFFFFFFFFFFFFFFFFFFFFFFFFFFFFFFFFFFFFFFFFFFFFFFFFFFC CALLDATASIZE ADD SLT PUSH2 0x1C5 JUMPI PUSH1 0x20 SWAP1 MLOAD PUSH1 0x12 DUP2 MSTORE RETURN JUMPDEST POP POP CALLVALUE PUSH2 0x1C5 JUMPI DUP2 PUSH32 0xFFFFFFFFFFFFFFFFFFFFFFFFFFFFFFFFFFFFFFFFFFFFFFFFFFFFFFFFFFFFFFFC CALLDATASIZE ADD SLT PUSH2 0x1C5 JUMPI PUSH1 0x20 SWAP1 PUSH1 0x7 SLOAD SWAP1 MLOAD SWAP1 DUP2 MSTORE RETURN JUMPDEST DUP4 SWAP2 POP CALLVALUE PUSH2 0x1C5 JUMPI PUSH1 0x60 PUSH32 0xFFFFFFFFFFFFFFFFFFFFFFFFFFFFFFFFFFFFFFFFFFFFFFFFFFFFFFFFFFFFFFFC CALLDATASIZE ADD SLT PUSH2 0x1C5 JUMPI PUSH2 0x129A PUSH2 0x1686 JUMP JUMPDEST PUSH2 0x12A2 PUSH2 0x16AE JUMP JUMPDEST SWAP2 DUP5 PUSH1 0x44 CALLDATALOAD SWAP5 PUSH20 0xFFFFFFFFFFFFFFFFFFFFFFFFFFFFFFFFFFFFFFFF DUP5 AND DUP2 MSTORE PUSH1 0x1 PUSH1 0x20 MSTORE DUP2 DUP2 KECCAK256 CALLER DUP3 MSTORE PUSH1 0x20 MSTORE KECCAK256 SLOAD SWAP1 PUSH32 0xFFFFFFFFFFFFFFFFFFFFFFFFFFFFFFFFFFFFFFFFFFFFFFFFFFFFFFFFFFFFFFFF DUP3 SUB PUSH2 0x1308 JUMPI JUMPDEST PUSH1 0x20 DUP7 PUSH2 0x682 DUP8 DUP8 DUP8 PUSH2 0x1DD6 JUMP JUMPDEST DUP5 DUP3 LT PUSH2 0x1331 JUMPI POP SWAP2 DUP4 SWAP2 PUSH2 0x1326 PUSH1 0x20 SWAP7 SWAP6 PUSH2 0x682 SWAP6 SUB CALLER DUP4 PUSH2 0x21F3 JUMP JUMPDEST SWAP2 SWAP4 SWAP5 DUP2 SWAP4 POP PUSH2 0x12FA JUMP JUMPDEST PUSH1 0x64 SWAP1 PUSH1 0x20 DUP8 MLOAD SWAP2 PUSH32 0x8C379A000000000000000000000000000000000000000000000000000000000 DUP4 MSTORE DUP3 ADD MSTORE PUSH1 0x1D PUSH1 0x24 DUP3 ADD MSTORE PUSH32 0x45524332303A20696E73756666696369656E7420616C6C6F77616E6365000000 PUSH1 0x44 DUP3 ADD MSTORE REVERT JUMPDEST POP POP CALLVALUE PUSH2 0x1C5 JUMPI DUP2 PUSH32 0xFFFFFFFFFFFFFFFFFFFFFFFFFFFFFFFFFFFFFFFFFFFFFFFFFFFFFFFFFFFFFFFC CALLDATASIZE ADD SLT PUSH2 0x1C5 JUMPI PUSH1 0x20 SWAP1 MLOAD PUSH32 0x0 DUP2 MSTORE RETURN JUMPDEST POP POP CALLVALUE PUSH2 0x1C5 JUMPI DUP1 PUSH32 0xFFFFFFFFFFFFFFFFFFFFFFFFFFFFFFFFFFFFFFFFFFFFFFFFFFFFFFFFFFFFFFFC CALLDATASIZE ADD SLT PUSH2 0x1C5 JUMPI PUSH1 0x20 SWAP2 DUP2 PUSH20 0xFFFFFFFFFFFFFFFFFFFFFFFFFFFFFFFFFFFFFFFF SWAP2 DUP3 PUSH2 0x143A PUSH2 0x1686 JUMP JUMPDEST AND DUP2 MSTORE PUSH1 0x6 DUP6 MSTORE DUP2 DUP2 KECCAK256 PUSH1 0x24 CALLDATALOAD DUP3 MSTORE DUP6 MSTORE KECCAK256 SLOAD AND SWAP1 MLOAD SWAP1 DUP2 MSTORE RETURN JUMPDEST POP POP CALLVALUE PUSH2 0x1C5 JUMPI DUP2 PUSH32 0xFFFFFFFFFFFFFFFFFFFFFFFFFFFFFFFFFFFFFFFFFFFFFFFFFFFFFFFFFFFFFFFC CALLDATASIZE ADD SLT PUSH2 0x1C5 JUMPI PUSH1 0x20 SWAP1 PUSH1 0x2 SLOAD SWAP1 MLOAD SWAP1 DUP2 MSTORE RETURN JUMPDEST POP POP CALLVALUE PUSH2 0x1C5 JUMPI DUP1 PUSH32 0xFFFFFFFFFFFFFFFFFFFFFFFFFFFFFFFFFFFFFFFFFFFFFFFFFFFFFFFFFFFFFFFC CALLDATASIZE ADD SLT PUSH2 0x1C5 JUMPI PUSH1 0x20 SWAP1 PUSH2 0x682 PUSH2 0x14D0 PUSH2 0x1686 JUMP JUMPDEST PUSH1 0x24 CALLDATALOAD SWAP1 CALLER PUSH2 0x21F3 JUMP JUMPDEST SWAP3 SWAP2 POP CALLVALUE PUSH2 0x48A JUMPI DUP4 PUSH32 0xFFFFFFFFFFFFFFFFFFFFFFFFFFFFFFFFFFFFFFFFFFFFFFFFFFFFFFFFFFFFFFFC CALLDATASIZE ADD SLT PUSH2 0x48A JUMPI PUSH1 0x3 SLOAD PUSH1 0x1 DUP2 DUP2 SHR SWAP2 DUP7 SWAP1 DUP3 DUP2 AND DUP1 ISZERO PUSH2 0x1616 JUMPI JUMPDEST PUSH1 0x20 SWAP6 DUP7 DUP7 LT DUP3 EQ PUSH2 0x15EA JUMPI POP DUP5 DUP9 MSTORE SWAP1 DUP2 ISZERO PUSH2 0x15AA JUMPI POP PUSH1 0x1 EQ PUSH2 0x1551 JUMPI JUMPDEST PUSH2 0xBF7 DUP7 DUP7 PUSH2 0xBED DUP3 DUP12 SUB DUP4 PUSH2 0x16D1 JUMP JUMPDEST SWAP3 SWAP6 POP PUSH1 0x3 DUP4 MSTORE PUSH32 0xC2575A0E9E593C00F959F8C92F12DB2869C3395A3B0502D05E2516446F71F85B JUMPDEST DUP3 DUP5 LT PUSH2 0x1597 JUMPI POP POP POP DUP3 PUSH2 0xBF7 SWAP5 PUSH2 0xBED SWAP3 DUP3 ADD ADD SWAP5 CODESIZE PUSH2 0x1540 JUMP JUMPDEST DUP1 SLOAD DUP7 DUP6 ADD DUP9 ADD MSTORE SWAP3 DUP7 ADD SWAP3 DUP2 ADD PUSH2 0x157A JUMP JUMPDEST PUSH32 0xFFFFFFFFFFFFFFFFFFFFFFFFFFFFFFFFFFFFFFFFFFFFFFFFFFFFFFFFFFFFFF00 AND DUP8 DUP7 ADD MSTORE POP POP POP ISZERO ISZERO PUSH1 0x5 SHL DUP4 ADD ADD SWAP3 POP PUSH2 0xBED DUP3 PUSH2 0xBF7 CODESIZE PUSH2 0x1540 JUMP JUMPDEST DUP4 PUSH1 0x22 PUSH1 0x24 SWAP3 PUSH32 0x4E487B7100000000000000000000000000000000000000000000000000000000 DUP4 MSTORE MSTORE REVERT JUMPDEST SWAP4 PUSH1 0x7F AND SWAP4 PUSH2 0x1520 JUMP JUMPDEST PUSH1 0x20 DUP1 DUP3 MSTORE DUP3 MLOAD DUP2 DUP4 ADD DUP2 SWAP1 MSTORE SWAP4 SWAP3 PUSH1 0x0 JUMPDEST DUP6 DUP2 LT PUSH2 0x1672 JUMPI POP POP POP PUSH32 0xFFFFFFFFFFFFFFFFFFFFFFFFFFFFFFFFFFFFFFFFFFFFFFFFFFFFFFFFFFFFFFE0 PUSH1 0x1F DUP5 PUSH1 0x0 PUSH1 0x40 DUP1 SWAP7 SWAP8 DUP7 ADD ADD MSTORE ADD AND ADD ADD SWAP1 JUMP JUMPDEST DUP2 DUP2 ADD DUP4 ADD MLOAD DUP5 DUP3 ADD PUSH1 0x40 ADD MSTORE DUP3 ADD PUSH2 0x1632 JUMP JUMPDEST PUSH1 0x4 CALLDATALOAD SWAP1 PUSH20 0xFFFFFFFFFFFFFFFFFFFFFFFFFFFFFFFFFFFFFFFF DUP3 AND DUP3 SUB PUSH2 0x16A9 JUMPI JUMP JUMPDEST PUSH1 0x0 DUP1 REVERT JUMPDEST PUSH1 0x24 CALLDATALOAD SWAP1 PUSH20 0xFFFFFFFFFFFFFFFFFFFFFFFFFFFFFFFFFFFFFFFF DUP3 AND DUP3 SUB PUSH2 0x16A9 JUMPI JUMP JUMPDEST SWAP1 PUSH1 0x1F PUSH32 0xFFFFFFFFFFFFFFFFFFFFFFFFFFFFFFFFFFFFFFFFFFFFFFFFFFFFFFFFFFFFFFE0 SWAP2 ADD AND DUP2 ADD SWAP1 DUP2 LT PUSH8 0xFFFFFFFFFFFFFFFF DUP3 GT OR PUSH2 0x1712 JUMPI PUSH1 0x40 MSTORE JUMP JUMPDEST PUSH32 0x4E487B7100000000000000000000000000000000000000000000000000000000 PUSH1 0x0 MSTORE PUSH1 0x41 PUSH1 0x4 MSTORE PUSH1 0x24 PUSH1 0x0 REVERT JUMPDEST PUSH8 0xFFFFFFFFFFFFFFFF DUP2 GT PUSH2 0x1712 JUMPI PUSH1 0x5 SHL PUSH1 0x20 ADD SWAP1 JUMP JUMPDEST SWAP1 PUSH1 0x0 DUP1 DUP1 MSTORE PUSH1 0x20 SWAP1 DUP4 DUP3 MSTORE PUSH1 0x40 SWAP1 DUP2 DUP2 KECCAK256 SLOAD DUP1 PUSH1 0xA0 SHR SWAP3 PUSH2 0x177A DUP5 PUSH2 0x1741 JUMP JUMPDEST SWAP3 PUSH2 0x1787 DUP3 MLOAD SWAP5 DUP6 PUSH2 0x16D1 JUMP JUMPDEST DUP5 DUP5 MSTORE PUSH2 0x1793 DUP6 PUSH2 0x1741 JUMP JUMPDEST SWAP8 PUSH32 0xFFFFFFFFFFFFFFFFFFFFFFFFFFFFFFFFFFFFFFFFFFFFFFFFFFFFFFFFFFFFFFE0 DUP8 DUP7 ADD SWAP10 ADD CALLDATASIZE DUP11 CALLDATACOPY DUP5 SWAP9 DUP6 MLOAD DUP8 GT PUSH2 0x1856 JUMPI DUP7 PUSH2 0x17D7 JUMPI JUMPDEST POP POP POP POP POP POP POP POP JUMP JUMPDEST DUP6 MLOAD ISZERO PUSH2 0x1829 JUMPI PUSH20 0xFFFFFFFFFFFFFFFFFFFFFFFFFFFFFFFFFFFFFFFF DUP1 SWAP6 AND SWAP1 MSTORE PUSH1 0x1 SWAP7 DUP8 JUMPDEST DUP8 DUP2 LT PUSH2 0x180A JUMPI POP PUSH2 0x17CD JUMP JUMPDEST DUP1 DUP10 SWAP2 DUP6 MSTORE DUP4 DUP4 MSTORE DUP7 DUP7 DUP7 KECCAK256 SLOAD AND PUSH2 0x1822 DUP3 DUP11 PUSH2 0x187F JUMP JUMPDEST MSTORE ADD PUSH2 0x17FD JUMP JUMPDEST PUSH1 0x24 DUP4 PUSH32 0x4E487B7100000000000000000000000000000000000000000000000000000000 DUP2 MSTORE PUSH1 0x32 PUSH1 0x4 MSTORE REVERT JUMPDEST PUSH1 0x4 DUP5 MLOAD PUSH32 0xF9A99B2500000000000000000000000000000000000000000000000000000000 DUP2 MSTORE REVERT JUMPDEST DUP1 MLOAD DUP3 LT ISZERO PUSH2 0x1893 JUMPI PUSH1 0x20 SWAP2 PUSH1 0x5 SHL ADD ADD SWAP1 JUMP JUMPDEST PUSH32 0x4E487B7100000000000000000000000000000000000000000000000000000000 PUSH1 0x0 MSTORE PUSH1 0x32 PUSH1 0x4 MSTORE PUSH1 0x24 PUSH1 0x0 REVERT JUMPDEST PUSH1 0x2 PUSH1 0x5 SLOAD EQ PUSH2 0x18F3 JUMPI PUSH20 0xFFFFFFFFFFFFFFFFFFFFFFFFFFFFFFFFFFFFFFFF AND PUSH1 0x0 MSTORE PUSH1 0x0 PUSH1 0x20 MSTORE PUSH1 0x40 PUSH1 0x0 KECCAK256 SLOAD SWAP1 JUMP JUMPDEST PUSH1 0x4 PUSH1 0x40 MLOAD PUSH32 0x37ED32E800000000000000000000000000000000000000000000000000000000 DUP2 MSTORE REVERT JUMPDEST PUSH20 0xFFFFFFFFFFFFFFFFFFFFFFFFFFFFFFFFFFFFFFFF DUP1 SWAP3 AND SWAP1 PUSH1 0x0 SWAP3 DUP3 DUP5 MSTORE PUSH1 0x6 PUSH1 0x20 MSTORE PUSH1 0x1 PUSH1 0x40 DUP6 KECCAK256 ADD SWAP2 AND DUP4 MSTORE PUSH1 0x20 MSTORE PUSH1 0x40 DUP3 KECCAK256 SLOAD PUSH2 0x195C JUMPI POP SWAP1 JUMP JUMPDEST SWAP1 PUSH1 0x40 SWAP2 DUP2 MSTORE DUP1 PUSH1 0x20 MSTORE KECCAK256 SLOAD SWAP1 JUMP JUMPDEST SWAP1 PUSH20 0xFFFFFFFFFFFFFFFFFFFFFFFFFFFFFFFFFFFFFFFF PUSH1 0x1 DUP4 ADD SWAP2 AND PUSH1 0x0 SWAP3 DUP2 DUP5 MSTORE DUP3 PUSH1 0x20 MSTORE PUSH1 0x40 DUP5 KECCAK256 SLOAD PUSH2 0x1A2E JUMPI PUSH1 0x40 SWAP3 PUSH1 0x1 SWAP3 DUP6 DUP1 MSTORE DUP3 PUSH1 0x20 MSTORE DUP5 DUP7 KECCAK256 SWAP3 DUP4 SLOAD SWAP4 DUP5 PUSH1 0xA0 SHR SWAP5 DUP6 ISZERO PUSH1 0x0 EQ PUSH2 0x1A06 JUMPI POP POP DUP7 DUP1 MSTORE PUSH1 0x20 MSTORE PUSH21 0xFFFFFFFFFFFFFFFFFFFFFFFFFFFFFFFFFFFFFFFFFF DUP2 PUSH21 0x10000000000000000000000000000000000000000 ADD AND DUP6 DUP8 KECCAK256 SSTORE JUMPDEST DUP6 MSTORE PUSH1 0x20 MSTORE ADD SWAP2 KECCAK256 SSTORE PUSH1 0x1 SWAP1 JUMP JUMPDEST PUSH21 0x10000000000000000000000000000000000000000 ADD SWAP1 SSTORE POP DUP3 DUP7 MSTORE DUP5 DUP7 KECCAK256 DUP2 SWAP1 SSTORE PUSH2 0x19F8 JUMP JUMPDEST POP POP POP SWAP1 JUMP JUMPDEST SWAP1 PUSH1 0x1 DUP3 ADD PUSH20 0xFFFFFFFFFFFFFFFFFFFFFFFFFFFFFFFFFFFFFFFF DUP1 SWAP3 AND SWAP3 PUSH1 0x0 SWAP4 DUP1 DUP6 MSTORE PUSH1 0x20 SWAP2 DUP4 DUP4 MSTORE PUSH1 0x40 SWAP5 DUP6 DUP8 KECCAK256 SLOAD SWAP1 DUP2 ISZERO PUSH2 0x1C08 JUMPI PUSH2 0x1A83 DUP4 PUSH1 0x0 DUP1 MSTORE PUSH1 0x20 MSTORE PUSH1 0x40 PUSH1 0x0 KECCAK256 SLOAD PUSH1 0xA0 SHR SWAP1 JUMP JUMPDEST DUP3 LT PUSH2 0x1B3D JUMPI JUMPDEST POP POP DUP6 DUP1 MSTORE DUP1 DUP4 MSTORE DUP5 DUP7 KECCAK256 SLOAD SWAP1 DUP2 PUSH1 0xA0 SHR SWAP1 DUP2 ISZERO PUSH2 0x1B14 JUMPI SWAP1 PUSH1 0x1 SWAP2 PUSH32 0xFFFFFFFFFFFFFFFFFFFFFFFFFFFFFFFFFFFFFFFFFFFFFFFFFFFFFFFFFFFFFFFF DUP3 ADD DUP10 MSTORE DUP6 MSTORE DUP8 DUP8 DUP2 KECCAK256 SSTORE GT PUSH2 0x1AE4 JUMPI JUMPDEST POP DUP5 MSTORE MSTORE DUP2 KECCAK256 SSTORE PUSH1 0x1 SWAP1 JUMP JUMPDEST PUSH32 0xFFFFFFFFFFFFFFFFFFFFFFFF0000000000000000000000000000000000000000 SWAP1 DUP7 DUP1 MSTORE ADD DUP5 DUP7 KECCAK256 SSTORE CODESIZE PUSH2 0x1AD8 JUMP JUMPDEST PUSH1 0x4 DUP8 MLOAD PUSH32 0x6A2AF9E00000000000000000000000000000000000000000000000000000000 DUP2 MSTORE REVERT JUMPDEST PUSH32 0xFFFFFFFFFFFFFFFFFFFFFFFFFFFFFFFFFFFFFFFFFFFFFFFFFFFFFFFFFFFFFFFF SWAP1 DUP2 PUSH2 0x1B77 DUP6 PUSH1 0x0 DUP1 MSTORE PUSH1 0x20 MSTORE PUSH1 0x40 PUSH1 0x0 KECCAK256 SLOAD PUSH1 0xA0 SHR SWAP1 JUMP JUMPDEST ADD DUP10 MSTORE DUP4 DUP7 MSTORE DUP8 DUP10 KECCAK256 SLOAD AND SWAP1 DUP3 ADD PUSH2 0x1B9C DUP5 PUSH1 0x0 DUP1 MSTORE PUSH1 0x20 MSTORE PUSH1 0x40 PUSH1 0x0 KECCAK256 SLOAD PUSH1 0xA0 SHR SWAP1 JUMP JUMPDEST SWAP1 DUP2 DUP2 LT ISZERO PUSH2 0x1BDF JUMPI DUP3 SWAP2 SWAP1 DUP1 PUSH2 0x1BCD JUMPI POP DUP10 DUP1 MSTORE DUP5 DUP8 MSTORE PUSH1 0xA0 SHL OR DUP8 DUP10 KECCAK256 SSTORE JUMPDEST DUP8 MSTORE DUP5 DUP5 MSTORE DUP6 DUP8 KECCAK256 SSTORE CODESIZE DUP1 PUSH2 0x1A8A JUMP JUMPDEST SWAP2 POP POP DUP9 MSTORE DUP3 DUP6 MSTORE DUP1 DUP8 DUP10 KECCAK256 SSTORE PUSH2 0x1BBD JUMP JUMPDEST PUSH1 0x4 DUP10 MLOAD PUSH32 0x4E23D03500000000000000000000000000000000000000000000000000000000 DUP2 MSTORE REVERT JUMPDEST POP POP POP POP POP POP POP SWAP1 JUMP JUMPDEST SWAP2 SWAP1 SWAP2 PUSH32 0x0 SWAP2 PUSH1 0x40 MLOAD SWAP4 PUSH32 0x7A1F1AA900000000000000000000000000000000000000000000000000000000 DUP6 MSTORE PUSH1 0x0 PUSH1 0x4 DUP7 ADD MSTORE PUSH1 0x24 DUP6 ADD MSTORE PUSH1 0x44 DUP5 ADD MSTORE PUSH1 0x0 DUP1 PUSH1 0x64 DUP6 DUP3 GAS SWAP6 DUP8 CALL ISZERO PUSH2 0x1C84 JUMPI POP POP POP JUMP JUMPDEST PUSH1 0x3F MUL PUSH1 0x6 SHR LT PUSH2 0x1C92 JUMPI POP JUMP JUMPDEST RETURNDATASIZE PUSH1 0x0 DUP3 RETURNDATACOPY RETURNDATASIZE SWAP1 REVERT JUMPDEST SWAP1 PUSH32 0x0 PUSH1 0x40 MLOAD SWAP3 PUSH32 0x7A1F1AA900000000000000000000000000000000000000000000000000000000 DUP5 MSTORE PUSH1 0x0 SWAP3 DUP4 PUSH1 0x4 DUP7 ADD MSTORE DUP4 PUSH1 0x24 DUP7 ADD MSTORE PUSH1 0x44 DUP6 ADD MSTORE DUP3 DUP1 PUSH1 0x64 DUP7 DUP3 GAS SWAP6 DUP8 CALL ISZERO PUSH2 0x1D0E JUMPI JUMPDEST POP POP POP POP JUMP JUMPDEST PUSH1 0x3F MUL PUSH1 0x6 SHR LT PUSH2 0x1D20 JUMPI DUP1 DUP1 PUSH2 0x1D08 JUMP JUMPDEST RETURNDATASIZE SWAP1 DUP3 RETURNDATACOPY RETURNDATASIZE SWAP1 REVERT JUMPDEST SWAP2 SWAP1 SWAP2 PUSH32 0x0 SWAP2 PUSH1 0x40 MLOAD SWAP4 PUSH32 0x7A1F1AA900000000000000000000000000000000000000000000000000000000 DUP6 MSTORE PUSH1 0x4 DUP6 ADD MSTORE PUSH1 0x0 PUSH1 0x24 DUP6 ADD MSTORE PUSH1 0x44 DUP5 ADD MSTORE PUSH1 0x0 DUP1 PUSH1 0x64 DUP6 DUP3 GAS SWAP6 DUP8 CALL ISZERO PUSH2 0x1C84 JUMPI POP POP POP JUMP JUMPDEST SWAP2 SWAP1 DUP3 ADD DUP1 SWAP3 GT PUSH2 0x1DA7 JUMPI JUMP JUMPDEST PUSH32 0x4E487B7100000000000000000000000000000000000000000000000000000000 PUSH1 0x0 MSTORE PUSH1 0x11 PUSH1 0x4 MSTORE PUSH1 0x24 PUSH1 0x0 REVERT JUMPDEST SWAP2 PUSH20 0xFFFFFFFFFFFFFFFFFFFFFFFFFFFFFFFFFFFFFFFF DUP1 DUP5 AND DUP1 ISZERO PUSH2 0x216F JUMPI DUP2 DUP5 AND SWAP5 DUP6 ISZERO PUSH2 0x20EB JUMPI PUSH1 0x0 SWAP1 DUP3 DUP3 MSTORE PUSH1 0x20 SWAP3 DUP3 DUP5 MSTORE PUSH1 0x40 SWAP4 DUP5 DUP5 KECCAK256 SLOAD DUP8 DUP2 LT PUSH2 0x2068 JUMPI DUP8 SWAP1 DUP4 DUP7 MSTORE DUP6 DUP4 MSTORE SUB DUP6 DUP6 KECCAK256 SSTORE DUP9 DUP5 MSTORE DUP5 DUP5 KECCAK256 DUP8 DUP2 SLOAD ADD SWAP1 SSTORE DUP9 DUP3 PUSH32 0xDDF252AD1BE2C89B69C2B068FC378DAA952BA7F163C4A11628F55A4DF523B3EF DUP4 DUP9 MLOAD DUP12 DUP2 MSTORE LOG3 PUSH1 0x2 PUSH1 0x5 SLOAD EQ PUSH2 0x203F JUMPI PUSH1 0x2 PUSH1 0x5 SSTORE DUP7 ISZERO ISZERO DUP1 PUSH2 0x2035 JUMPI JUMPDEST PUSH2 0x1E89 JUMPI JUMPDEST POP POP POP POP POP POP POP POP POP PUSH1 0x1 PUSH1 0x5 SSTORE JUMP JUMPDEST PUSH1 0x6 SWAP2 DUP5 MSTORE DUP2 DUP2 MSTORE PUSH2 0x1E9C DUP6 DUP6 KECCAK256 PUSH2 0x1759 JUMP JUMPDEST SWAP9 DUP5 MSTORE MSTORE PUSH2 0x1EAB DUP4 DUP4 KECCAK256 PUSH2 0x1759 JUMP JUMPDEST SWAP3 DUP8 MLOAD SWAP2 DUP5 MLOAD SWAP9 DUP5 JUMPDEST DUP5 DUP2 LT PUSH2 0x1F02 JUMPI POP POP POP POP POP JUMPDEST DUP6 DUP2 LT PUSH2 0x1ED0 JUMPI DUP1 DUP1 DUP1 PUSH2 0x1E79 JUMP JUMPDEST DUP1 DUP4 PUSH2 0x1EDE PUSH1 0x1 SWAP4 DUP6 PUSH2 0x187F JUMP JUMPDEST MLOAD AND DUP6 DUP8 DUP3 PUSH2 0x1EF1 JUMPI JUMPDEST POP POP POP ADD PUSH2 0x1EC1 JUMP JUMPDEST PUSH2 0x1EFA SWAP3 PUSH2 0x1C12 JUMP JUMPDEST CODESIZE DUP6 DUP8 PUSH2 0x1EE8 JUMP JUMPDEST DUP1 DUP11 DUP11 DUP6 DUP15 DUP13 DUP12 DUP2 PUSH2 0x1F15 DUP16 SWAP10 DUP12 PUSH2 0x187F JUMP JUMPDEST MLOAD AND SWAP6 DUP2 SWAP3 JUMPDEST DUP5 DUP5 LT PUSH2 0x1F4A JUMPI JUMPDEST POP POP POP PUSH1 0x1 SWAP7 POP EQ PUSH2 0x1F39 JUMPI JUMPDEST POP POP POP ADD PUSH2 0x1EB4 JUMP JUMPDEST PUSH2 0x1F42 SWAP3 PUSH2 0x1D28 JUMP JUMPDEST CODESIZE DUP11 DUP6 PUSH2 0x1F30 JUMP JUMPDEST PUSH2 0x1F59 DUP5 DUP12 SWAP9 SWAP8 SWAP7 SWAP6 SWAP9 PUSH2 0x187F JUMP JUMPDEST MLOAD AND DUP8 EQ PUSH2 0x1F7D JUMPI POP POP POP POP POP PUSH1 0x1 SWAP2 SWAP3 SWAP4 POP ADD SWAP1 DUP11 DUP6 DUP15 DUP12 SWAP6 SWAP5 DUP16 DUP13 SWAP1 DUP16 PUSH2 0x1F1B JUMP JUMPDEST SWAP5 SWAP2 SWAP3 SWAP4 SWAP5 PUSH32 0x0 DUP13 MLOAD SWAP2 PUSH32 0x7A1F1AA900000000000000000000000000000000000000000000000000000000 DUP4 MSTORE DUP7 PUSH1 0x4 DUP5 ADD MSTORE PUSH1 0x24 DUP4 ADD MSTORE DUP7 PUSH1 0x44 DUP4 ADD MSTORE GAS DUP4 DUP1 PUSH1 0x64 DUP6 DUP3 DUP14 DUP8 CALL ISZERO PUSH2 0x2006 JUMPI JUMPDEST POP POP POP PUSH2 0x1FF9 DUP3 PUSH1 0x1 SWAP10 PUSH2 0x187F JUMP JUMPDEST MSTORE DUP16 DUP14 SWAP8 POP DUP13 SWAP1 DUP16 PUSH2 0x1F23 JUMP JUMPDEST SWAP4 SWAP8 SWAP9 SWAP10 POP SWAP5 POP SWAP5 POP POP PUSH1 0x3F SWAP2 POP MUL PUSH1 0x6 SHR LT PUSH2 0x202D JUMPI DUP6 DUP15 DUP12 SWAP6 SWAP5 SWAP4 DUP12 DUP16 SWAP5 DUP1 DUP1 PUSH2 0x1FEA JUMP JUMPDEST RETURNDATASIZE DUP10 DUP3 RETURNDATACOPY RETURNDATASIZE SWAP1 REVERT JUMPDEST POP DUP9 DUP3 EQ ISZERO PUSH2 0x1E74 JUMP JUMPDEST PUSH1 0x4 DUP6 MLOAD PUSH32 0x37ED32E800000000000000000000000000000000000000000000000000000000 DUP2 MSTORE REVERT JUMPDEST PUSH1 0x84 DUP3 DUP8 MLOAD SWAP1 PUSH32 0x8C379A000000000000000000000000000000000000000000000000000000000 DUP3 MSTORE PUSH1 0x4 DUP3 ADD MSTORE PUSH1 0x26 PUSH1 0x24 DUP3 ADD MSTORE PUSH32 0x45524332303A207472616E7366657220616D6F756E7420657863656564732062 PUSH1 0x44 DUP3 ADD MSTORE PUSH32 0x616C616E63650000000000000000000000000000000000000000000000000000 PUSH1 0x64 DUP3 ADD MSTORE REVERT JUMPDEST PUSH1 0x84 PUSH1 0x40 MLOAD PUSH32 0x8C379A000000000000000000000000000000000000000000000000000000000 DUP2 MSTORE PUSH1 0x20 PUSH1 0x4 DUP3 ADD MSTORE PUSH1 0x23 PUSH1 0x24 DUP3 ADD MSTORE PUSH32 0x45524332303A207472616E7366657220746F20746865207A65726F2061646472 PUSH1 0x44 DUP3 ADD MSTORE PUSH32 0x6573730000000000000000000000000000000000000000000000000000000000 PUSH1 0x64 DUP3 ADD MSTORE REVERT JUMPDEST PUSH1 0x84 PUSH1 0x40 MLOAD PUSH32 0x8C379A000000000000000000000000000000000000000000000000000000000 DUP2 MSTORE PUSH1 0x20 PUSH1 0x4 DUP3 ADD MSTORE PUSH1 0x25 PUSH1 0x24 DUP3 ADD MSTORE PUSH32 0x45524332303A207472616E736665722066726F6D20746865207A65726F206164 PUSH1 0x44 DUP3 ADD MSTORE PUSH32 0x6472657373000000000000000000000000000000000000000000000000000000 PUSH1 0x64 DUP3 ADD MSTORE REVERT JUMPDEST PUSH20 0xFFFFFFFFFFFFFFFFFFFFFFFFFFFFFFFFFFFFFFFF DUP1 SWAP2 AND SWAP2 DUP3 ISZERO PUSH2 0x22E5 JUMPI AND SWAP2 DUP3 ISZERO PUSH2 0x2261 JUMPI PUSH1 0x20 PUSH32 0x8C5BE1E5EBEC7D5BD14F71427D1E84F3DD0314C0F7B2291E5B200AC8C7C3B925 SWAP2 DUP4 PUSH1 0x0 MSTORE PUSH1 0x1 DUP3 MSTORE PUSH1 0x40 PUSH1 0x0 KECCAK256 DUP6 PUSH1 0x0 MSTORE DUP3 MSTORE DUP1 PUSH1 0x40 PUSH1 0x0 KECCAK256 SSTORE PUSH1 0x40 MLOAD SWAP1 DUP2 MSTORE LOG3 JUMP JUMPDEST PUSH1 0x84 PUSH1 0x40 MLOAD PUSH32 0x8C379A000000000000000000000000000000000000000000000000000000000 DUP2 MSTORE PUSH1 0x20 PUSH1 0x4 DUP3 ADD MSTORE PUSH1 0x22 PUSH1 0x24 DUP3 ADD MSTORE PUSH32 0x45524332303A20617070726F766520746F20746865207A65726F206164647265 PUSH1 0x44 DUP3 ADD MSTORE PUSH32 0x7373000000000000000000000000000000000000000000000000000000000000 PUSH1 0x64 DUP3 ADD MSTORE REVERT JUMPDEST PUSH1 0x84 PUSH1 0x40 MLOAD PUSH32 0x8C379A000000000000000000000000000000000000000000000000000000000 DUP2 MSTORE PUSH1 0x20 PUSH1 0x4 DUP3 ADD MSTORE PUSH1 0x24 DUP1 DUP3 ADD MSTORE PUSH32 0x45524332303A20617070726F76652066726F6D20746865207A65726F20616464 PUSH1 0x44 DUP3 ADD MSTORE PUSH32 0x7265737300000000000000000000000000000000000000000000000000000000 PUSH1 0x64 DUP3 ADD MSTORE REVERT JUMPDEST SWAP2 SWAP1 SWAP2 PUSH1 0x0 DUP4 DUP3 ADD SWAP4 DUP5 SLT SWAP2 SLT SWAP1 DUP1 ISZERO DUP3 AND SWAP2 ISZERO AND OR PUSH2 0x1DA7 JUMPI JUMP INVALID LOG2 PUSH5 0x6970667358 0x22 SLT KECCAK256 BALANCE 0xB4 CALL NUMBER PUSH0 0xDE CODECOPY LOG4 SWAP10 PUSH7 0x20E2CBF86DB2AF REVERT GASPRICE PUSH15 0x890F4D797173C18B4D2C70BA64736F PUSH13 0x63430008140033000000000000 "},"methodIdentifiers":{"addPlugin(address)":"d8867fc8","allowance(address,address)":"dd62ed3e","approve(address,uint256)":"095ea7b3","balanceOf(address)":"70a08231","burn(address,uint256)":"9dc29fac","decimals()":"313ce567","decreaseAllowance(address,uint256)":"a457c2d7","getTokenAYP()":"28ad0db7","getTokenSupply()":"ad974f4c","hasPlugin(address,address)":"ed6edc82","increaseAllowance(address,uint256)":"39509351","maxPluginsPerAccount()":"236d8835","mint(address,uint256)":"40c10f19","name()":"06fdde03","pluginAt(address,uint256)":"1945f729","pluginBalanceOf(address,address)":"c1255635","pluginCallGasLimit()":"b2be2d58","plugins(address)":"4b12e643","pluginsCount(address)":"61728134","removeAllPlugins()":"8b822d88","removePlugin(address)":"a4d95b64","symbol()":"95d89b41","totalSupply()":"18160ddd","transfer(address,uint256)":"a9059cbb","transferFrom(address,address,uint256)":"23b872dd","updateTokenAYP(int256)":"ceca812f","updateTokenSupply(int256)":"bb71fca5"}}}}}