{"contracts/CredPlugin.sol":{"CredPlugin":{"abi":[{"inputs":[{"internalType":"contract IERC20Plugins","name":"_myAsset","type":"address"}],"stateMutability":"nonpayable","type":"constructor"},{"inputs":[],"name":"AccessDenied","type":"error"},{"inputs":[],"name":"token","outputs":[{"internalType":"contract IERC20Plugins","name":"","type":"address"}],"stateMutability":"view","type":"function"},{"inputs":[{"internalType":"address","name":"from","type":"address"},{"internalType":"address","name":"to","type":"address"},{"internalType":"uint256","name":"amount","type":"uint256"}],"name":"updateBalances","outputs":[],"stateMutability":"nonpayable","type":"function"}],"evm":{"bytecode":{"linkReferences":{"contracts/libs/AYPCalc.sol":{"AYPCalc":[{"length":20,"start":661}]}},"object":"60a03461007057601f6105ac38819003918201601f19168301916001600160401b038311848410176100755780849260209460405283398101031261007057516001600160a01b038116810361007057608052604051610520908161008c8239608051818181608301526101150152f35b600080fd5b634e487b7160e01b600052604160045260246000fdfe6080604081815260048036101561001557600080fd5b600092833560e01c9182637a1f1aa9146100ab57505063fc0c546a1461003a57600080fd5b346100a757817ffffffffffffffffffffffffffffffffffffffffffffffffffffffffffffffffc3601126100a7576020905173ffffffffffffffffffffffffffffffffffffffff7f0000000000000000000000000000000000000000000000000000000000000000168152f35b5080fd5b849084346104625760607ffffffffffffffffffffffffffffffffffffffffffffffffffffffffffffffffc3601126104625781359373ffffffffffffffffffffffffffffffffffffffff80861680960361045e576024958635928284168094036102ee57604435927f000000000000000000000000000000000000000000000000000000000000000016330361043757508015158061042e575b61014d578580f35b83517fad974f4c000000000000000000000000000000000000000000000000000000009283825260209384838981875afa9283156103ca5789936103ff575b508183039289831280158286131691851216176103d457865190815284818981895afa9081156103ca578991610399575b5088828201928312911290801582169115161761036e578551917f1a502de90000000000000000000000000000000000000000000000000000000083528783015288820152828160448173__$648159d2c5d304602f0725feb07e8af575$__5af492831561033057879361033e575b5050803b1561033a57835186818981837fceca812f0000000000000000000000000000000000000000000000000000000096878352888c8401525af180156103305761031d575b507f800000000000000000000000000000000000000000000000000000000000000082146102f257958596833b156102ee578680948651978895869485528303908401525af19081156102e557506102ce575b808080808580f35b6102d790610466565b6102e25780826102c6565b80fd5b513d84823e3d90fd5b8680fd5b86866011877f4e487b7100000000000000000000000000000000000000000000000000000000835252fd5b61032990969196610466565b9487610273565b85513d89823e3d90fd5b8580fd5b9080929350813d8311610367575b61035681836104a9565b8101031261033a575190878061022c565b503d61034c565b88886011897f4e487b7100000000000000000000000000000000000000000000000000000000835252fd5b90508481813d83116103c3575b6103b081836104a9565b810103126103bf57518a6101bd565b8880fd5b503d6103a6565b87513d8b823e3d90fd5b898960118a7f4e487b7100000000000000000000000000000000000000000000000000000000835252fd5b9092508481813d8311610427575b61041781836104a9565b810103126103bf5751918a61018c565b503d61040d565b50821515610145565b807f4ca8886700000000000000000000000000000000000000000000000000000000879252fd5b8480fd5b8280fd5b67ffffffffffffffff811161047a57604052565b7f4e487b7100000000000000000000000000000000000000000000000000000000600052604160045260246000fd5b90601f7fffffffffffffffffffffffffffffffffffffffffffffffffffffffffffffffe0910116810190811067ffffffffffffffff82111761047a5760405256fea26469706673582212204434f698383d8278094cc25dc8d177b62d02dc8a2a13fbab94c98228d52f6d8a64736f6c63430008140033","opcodes":"PUSH1 0xA0 CALLVALUE PUSH2 0x70 JUMPI PUSH1 0x1F PUSH2 0x5AC CODESIZE DUP2 SWAP1 SUB SWAP2 DUP3 ADD PUSH1 0x1F NOT AND DUP4 ADD SWAP2 PUSH1 0x1 PUSH1 0x1 PUSH1 0x40 SHL SUB DUP4 GT DUP5 DUP5 LT OR PUSH2 0x75 JUMPI DUP1 DUP5 SWAP3 PUSH1 0x20 SWAP5 PUSH1 0x40 MSTORE DUP4 CODECOPY DUP2 ADD SUB SLT PUSH2 0x70 JUMPI MLOAD PUSH1 0x1 PUSH1 0x1 PUSH1 0xA0 SHL SUB DUP2 AND DUP2 SUB PUSH2 0x70 JUMPI PUSH1 0x80 MSTORE PUSH1 0x40 MLOAD PUSH2 0x520 SWAP1 DUP2 PUSH2 0x8C DUP3 CODECOPY PUSH1 0x80 MLOAD DUP2 DUP2 DUP2 PUSH1 0x83 ADD MSTORE PUSH2 0x115 ADD MSTORE RETURN JUMPDEST PUSH1 0x0 DUP1 REVERT JUMPDEST PUSH4 0x4E487B71 PUSH1 0xE0 SHL PUSH1 0x0 MSTORE PUSH1 0x41 PUSH1 0x4 MSTORE PUSH1 0x24 PUSH1 0x0 REVERT INVALID PUSH1 0x80 PUSH1 0x40 DUP2 DUP2 MSTORE PUSH1 0x4 DUP1 CALLDATASIZE LT ISZERO PUSH2 0x15 JUMPI PUSH1 0x0 DUP1 REVERT JUMPDEST PUSH1 0x0 SWAP3 DUP4 CALLDATALOAD PUSH1 0xE0 SHR SWAP2 DUP3 PUSH4 0x7A1F1AA9 EQ PUSH2 0xAB JUMPI POP POP PUSH4 0xFC0C546A EQ PUSH2 0x3A JUMPI PUSH1 0x0 DUP1 REVERT JUMPDEST CALLVALUE PUSH2 0xA7 JUMPI DUP2 PUSH32 0xFFFFFFFFFFFFFFFFFFFFFFFFFFFFFFFFFFFFFFFFFFFFFFFFFFFFFFFFFFFFFFFC CALLDATASIZE ADD SLT PUSH2 0xA7 JUMPI PUSH1 0x20 SWAP1 MLOAD PUSH20 0xFFFFFFFFFFFFFFFFFFFFFFFFFFFFFFFFFFFFFFFF PUSH32 0x0 AND DUP2 MSTORE RETURN JUMPDEST POP DUP1 REVERT JUMPDEST DUP5 SWAP1 DUP5 CALLVALUE PUSH2 0x462 JUMPI PUSH1 0x60 PUSH32 0xFFFFFFFFFFFFFFFFFFFFFFFFFFFFFFFFFFFFFFFFFFFFFFFFFFFFFFFFFFFFFFFC CALLDATASIZE ADD SLT PUSH2 0x462 JUMPI DUP2 CALLDATALOAD SWAP4 PUSH20 0xFFFFFFFFFFFFFFFFFFFFFFFFFFFFFFFFFFFFFFFF DUP1 DUP7 AND DUP1 SWAP7 SUB PUSH2 0x45E JUMPI PUSH1 0x24 SWAP6 DUP7 CALLDATALOAD SWAP3 DUP3 DUP5 AND DUP1 SWAP5 SUB PUSH2 0x2EE JUMPI PUSH1 0x44 CALLDATALOAD SWAP3 PUSH32 0x0 AND CALLER SUB PUSH2 0x437 JUMPI POP DUP1 ISZERO ISZERO DUP1 PUSH2 0x42E JUMPI JUMPDEST PUSH2 0x14D JUMPI DUP6 DUP1 RETURN JUMPDEST DUP4 MLOAD PUSH32 0xAD974F4C00000000000000000000000000000000000000000000000000000000 SWAP3 DUP4 DUP3 MSTORE PUSH1 0x20 SWAP4 DUP5 DUP4 DUP10 DUP2 DUP8 GAS STATICCALL SWAP3 DUP4 ISZERO PUSH2 0x3CA JUMPI DUP10 SWAP4 PUSH2 0x3FF JUMPI JUMPDEST POP DUP2 DUP4 SUB SWAP3 DUP10 DUP4 SLT DUP1 ISZERO DUP3 DUP7 SGT AND SWAP2 DUP6 SLT AND OR PUSH2 0x3D4 JUMPI DUP7 MLOAD SWAP1 DUP2 MSTORE DUP5 DUP2 DUP10 DUP2 DUP10 GAS STATICCALL SWAP1 DUP2 ISZERO PUSH2 0x3CA JUMPI DUP10 SWAP2 PUSH2 0x399 JUMPI JUMPDEST POP DUP9 DUP3 DUP3 ADD SWAP3 DUP4 SLT SWAP2 SLT SWAP1 DUP1 ISZERO DUP3 AND SWAP2 ISZERO AND OR PUSH2 0x36E JUMPI DUP6 MLOAD SWAP2 PUSH32 0x1A502DE900000000000000000000000000000000000000000000000000000000 DUP4 MSTORE DUP8 DUP4 ADD MSTORE DUP9 DUP3 ADD MSTORE DUP3 DUP2 PUSH1 0x44 DUP2 PUSH20 0x0 GAS DELEGATECALL SWAP3 DUP4 ISZERO PUSH2 0x330 JUMPI DUP8 SWAP4 PUSH2 0x33E JUMPI JUMPDEST POP POP DUP1 EXTCODESIZE ISZERO PUSH2 0x33A JUMPI DUP4 MLOAD DUP7 DUP2 DUP10 DUP2 DUP4 PUSH32 0xCECA812F00000000000000000000000000000000000000000000000000000000 SWAP7 DUP8 DUP4 MSTORE DUP9 DUP13 DUP5 ADD MSTORE GAS CALL DUP1 ISZERO PUSH2 0x330 JUMPI PUSH2 0x31D JUMPI JUMPDEST POP PUSH32 0x8000000000000000000000000000000000000000000000000000000000000000 DUP3 EQ PUSH2 0x2F2 JUMPI SWAP6 DUP6 SWAP7 DUP4 EXTCODESIZE ISZERO PUSH2 0x2EE JUMPI DUP7 DUP1 SWAP5 DUP7 MLOAD SWAP8 DUP9 SWAP6 DUP7 SWAP5 DUP6 MSTORE DUP4 SUB SWAP1 DUP5 ADD MSTORE GAS CALL SWAP1 DUP2 ISZERO PUSH2 0x2E5 JUMPI POP PUSH2 0x2CE JUMPI JUMPDEST DUP1 DUP1 DUP1 DUP1 DUP6 DUP1 RETURN JUMPDEST PUSH2 0x2D7 SWAP1 PUSH2 0x466 JUMP JUMPDEST PUSH2 0x2E2 JUMPI DUP1 DUP3 PUSH2 0x2C6 JUMP JUMPDEST DUP1 REVERT JUMPDEST MLOAD RETURNDATASIZE DUP5 DUP3 RETURNDATACOPY RETURNDATASIZE SWAP1 REVERT JUMPDEST DUP7 DUP1 REVERT JUMPDEST DUP7 DUP7 PUSH1 0x11 DUP8 PUSH32 0x4E487B7100000000000000000000000000000000000000000000000000000000 DUP4 MSTORE MSTORE REVERT JUMPDEST PUSH2 0x329 SWAP1 SWAP7 SWAP2 SWAP7 PUSH2 0x466 JUMP JUMPDEST SWAP5 DUP8 PUSH2 0x273 JUMP JUMPDEST DUP6 MLOAD RETURNDATASIZE DUP10 DUP3 RETURNDATACOPY RETURNDATASIZE SWAP1 REVERT JUMPDEST DUP6 DUP1 REVERT JUMPDEST SWAP1 DUP1 SWAP3 SWAP4 POP DUP2 RETURNDATASIZE DUP4 GT PUSH2 0x367 JUMPI JUMPDEST PUSH2 0x356 DUP2 DUP4 PUSH2 0x4A9 JUMP JUMPDEST DUP2 ADD SUB SLT PUSH2 0x33A JUMPI MLOAD SWAP1 DUP8 DUP1 PUSH2 0x22C JUMP JUMPDEST POP RETURNDATASIZE PUSH2 0x34C JUMP JUMPDEST DUP9 DUP9 PUSH1 0x11 DUP10 PUSH32 0x4E487B7100000000000000000000000000000000000000000000000000000000 DUP4 MSTORE MSTORE REVERT JUMPDEST SWAP1 POP DUP5 DUP2 DUP2 RETURNDATASIZE DUP4 GT PUSH2 0x3C3 JUMPI JUMPDEST PUSH2 0x3B0 DUP2 DUP4 PUSH2 0x4A9 JUMP JUMPDEST DUP2 ADD SUB SLT PUSH2 0x3BF JUMPI MLOAD DUP11 PUSH2 0x1BD JUMP JUMPDEST DUP9 DUP1 REVERT JUMPDEST POP RETURNDATASIZE PUSH2 0x3A6 JUMP JUMPDEST DUP8 MLOAD RETURNDATASIZE DUP12 DUP3 RETURNDATACOPY RETURNDATASIZE SWAP1 REVERT JUMPDEST DUP10 DUP10 PUSH1 0x11 DUP11 PUSH32 0x4E487B7100000000000000000000000000000000000000000000000000000000 DUP4 MSTORE MSTORE REVERT JUMPDEST SWAP1 SWAP3 POP DUP5 DUP2 DUP2 RETURNDATASIZE DUP4 GT PUSH2 0x427 JUMPI JUMPDEST PUSH2 0x417 DUP2 DUP4 PUSH2 0x4A9 JUMP JUMPDEST DUP2 ADD SUB SLT PUSH2 0x3BF JUMPI MLOAD SWAP2 DUP11 PUSH2 0x18C JUMP JUMPDEST POP RETURNDATASIZE PUSH2 0x40D JUMP JUMPDEST POP DUP3 ISZERO ISZERO PUSH2 0x145 JUMP JUMPDEST DUP1 PUSH32 0x4CA8886700000000000000000000000000000000000000000000000000000000 DUP8 SWAP3 MSTORE REVERT JUMPDEST DUP5 DUP1 REVERT JUMPDEST DUP3 DUP1 REVERT JUMPDEST PUSH8 0xFFFFFFFFFFFFFFFF DUP2 GT PUSH2 0x47A JUMPI PUSH1 0x40 MSTORE JUMP JUMPDEST PUSH32 0x4E487B7100000000000000000000000000000000000000000000000000000000 PUSH1 0x0 MSTORE PUSH1 0x41 PUSH1 0x4 MSTORE PUSH1 0x24 PUSH1 0x0 REVERT JUMPDEST SWAP1 PUSH1 0x1F PUSH32 0xFFFFFFFFFFFFFFFFFFFFFFFFFFFFFFFFFFFFFFFFFFFFFFFFFFFFFFFFFFFFFFE0 SWAP2 ADD AND DUP2 ADD SWAP1 DUP2 LT PUSH8 0xFFFFFFFFFFFFFFFF DUP3 GT OR PUSH2 0x47A JUMPI PUSH1 0x40 MSTORE JUMP INVALID LOG2 PUSH5 0x6970667358 0x22 SLT KECCAK256 PREVRANDAO CALLVALUE 0xF6 SWAP9 CODESIZE RETURNDATASIZE DUP3 PUSH25 0x94CC25DC8D177B62D02DC8A2A13FBAB94C98228D52F6D8A64 PUSH20 0x6F6C634300081400330000000000000000000000 "},"methodIdentifiers":{"token()":"fc0c546a","updateBalances(address,address,uint256)":"7a1f1aa9"}}}}}